S00F0000746573744C49422E737265637E
S113000046C4000074C4000072C4000070C4000040
S11300106EC400006CC400006AC4000068C4000020
S113002066C4000064C4000062C4000060C4000030
S11300305EC400005CC400005AC4000058C4000040
S113004056C4000054C4000052C4000050C4000050
S11300504EC400004CC400004AC400000C94400983
S113006046C400003CC6000070C6000040C4000046
S11300703EC400003CC400003AC4000038C4000080
S113008036C4000034C4000032C4000030C4000090
S11300900C94E4490C941A4A2AC400000C94915913
S11300A026C4000024C4000022C4000020C40000B0
S11300B01EC400001CC400001AC4000018C40000C0
S11300C016C4000014C4000012C4000010C40000D0
S11300D00EC400000CC400000AC4000008C40000E0
S11300E006C40000BC4ABF4AAE4AB24AB84AF64AFD
S11300F0C34AC74ACD4AD14AD54ADB4ADF4AE34A12
S1130100F64AE94AED4AF14A084AD73B3BCE016E2A
S113011084BCBFFDC12F3D6C74319ABD56833DDA5A
S11301203D00C77F11BED9E4BB4C3E916BAAAABE69
S1130130000000803F05A84CCDB2D44EB93836A992
S1130140020C50B9918688083CA6AAAA2ABE0000CF
S113015000803F0000407A10F35A00A0724E180944
S11301600010A5D4E80000E87648170000E40B541A
S1130170020000CA9A3B000000E1F50500008096E9
S11301809800000040420F000000A086010000001B
S1130190102700000000E8030000000064000000D5
S11301A000000A00000000000100000000002C769E
S11301B0D888DC674F0823DFC1DFAE59E1B1B796B9
S11301C0E5E3E453C63AE651997696E8E6C2842616
S11301D0EB898C9B62ED407C6FFCEFBC9C9F40F2F2
S11301E0BAA56FA5F490055A2AF75C936B6CF9676E
S11301F06DC11BFCE0E40D47FEF520E6B500D0ED33
S1130200902E0300943577050080841E080000209A
S11302104E0A000000C80C333333330F986E128338
S11302201141EF8D2114893BE65516CFFEE6DB180C
S1130230D1844B381BF77C1D901DA4BBE4242032D1
S113024084725E228100C9F124ECA1E53D270018E7
S113025054321C32541800003FFF2001E001E00139
S113026020013FFF000000000A0B02090C0D0E08DC
S1130270070304010000000000000000000000006B
S1130280000000000000000000000000000000006A
S11302900000121110000000000000000000000027
S11302A00000000000000000000000000102102017
S11302B02008081020401020408002010201080498
S11302C0020101020408102040808040201008042C
S11302D00201800402018040201008040201080485
S11302E002010102040810204080010204081020C9
S11302F040800505050507050808080802020202F2
S11303000A0A0808040404040101010101010101AD
S11303100303030303030303040707070C0C0C0C78
S11303200C0C0C0C02020202060606060606060661
S11303300B0B0B0B0B0B0B0B0000200023002600F8
S113034029002C002F0032000001000003010601E7
S1130350090100002200250028002B002E00310096
S1130360340002010000050108010B010000210016
S1130370240027002A002D00300033000101000072
S1130380040107010A0100000000003E5B4F5B3ED0
S11303903E6B4F6B3E1C3E7C3E1C183C7E3C181C46
S11303A0577D571C1C5E7F5E1C00183C1800FFE73D
S11303B0C3E7FF0018241800FFE7DBE7FF30483AE3
S11303C0060E2629792926407F050507407F052545
S11303D03F5A3CE73C5A7F3E1C1C08081C1C3E7FCD
S11303E014227F22145F5F005F5F06097F017F0094
S11303F06689956A606060606094A2FFA2940804B4
S11304007E040810207E201008082A1C08081C2AD4
S113041008081E101010100C1E0C1E0C30383E382C
S113042030060E3E0E06000000000000005F0000D3
S11304300007000700147F147F14242A7F2A122344
S11304401308646236495620500008070300001C54
S11304502241000041221C002A1C7F1C2A08083E5D
S11304600808008070300008080808080000606070
S11304700020100804023E5149453E00427F4000DE
S113048072494949462141494D331814127F1027B6
S1130490454545393C4A4949314121110907364905
S11304A0494936464949291E0000140000004034D9
S11304B000000008142241141414141400412214DE
S11304C00802015909063E415D594E7C1211127C05
S11304D07F494949363E414141227F4141413E7F66
S11304E0494949417F090909013E414151737F0846
S11304F008087F00417F41002040413F017F0814EC
S113050022417F404040407F021C027F7F0408104C
S11305107F3E4141413E7F090909063E4151215E2A
S11305207F09192946264949493203017F01033FBE
S11305304040403F1F2040201F3F4038403F63144D
S113054008146303047804036159494D43007F414F
S113055041410204081020004141417F040201028C
S113056004404040404000030708002054547840B1
S11305707F284444383844444428384444287F3845
S11305805454541800087E090218A4A49C787F08C7
S113059004047800447D40002040403D007F102842
S11305A0440000417F40007C047804787C08040403
S11305B0783844444438FC1824241818242418FC9B
S11305C07C08040408485454542404043F44243C40
S11305D04040207C1C2040201C3C4030403C4428AF
S11305E01028444C9090907C4464544C4400083649
S11305F041000000770000004136080002010204B7
S1130600023C2623263C1EA1A161123A4040207AD6
S1130610385454555921555579412254547842211E
S11306205554784020545579400C1E527212395555
S11306305555593954545459395554545800004552
S11306407C410002457D420001457C407D1211122F
S11306507DF0282528F07C545545002054547C54C2
S11306607C0A097F4932494949323A4444443A327E
S11306704A4848303A4141217A3A42402078009D24
S1130680A0A07D3D4242423D3D4040403D3C24FFD0
S11306902424487E4943662B2FFC2F2BFF0929F67F
S11306A020C0887E090320545479410000447D41D0
S11306B03048484A32384040227A007A0A0A727D29
S11306C00D19317D2629292F282629292926304844
S11306D04D4020380808080808080808382F10C8B2
S11306E0ACBA2F102834FA00007B000008142A1436
S11306F02222142A14085500550055AA55AA55AAB1
S1130700FF55FF55FF000000FF00101010FF0014FC
S11307101414FF001010FF00FF1010F010F0141458
S113072014FC001414F700FF0000FF00FF1414F47D
S113073004FC141417101F10101F101F1414141F7E
S113074000101010F0000000001F101010101F10F7
S1130750101010F010000000FF10101010101010F6
S11307601010FF10000000FF140000FF00FF000045
S11307701F10170000FC04F414141710171414F4B9
S113078004F40000FF00F714141414141414F700F4
S1130790F7141414171410101F101F141414F41445
S11307A01010F010F000001F101F0000001F1400B4
S11307B00000FC140000F010F01010FF10FF1414DF
S11307C014FF141010101F00000000F010FFFFFFB2
S11307D0FFFFF0F0F0F0F0FFFFFF0000000000FF6B
S11307E0FF0F0F0F0F0F3844443844FC4A4A4A3471
S11307F07E02020606027E027E0263554941633888
S113080044443C04407E201E2006027E020299A538
S1130810E7A5991C2A492A1C4C7201724C304A4D96
S11308204D303048784830BC625A463D3E494949CB
S1130830007E0101017E2A2A2A2A2A44445F444474
S113084040514A444040444A51400000FF0103E003
S113085080FF000008086B6B083612362436060F3A
S1130860090F06000018180000001010003040FFA7
S11308700101001F01011E00191D1712003C3C3C20
S11308803C0000000000DF04D706DF494E4A112473
S11308901FBECFEFD1E2DEBFCDBF00E00CBF10E141
S11308A0A0E0B2E0E2EAFDEC00E00BBF02C007907A
S11308B00D92A43AB107D9F725E1A4EAB0E101C049
S11308C01D92A93DB207E1F714E0C7E4D4E000E0CB
S11308D006C021970109802FFE010E94855EC33462
S11308E0D10780E00807A9F790D20C94CF6688CB93
S11308F0CF93DF9326E040E05BE460E070E082EBBE
S113090090E162D186E794E10E944E498DEE94E035
S113091086D2EC010E942223D093B110C093B01070
S1130920D093AF10C093AE1061E374E082EB90E11A
S1130930DF91CF91C4C284EA90E10E94CF448091B8
S1130940B0109091B11045960E94DC0D84EA90E1BC
S11309500E948A3F682F8091B0109091B1100E943C
S11309605425811106C08091B0109091B1100E945D
S113097078248091B0109091B1100E9486328091B9
S1130980B0109091B1100E9491208091B01090917C
S1130990B1108F549F4F0E94BC478091B01090912A
S11309A0B1100E94F8268091B0109091B110459634
S11309B00E946A0F6AE070E080E090E0DCC484EAA0
S11309C090E10C948039FC01918D228D892F90E067
S11309D0805C9F4F821B91098F7399270895FC01B6
S11309E0918D828D981731F0828DE80FF11D858DE0
S11309F090E008958FEF9FEF0895FC01918D828D13
S1130A00981761F0828DDF01A80FB11D5D968C915E
S1130A10928D9F5F9F73928F90E008958FEF9FEF69
S1130A200895FC01538D448D252F30E0842F90E0F0
S1130A30821B930B541710F0CF96089501970895D5
S1130A408EEC96E0892B39F080E090E0892B19F048
S1130A50A5D1811125C084E49AE4892B41F080E07A
S1130A6090E0892B21F00E94444A81111CC080E04F
S1130A7090E0892B41F080E090E0892B21F00E94E6
S1130A800000811113C080E090E0892BA1F080E088
S1130A9090E0892B81F00E94000081110AC0089522
S1130AA00E940000D8CF0E940000E1CF0E94000005
S1130AB0EACF0C9400000895FC01848DDF01A80F97
S1130AC0B11DA35ABF4F2C91848D90E001968F7372
S1130AD09927848FA689B7892C93A089B1898C9191
S1130AE080648C93938D848D981306C00288F38957
S1130AF0E02D80818F7D80830895EF92FF920F9384
S1130B001F93CF93DF93EC0181E0888F9B8D8C8DB5
S1130B10981305C0E889F989808185FD23C0F62EE4
S1130B200B8D10E00F5F1F4F0F731127E02E8C8D7C
S1130B30E8120BC00FB607FCFACFE889F989808167
S1130B4085FFF5CFCE01B8DFF2CF8B8DFE01E80F24
S1130B50F11DE35AFF4FF0820B8FEA89FB898081F4
S1130B60806207C0EE89FF896083E889F989808102
S1130B708064808381E090E0DF91CF911F910F9199
S1130B80FF90EF900895CF93DF93EC01888D882335
S1130B90C1F0EA89FB89808185FD05C0A889B989EE
S1130BA08C9186FD0EC00FB607FCF5CF808185FFC2
S1130BB0F2CFA889B9898C9185FFEDCFCE017CDF76
S1130BC0E8CFDF91CF910895CF92DF92EF92FF9219
S1130BD01F93CF93DF93EC016A017B01122FE88905
S1130BE0F98982E080834115514E61057105B1F0A8
S1130BF060E079E08DE390E0A70196010E94475EF2
S1130C00DA01C9010197A109B109B695A79597958C
S1130C1087959C01211580E13807A8F0E889F989B6
S1130C20108260E874E88EE190E0A70196010E94CA
S1130C30475EDA01C9010197A109B109B695A795E3
S1130C40979587959C01EC85FD853083EE85FF851E
S1130C502083188EEC89FD891083EA89FB898081C1
S1130C6080618083EA89FB89808188608083EA8946
S1130C70FB89808180688083EA89FB8980818F7DFC
S1130C808083DF91CF911F91FF90EF90DF90CF9001
S1130C900895CF93DF93EC01E881F9810680F78111
S1130CA0E02D1995EA89FB8980818F7E8083EA890A
S1130CB0FB898081877F8083EA89FB8980818F77A4
S1130CC08083EA89FB8980818F7D80838A8D898FE7
S1130CD0DF91CF91089580E090E0089508951F92E8
S1130CE00F920FB60F9211240BB60F922F938F937E
S1130CF09F93EF93FF93E091C210F091C310808112
S1130D00E091C810F091C91082FD12C090818091C9
S1130D10CB108F5F8F732091CC10821751F0E0912C
S1130D20CB10F0E0EE54FF4E958F8093CB1001C0B2
S1130D308081FF91EF919F918F912F910F900BBE26
S1130D400F900FBE0F901F9018951F920F920FB621
S1130D500F9211240BB60F922F933F934F935F93EF
S1130D606F937F938F939F93AF93BF93EF93FF936F
S1130D7082EB90E1A1DEFF91EF91BF91AF919F9142
S1130D808F917F916F915F914F913F912F910F9030
S1130D900BBE0F900FBE0F901F90189582EB90E141
S1130DA012DE21E0892B09F420E0822F0895E2EB82
S1130DB0F0E11382128288EE93E0A0E0B0E0848335
S1130DC09583A683B7838EE494E09183808385EC36
S1130DD090E09587848784EC90E09787868780EC01
S1130DE090E0918B808B81EC90E0938B828B82ECF2
S1130DF090E0958B848B86EC90E0978B868B118E9C
S1130E00128E138E148E08950895EFD2FDDF70DDD7
S1130E10C0E2D5E090DD2097E9F312DEFBCF0C941D
S1130E20D95E0C94D95E0C94715FCF92DF92EF92ED
S1130E30FF920F931F93CF93DF936C017A018B0181
S1130E40C0E0D0E0CE15DF0581F0D8016D918D01B1
S1130E50D601ED91FC910190F081E02DC601199528
S1130E60892B11F02196EECF7E01C701DF91CF913E
S1130E701F910F91FF90EF90DF90CF90089561152F
S1130E80710579F0FB0101900020E9F73197AF017A
S1130E90461B570BDC01ED91FC910280F381E02DA0
S1130EA0199480E090E00895EACFDC01ED91FC9183
S1130EB00190F081E02D19946CE574E0E0CF0F937C
S1130EC01F93CF93DF93EC01DADF8C01CE01F4DFC3
S1130ED0800F911FDF91CF911F910F9108958F92F1
S1130EE09F92AF92BF92EF92FF920F931F93CF9373
S1130EF0DF93CDB7DEB7A1970FB6F894DEBF0FBE70
S1130F00CDBF7C01FA01CB0119A2223008F42AE0FA
S1130F108E010F5D1F4F822E912CA12CB12CBF018D
S1130F20A50194010E94475EF901CA01015011090B
S1130F306A3010F4605D01C0695CD8016C93232BA6
S1130F40242B252B61F7B801C70199DFA1960FB6B1
S1130F50F894DEBF0FBECDBFDF91CF911F910F91EB
S1130F60FF90EF90BF90AF909F908F9008952115C0
S1130F70310541F4DC01ED91FC910190F081E02D0B
S1130F80642F1994ACCF9A01462F50E060E070E0D2
S1130F90EECF0F931F93CF93DF93EC01F4DF8C011B
S1130FA0CE018ADF800F911FDF91CF911F910F91A6
S1130FB008959A01AB0160E070E0D9CF0F931F93BD
S1130FC0CF93DF93EC01F5DF8C01CE0175DF800F49
S1130FD0911FDF91CF911F910F910895CF92DF92CE
S1130FE0EF92FF920F931F93CF93DF932115310557
S1130FF081F4DC01ED91FC910190F081E02D642FEE
S1131000DF91CF911F910F91FF90EF90DF90CF90E0
S113101019942A303105F1F477FF1BC06A017B0172
S1131020EC016DE242DF8C0144275527BA014C19CB
S11310305D096E097F092AE0CE0151DF800F911FFF
S1131040DF91CF911F910F91FF90EF90DF90CF90A0
S113105008952AE0DF91CF911F910F91FF90EF90B7
S1131060DF90CF903CCF9A01AB01770F660B770BE3
S1131070B5CF0F931F93CF93DF93EC01F4DF8C0173
S1131080CE011ADF800F911FDF91CF911F910F9135
S113109008950F931F93CF93DF93EC019FDF8C018F
S11310A0CE010ADF800F911FDF91CF911F910F9125
S11310B008957F928F929F92AF92BF92CF92DF92C8
S11310C0EF92FF920F931F93CF93DF938C016A01EA
S11310D07B01722E9A01AB01C701B6010E94EF5D3C
S11310E0882319F06FE574E027C046015701E8949E
S11310F0B7F82FEF3FEF4FE75FE7C501B4010E9458
S1131100EF5D81110DC02FEF3FEF4FE75FE7C501A2
S1131110B4010E94865B18161CF463E674E00CC0EC
S11311202FEF3FEF4FE75FE4C701B6010E94365D42
S113113018168CF467E674E0C801DF91CF911F9113
S11311400F91FF90EF90DF90CF90BF90AF909F9062
S11311508F907F9094CE2FEF3FEF4FE75FECC70166
S1131160B6010E94865B87FDE5CF20E030E0A9014F
S1131170C701B6010E94865B87FF09C06DE2C80102
S113118094DEEC01F7FAF094F7F8F09402C0C0E0B2
S1131190D0E0B12C60E070E080E09FE37B1441F08C
S11311A020E030E040E251E40E948D5BB394F6CF3E
S11311B0A70196010E94C05A6B017C010E94FA5B50
S11311C04B015C012AE0AB01BC01C80188DEC80FF9
S11311D0D91F7720A9F1C501B4010E94265C9B01A7
S11311E0AC01C701B6010E94BF5A6B017C016EE2DB
S11311F0C8015BDEC80FD91F20E030E040E251E4B3
S1131200C701B6010E94415D4B015C010E94FA5B7B
S11312106B017C014AE050E0C801CBDEC80FD91F46
S1131220B60180E090E00E94265C9B01AC01C50100
S1131230B4010E94BF5A6B017C017A947110DCCF17
S1131240CE01DF91CF911F910F91FF90EF90DF902E
S1131250CF90BF90AF909F908F907F90089529CFAB
S11312600F931F93CF93DF93EC0123DF8C01CE0107
S113127023DE800F911FDF91CF911F910F9108956D
S11312801F920F920FB60F9211242F933F938F93B7
S11312909F93AF93BF938091501190915111A0915E
S11312A05211B091531130914F1123E0230F2D3778
S11312B020F40196A11DB11D05C026E8230F029656
S11312C0A11DB11D20934F11809350119093511182
S11312D0A0935211B09353118091541190915511D0
S11312E0A0915611B09157110196A11DB11D809383
S11312F0541190935511A0935611B0935711BF9167
S1131300AF919F918F913F912F910F900FBE0F90AE
S11313101F9018952FB7F894609150117091511146
S113132080915211909153112FBF08953FB7F894B3
S11313308091541190915511A0915611B09157116B
S113134026B5A89B05C02F3F19F00196A11DB11D1C
S11313503FBFBA2FA92F982F8827820F911DA11D57
S1131360B11DBC01CD0142E0660F771F881F991F94
S11313704A95D1F708958F929F92AF92BF92CF92E0
S1131380DF92EF92FF926B017C01D0DF4B015C0195
S1131390C114D104E104F104F9F00E947B4AC6DFD0
S11313A0DC01CB0188199909AA09BB09883E93403D
S11313B0A105B10568F321E0C21AD108E108F108DA
S11313C088EE880E83E0981EA11CB11CC114D104C0
S11313D0E104F10421F7DCCFFF90EF90DF90CF9090
S11313E0BF90AF909F908F900895789484B5826059
S11313F084BD84B5816084BD85B5826085BD85B5B5
S1131400816085BDEEE6F0E0808181608083E1E863
S1131410F0E010828081826080838081816080839B
S1131420E0E8F0E0808181608083E1EBF0E080819E
S113143084608083E0EBF0E0808181608083E1E977
S1131440F0E0808182608083808181608083E0E934
S1131450F0E0808181608083E1EAF0E08081826055
S11314608083808181608083E0EAF0E08081816014
S11314708083E1E2F1E08081826080838081816009
S11314808083E0E2F1E0808181608083EAE7F0E03C
S11314908081846080838081826080838081816098
S11314A080838081806880831092C10008950F93A7
S11314B01F93CF93DF93DC01FB0155968C915597D5
S11314C0823089F0833021F1813009F0E7C014962D
S11314D08D919C911597BC01641B750BAB01415018
S11314E05109BF011DC014966D917C911597CB01D4
S11314F08E1B9F0BFC0116968D919C911797BC0136
S1131500641B750BAB0141505109E21BF30BC6C0C0
S113151016966D917C9117976E1B7F0B621B730B54
S113152057FD1BC114968D919C9115974817590727
S11315300CF013C177FF04C0260F371F60E070E082
S113154016968D919C911797FB01E20FF31F8E174E
S11315509F071CF49C01261B370B121613060CF074
S1131560FCC0A22F862F86958695869590E8899F44
S1131570400D511D1124FA01EA5EFD4F6770A9F177
S113158098E0961B492F50E0EA01C25FDD4F888145
S1131590291790F4421B51092FEF30E002C0359512
S11315A027954A95E2F782230130110541F068F04E
S11315B00230110589F0D1C00130110519F42081E0
S11315C0822B0CC00130110520F4809520818223E8
S11315D005C00230110531F4208182278083A917C8
S11315E008F4BBC0A91BE058FF4FA83048F10230F3
S11315F0110559F4EF018A2F988190959883C0586A
S1131600DF4F88508830C0F733C081E001301105C6
S113161009F080E08195EF019A2F8883C058DF4F4D
S113162098509830D0F788EF8A0F869586958695DE
S113163060E8869FE00DF11D1124E058FF4FA7706C
S1131640AA2309F48AC0B0E0AA5FBD4F8C9101308F
S1131650110531F040F00230110509F07EC01BC0C5
S11316609081892B03C0809590818923808375C0E4
S113167088EF8A0F86958695869570E8879FE00D9A
S1131680F11D1124E058FF4FA77009F466C0B0E0C3
S1131690AA5FBD4F8C9190818927E8CF57FD5DC02B
S11316A016968D919C911797481759070CF055C0C1
S11316B0F7FF04C02E0F3F1FE0E0F0E014968D9179
S11316C09C911597BF01620F731F861797071CF42F
S11316D09C012E1B3F0B121613060CF03EC0CA01D0
S11316E057FD079663E0959587956A95E1F796957A
S11316F0982F882797958795E80FF91FEA5EFD4F85
S11317004770552781E090E001C0880F4A95EAF7B9
S1131710482F0130110539F078F002301105E9F451
S11317202E0F3F1F13C02E0F3F1FE217F307A9F020
S11317308081842B8193F9CF80952E0F3F1FE21770
S1131740F30759F0908198239193F9CFE217F307A7
S113175021F0808184278193F9CFDF91CF911F916C
S11317600F9108950F931F93CF93DF93DC01559648
S11317708C915597823071F0833009F1813009F0F2
S11317808CC01496ED91FC911597E41BF50BE21BAC
S1131790F30B20C01496ED91FC911597CF01861B95
S11317A0970BBC01615071091696ED91FC91179746
S11317B0CF01841B950BAC01421B530B6EC01696D4
S11317C0ED91FC911797CF01861B970BBC016150DB
S11317D07109FA0177FD1BC116968D919C9117979B
S11317E0681779070CF013C1F7FF04C02E0F3F1FD1
S11317F0E0E0F0E014968D919C911597AF01420FB3
S1131800531F841795071CF49C012E1B3F0B1216C3
S113181013060CF0FCC0CB0177FD079643E09595C9
S113182087954A95E1F79695982F882797958795F8
S1131830E80FF91FEA5EFD4F6770772781E090E0BB
S113184001C0880F6A95EAF7482F0130110541F06D
S113185088F00230110509F0DAC02E0F3F1F15C0C1
S11318602E0F3F1FE217F30709F4D1C08081842BA8
S11318708193F8CF80952E0F3F1FE217F30709F4E9
S1131880C6C0908198239193F8CFE217F30709F427
S1131890BEC0808184278193F8CF77FDB8C01496A9
S11318A08D919C911597681779070CF0B0C057FF7C
S11318B004C0240F351F40E050E016968D919C9192
S11318C01797FA01E20FF31F8E179F071CF49C0170
S11318D0241B350B121613060CF099C0A22F842F6B
S11318E086958695869590E8899F600D711D1124D3
S11318F0FB01EA5EFD4F4770A9F198E0941B492F64
S113190050E0EA01C25FDD4F8881291790F4421B41
S113191051092FEF30E002C0359527954A95E2F73B
S113192082230130110541F068F00230110589F07D
S11319306EC00130110519F42081822B0CC00130D6
S1131940110520F480952081822305C00230110501
S113195031F4208182278083A91708F458C0A91B79
S1131960E058FF4FA83048F10230110559F4EF0157
S11319708A2F988190959883C058DF4F885088307B
S1131980C0F730C081E00130110509F080E0819595
S1131990EF019A2F8883C058DF4F98509830D0F7C2
S11319A088EF8A0F86958695869590E8899FE00D45
S11319B0F11D1124E058FF4FA770AA2341F1B0E0B4
S11319C0AA5FBD4F8C910130110529F038F0023027
S11319D01105E9F419C09081892B18C08095908174
S11319E0892314C088EF8A0F86958695869590E89A
S11319F0899FE00DF11D1124E058FF4FA77039F0C5
S1131A00B0E0AA5FBD4F8C91908189278083DF91DC
S1131A10CF911F910F910895CF92DF92EF92FF9291
S1131A200F931F93CF93DF937C018B01EA0169012C
S1131A3077FDA0C00E942952081719070CF09AC01C
S1131A40D7FD98C0C7010E942D52C817D9070CF0C2
S1131A5091C0C7010E942652823009F07FC0F7016D
S1131A60848195819C01201B310B8901015011094E
S1131A7086819781FC01EC1BFD0BEF0121970BC0C4
S1131A80813049F4F701848195818C1B9D0BE80119
S1131A908C0101501109F1E0CF16D10431F010F19D
S1131AA032E0C316D104E1F165C0FE01D7FD3796DB
S1131AB043E0F595E7954A95E1F7F695FE2FEE2775
S1131AC0F795E7950E0F1F1FF801EA5EFD4FC770EB
S1131AD0DD2781E090E001C0880FCA95EAF7908184
S1131AE0892B3AC0FE01D7FD379623E0F595E7959B
S1131AF02A95E1F7F695FE2FEE27F795E7950E0F59
S1131B001F1FF801EA5EFD4FC770DD2781E090E0FA
S1131B1001C0880FCA95EAF78095908189231CC07B
S1131B20FE01D7FD379683E0F595E7958A95E1F7B1
S1131B30F695FE2FEE27F795E7950E0F1F1FF80178
S1131B40EA5EFD4FC770DD2781E090E001C0880F99
S1131B50CA95EAF79081892780830CC0833009F005
S1131B608FCFF70186819781801B910B8E01EC0149
S1131B70219791CFDF91CF911F910F91FF90EF901B
S1131B80DF90CF9008951F93CF93DF93EC01162F2E
S1131B9040E250E060E870E00E94614E8FE694E01D
S1131BA0998388838FEF8C8F88A38E8F8D8F1F8F5F
S1131BB0DF91CF911F91089580E092E0E6E1F2E099
S1131BC0DF019C011D9221503040E1F70895FC0192
S1131BD081A1882339F06EBD00000DB407FEFDCF4E
S1131BE08EB5089528E030E090E8A4A1B5A14C9109
S1131BF083A5809584238C93A2A1B3A182A5462FAB
S1131C00492319F04C91842B03C04C918095842373
S1131C108C93A4A1B5A14C9183A5842B8C93969508
S1131C202150310911F708951F93CF93DF93EC01ED
S1131C30162F8C8D8F3F01F1EEA1FFA190818CA511
S1131C40892B8083E8A5F9A590818DA580958923AA
S1131C508083EEA1FFA190818CA580958923808348
S1131C60CE01B5DFEEA1FFA190818CA5892B8083E5
S1131C70DF91CF911F9108956A8D062E000C770B8A
S1131C8086E794E10E94664960E086E794E10E9459
S1131C900F49612F86E794E10E940F4986E794E19A
S1131CA0DF91CF911F910C94DD490F931F93CF9334
S1131CB0DF93EC01162F022F6B8F4A8F8C8D8F3F91
S1131CC009F48CC061E08E8D0E94F74A61E088A11E
S1131CD00E94F74A88A1082E000C990BFC01EE50D3
S1131CE0FD4FE491F0E0EE0FFF1FEE5AFC4F2591FB
S1131CF034913FA32EA3FC01E455FD4FE491ECA7DE
S1131D008E8D082E000C990BFC01EE50FD4FE491D2
S1131D10F0E0EE0FFF1FEE5AFC4F2591349139A7E6
S1131D2028A7FC01E455FD4FE491EDA789A1811199
S1131D3034C061E08C8D0E94F74A61E08D8D0E9471
S1131D40F74A8D8D082E000C990BFC01EE50FD4FC7
S1131D50E491F0E0EE0FFF1FEE5AFC4F2591349111
S1131D603DA32CA3FC01E455FD4FE491EBA78C8D1E
S1131D70082E000C990BFC01EE50FD4FE491F0E0AD
S1131D80EE0FFF1FEE5AFC4F259134913BA32AA37B
S1131D90FC01E455FD4FE491EAA789A1882311F1E0
S1131DA00E94844880917414882399F02FB7F89482
S1131DB080917414813059F48DB3809372149DB35F
S1131DC080917314809589238DBB2FBF02C020930B
S1131DD0721480E58CBD81E08DBD04C086E794E17A
S1131DE00E944E490023E1F08F8D87FD19C061E008
S1131DF00E94F74A61E08F8D0E94334B61E070E0EE
S1131E0080E090E0B8DA60E08F8D0E94334B6AE0A6
S1131E1070E080E090E0AFDA61E08F8D0E94334B98
S1131E206EEACE0101DF65EDCE01FEDE60E8CE0193
S1131E30FBDE68EACE01F8DE6FE1CE01F5DE63ED8C
S1131E40CE01F2DE60E0CE01EFDE60E4CE01ECDE36
S1131E506DE8CE01E9DE113011F460E101C064E106
S1131E60CE01E2DE60E2CE01DFDE60E0CE01DCDE48
S1131E7061EACE01D9DE68ECCE01D6DE6AEDCE0190
S1131E80D3DE62E0CE01D0DE61E8CE01CDDE6FE8C4
S1131E90CE01CADE69EDCE01C7DE113011F462E273
S1131EA001C061EFCE01C0DE6BEDCE01BDDE60E4AA
S1131EB0CE01BADE64EACE01B7DE66EACE01B4DE54
S1131EC06EE2CE01B1DE6FEACE01DF91CF911F91B8
S1131ED00F91AACEAF92BF92CF92DF92EF92FF9270
S1131EE00F931F93CF93DF93EC0161E29DDE60E0DB
S1131EF0CE019ADE6FE7CE0197DE62E2CE0194DE78
S1131F0060E0CE0191DE63E0CE018EDE8C8D8F3FEA
S1131F1041F1EEA1FFA190818CA5892B8083E8A5D6
S1131F20F9A590818DA5892B8083EEA1FFA19081D5
S1131F308CA580958923808306E112E026E1E22EB8
S1131F4024E0F22EF80161918F01CE0140DEE0160B
S1131F50F106C1F7EEA1FFA190818CA5892B8083A6
S1131F6030C0E090B8008CE08093B80006E112E045
S1131F7096E1C92E94E0D92E6A8D062E000C770BBB
S1131F8086E794E10E94664960E486E794E10E9452
S1131F900F49580180E1F82EF50161915F0186E750
S1131FA094E10E940F49FA94F110F6CF86E794E188
S1131FB00E94DD49005F1F4FC016D106E9F6E0928A
S1131FC0B800DF91CF911F910F91FF90EF90DF90B8
S1131FD0CF90BF90AF9008950C94B9660C94C166ED
S1131FE0CF92DF92EF92FF920F931F93CF93DF93E1
S1131FF0EB017B012EE6E20EF11C8B016C01C61A8B
S1132000D70AC601800F911F0E94B966F801819317
S11320108F01EE15FF05A9F7CE01DF91CF911F9136
S11320200F91FF90EF90DF90CF900895AF92BF9201
S1132030DF92EF92FF920F931F93CF93DF93EC0104
S11320407B018B015C018EE6A80EB11CF801D190D6
S11320508F01CE010E94B966D81621F06D2DCE01F4
S11320600E94C1662196CA15DB0581F7C701DF917D
S1132070CF911F910F91FF90EF90DF90BF90AF90A1
S11320800895AF92BF92CF92DF92EF92FF920F9397
S11320901F93FC0180850E947C4ABC01990F880B28
S11320A0990B1F921F921F9224E62F93A12CB12CFF
S11320B06501EE24EA9413E0F12E00E010E020E044
S11320C030E0A9010E94894B0F900F900F900F9060
S11320D0CB011F910F91FF90EF90DF90CF90BF90B5
S11320E0AF900895EF92FF921F93CF93DF93EC018B
S11320F07C0185E1E80EF11C48E050E062E070E00C
S1132100C7010E940E5241E050E060E070E0C70158
S11321100E9420521C89112359F067E974E0C70119
S11321200E9454078889882379F01C8A188A10C071
S11321306CEA74E0C7010E9454078889882321F05F
S113214081E08C8B188A0FC08989882319F0198A39
S113215010E009C08E8581111E861F85112311F0A0
S11321601F8601C011E0812FDF91CF911F91FF9055
S1132170EF900895EF92FF920F931F93CF93DF9305
S1132180EC0180912104909122048230910509F49C
S1132190CEC024F48130910551F035C383309105CC
S11321A009F4A6C18430910509F49CC22CC38E01A4
S11321B00B5E1F4F48E050E062E070E0C8010E94EF
S11321C00E5261E0C8010E94145241E050E060E008
S11321D070E0C8010E9420526EEB74E0C8010E94B6
S11321E054077E018EEBE80EF11CC7010E942339CF
S11321F0019729F461EC74E0C8010E94540763EC70
S113220074E0C8010E94540740E150E062E070E0CD
S1132210C8010E940E5261E070E0C8010E941A5287
S11322206EEB74E0C8010E945407C7010E94233971
S1132230029729F461EC74E0C8010E9454076BEC26
S113224074E0C8010E94540748E150E062E070E085
S1132250C8010E940E5261E070E0C8010E941A5247
S11322606EEB74E0C8010E945407C7010E94233931
S1132270039729F461EC74E0C8010E94540763EDEC
S113228074E0C8010E9454078E85882351F0809120
S113229021049091220401979093220480932104B5
S11322A01E868F85882399F08091210490912204C1
S11322B00196909322048093210480911F049091AD
S11322C0200401969093200480931F041F8688891C
S11322D0882329F1C7010E94233960912104709158
S11322E0220486179707C9F0C7010E9414396BEDC1
S11322F074E082EB90E10E94540760912104709194
S113230022044AE050E082EB90E10E94330861E34A
S113231070E182EB90E10E945F07188A198A89892B
S1132320811102C081E08FC2198A80E08CC2809141
S11323301F04909120048130910509F06BC08E0137
S11323400B5E1F4F48E050E062E070E0C8010E945D
S11323500E5261E0C8010E94145241E050E060E076
S113236070E0C8010E9420526EEB74E0C8010E9424
S113237054077E018EEBE80EF11CC7010E9423393D
S1132380029729F461EC74E0C8010E9454076BECD5
S113239074E0C8010E94540740E150E062E070E03C
S11323A0C8010E940E5261E070E0C8010E941A52F6
S11323B06EEB74E0C8010E945407C7010E942339E0
S11323C0039729F461EC74E0C8010E94540763ED9B
S11323D074E0C8010E94540748E150E062E070E0F4
S11323E0C8010E940E5261E070E0C8010E941A52B6
S11323F06EEB74E0C8010E945407C7010E942339A0
S1132400049729F461EC74E0C8010E94540762EE59
S113241074E037CF029709F085CF8E010B5E1F4F12
S113242048E050E062E070E0C8010E940E5261E0B2
S1132430C8010E94145261E070E0C8010E941A525F
S11324406EEB74E0C8010E9454077E018EEBE80E27
S1132450F11CC7010E942339019729F461EC74E04F
S1132460C8010E94540763EC74E0C8010E94540739
S113247040E150E062E070E0C8010E940E5241E089
S113248050E060E070E0C8010E9420526EEB74E0FE
S1132490C8010E945407C7010E942339029729F4F6
S11324A061EC74E0C8010E9454076BEC74E0C8014D
S11324B00E94540748E150E062E070E0C8010E94C5
S11324C00E5261E070E0C8010E941A526EEB74E093
S11324D0C8010E945407C7010E942339039729F4B5
S11324E061EC74E0C8010E94540763ED74E072C0AB
S11324F080911F04909120048230910509F084C0DA
S11325008E010B5E1F4F48E050E062E070E0C801AE
S11325100E940E5261E0C8010E94145261E070E012
S1132520C8010E941A526EEB74E0C8010E9454075D
S11325307E018EEBE80EF11CC7010E94233902973D
S113254029F461EC74E0C8010E9454076BEC74E058
S1132550C8010E94540740E150E062E070E0C80105
S11325600E940E5241E050E060E070E0C8010E9419
S113257020526EEB74E0C8010E945407C7010E9408
S11325802339039729F461EC74E0C8010E945407CD
S113259063ED74E0C8010E94540748E150E062E032
S11325A070E0C8010E940E5261E070E0C8010E9410
S11325B01A526EEB74E0C8010E945407C7010E94CE
S11325C02339049729F461EC74E0C8010E9454078C
S11325D062EE74E0C8010E9454078E85882309F4D2
S11325E060CE80912104909122040197909322045B
S11325F08093210480911F0490912004019790936B
S1132600200480931F044CCE039709F08BCE8E01D7
S11326100B5E1F4F48E050E062E070E0C8010E948A
S11326200E5261E0C8010E94145261E070E0C801DA
S11326300E941A526EEB74E0C8010E9454077E0196
S11326408EEBE80EF11CC7010E942339019729F48F
S113265061EC74E0C8010E94540763EC74E0C801A3
S11326600E94540740E150E062E070E0C8010E941B
S11326700E5261E070E0C8010E941A526EEB74E0E1
S1132680C8010E945407C7010E942339029729F404
S113269061EC74E0C8010E9454076BEC74E0C8015B
S11326A00E94540748E150E062E070E0C8010E94D3
S11326B00E5241E050E060E070E0C8010E942052F8
S11326C06EEB74E0C8010E945407C7010E942339CD
S11326D0039729F461EC74E0C8010E94540763ED88
S11326E074E06AC08E010B5E1F4F48E050E062E068
S11326F070E0C8010E940E5261E0C8010E941452A9
S113270061E070E0C8010E941A526EEB74E0C801E7
S11327100E9454077E018EEBE80EF11CC7010E9453
S11327202339029729F461EC74E0C8010E9454072C
S11327306BEC74E0C8010E94540740E150E062E091
S113274070E0C8010E940E5261E070E0C8010E946E
S11327501A526EEB74E0C8010E945407C7010E942C
S11327602339039729F461EC74E0C8010E945407EB
S113277063ED74E0C8010E94540748E150E062E050
S113278070E0C8010E940E5241E050E060E070E049
S1132790C8010E9420526EEB74E0C8010E945407E5
S11327A0C7010E942339049729F461EC74E0C8013D
S11327B00E94540762EE74E0C8010E9454078E859B
S11327C0882399F080912104909122040197909399
S11327D022048093210480911F0490912004019786
S11327E09093200480931F041E868F85882309F408
S11327F06ECD80912104909122040196909322043D
S11328008093210463CD1816190664F084E090E0E7
S1132810909322048093210483E090E09093200419
S113282080931F04809121049091220405970CF455
S113283079CD81E090E090932204809321049093D9
S1132840200480931F04DF91CF911F910F91FF907B
S1132850EF9008950F931F93CF93DF93EC01809132
S11328601D0490911E048130910529F08230910558
S113287009F473C0A2C08E010B5E1F4F48E050E004
S113288062E070E0C8010E940E5261E0C8010E943B
S1132890145241E050E060E070E0C8010E94205210
S11328A08C859D85019729F46AEE74E0C8010E9425
S11328B054076DEE74E0C8010E94540740E150E0F3
S11328C062E070E0C8010E940E5261E070E0C8014D
S11328D00E941A528C859D85029729F46AEE74E051
S11328E0C8010E9454076BEF74E0C8010E945407AA
S11328F08E85882351F080911D0490911E040197C8
S113290090931E0480931D041E868F85882351F0A6
S113291080911D0490911E04019690931E0480934F
S11329201D041F868889882381F060911D0470919D
S11329301E048C859D858617970729F07D876C87F3
S11329408EEF9FE04BDB188A198A8989811102C0B6
S113295081E049C0198A80E046C08E010B5E1F4F9A
S113296048E050E062E070E0C8010E940E5261E06D
S1132970C8010E94145261E070E0C8010E941A521A
S11329808C859D85019729F46AEE74E0C8010E9444
S113299054076DEE74E0C8010E94540740E150E012
S11329A062E070E0C8010E940E5241E050E060E035
S11329B070E0C8010E9420528DCF1816190634F019
S11329C082E090E090931E0480931D0480911D0486
S11329D090911E0403970CF4BBCF81E090E0909398
S11329E01E0480931D04DF91CF911F910F910895D0
S11329F00F931F93CF93DF93EC0180911B0490916D
S1132A001C048230910509F494C08330910509F4C3
S1132A10C0C08130910509F006C18E010B5E1F4FC5
S1132A2048E050E062E070E0C8010E940E5261E0AC
S1132A30C8010E94145241E050E060E070E0C80117
S1132A400E9420528A859B85019729F46AEE74E0DE
S1132A50C8010E94540769E075E0C8010E94540748
S1132A6040E150E062E070E0C8010E940E5261E073
S1132A7070E0C8010E941A528A859B85029729F446
S1132A806AEE74E0C8010E94540768E175E0C80169
S1132A900E94540748E150E062E070E0C8010E94DF
S1132AA00E5261E070E0C8010E941A528A859B852B
S1132AB0039729F46AEE74E0C8010E94540767E2A0
S1132AC075E0C8010E9454078E85882351F08091D7
S1132AD01B0490911C04019790931C0480931B0485
S1132AE01E868F85882351F080911B0490911C04CD
S1132AF0019690931C0480931B041F868889882365
S1132B0081F060911B0470911C048A859B85861753
S1132B10970729F07B876A878FEF9FE05FDA188A2F
S1132B20198A8989811102C081E093C0198A80E0E1
S1132B3090C08E010B5E1F4F48E050E062E070E0F1
S1132B40C8010E940E5261E0C8010E94145261E063
S1132B5070E0C8010E941A528A859B85019729F466
S1132B606AEE74E0C8010E94540769E075E0C80188
S1132B700E94540740E150E062E070E0C8010E9406
S1132B800E5241E050E060E070E0C8010E94205223
S1132B9073CF8E010B5E1F4F48E050E062E070E09F
S1132BA0C8010E940E5261E0C8010E94145261E003
S1132BB070E0C8010E941A528A859B85019729F406
S1132BC06AEE74E0C8010E94540769E075E0C80128
S1132BD00E94540740E150E062E070E0C8010E94A6
S1132BE00E5261E070E0C8010E941A528A859B85EA
S1132BF0029729F46AEE74E0C8010E94540768E160
S1132C0075E0C8010E94540748E150E062E070E0BA
S1132C10C8010E940E5241E050E060E070E0C8013B
S1132C200E94205243CF1816190634F083E090E036
S1132C3090931C0480931B0480911B0490911C04AA
S1132C4004970CF471CF81E090E090931C0480937E
S1132C501B04DF91CF911F910F9108957F928F9262
S1132C609F92AF92BF92CF92DF92EF92FF920F9317
S1132C701F93CF93DF93EC018091190490911A0470
S1132C808130910529F08230910509F4D2C030C217
S1132C9080912E138E010B5E1F4F882309F478C098
S1132CA080912D13811134C048E050E062E070E05F
S1132CB0C8010E940E5261E070E0C8010E941A52DD
S1132CC067E375E0C8010E945F07C8010E942952AA
S1132CD097FD0196BC017595679540E150E0C801E8
S1132CE00E940E5269E475E0C8010E945407888965
S1132CF0882321F081E080932D13188A7988772026
S1132D0009F40BC210922D13198A10922E1307C2C4
S1132D1060E080E090E062D9C8010E942D527C01FD
S1132D20C8010E942952A701F7FE02C04F5F5F4FFE
S1132D305595479544505109BC0197FF02C06F5FF8
S1132D407F4F7595679569517109C8010E940E52AC
S1132D5061E070E0C8010E941A526DE475E0C80198
S1132D600E945407888981110AC08989811107C08A
S1132D708E85811104C08F85882309F4CEC11092F9
S1132D802D13188A198A1E861F8610922E134FC07F
S1132D9048E050E062E070E0C8010E940E5261E039
S1132DA0C8010E94145241E050E060E070E0C801A4
S1132DB00E94205268E575E0C8010E94540740E172
S1132DC050E062E070E0C8010E940E5261E070E0E1
S1132DD0C8010E941A526CE675E0C8010E945407AB
S1132DE08E85882351F08091190490911A040197DB
S1132DF090931A04809319041E868F85882351F0BA
S1132E008091190490911A04019690931A04809366
S1132E1019041F868889882329F081E080932E1362
S1132E20188A198A8989882309F477C1198A712C27
S1132E3076C180912C139E012B5E3F4F490188235C
S1132E4009F40CC170902B13711034C048E050E0A9
S1132E5062E070E0C9010E940E5261E070E0C401BA
S1132E600E941A5262E875E0C4010E945F07C4011F
S1132E700E94295297FD0196BC017595679540E122
S1132E8050E0C4010E940E5269E475E0C4010E943E
S1132E9054078889882321F081E080932B13188AB2
S1132EA07988772009F439C110922B13198A10926A
S1132EB02C1335C1C9010E942D528C01C4010E94FA
S1132EC02952A80117FF02C04F5F5F4F55954795E0
S1132ED044505109BC0197FF02C06F5F7F4F759545
S1132EE067956E517109C4010E940E5261E070E051
S1132EF0C4010E941A528091291390912A138F3F82
S1132F003FE0930708F06AC060E068D86091291335
S1132F1070912A134AE050E082EB90E10E94390854
S1132F206091291370912A13072E000C880B990BBA
S1132F301F921F921F9224E62F93A12CB12C65019E
S1132F40EE24EA941FE0F12E00E010E020E030E0EF
S1132F50A9010E94894B6B017C0166E975E0C401FB
S1132F600E945407C4010E942D52D82FC92FC401B6
S1132F700E9429524D2F5C2F57FF02C04F5F5F4FB5
S1132F80559547954C5F5F4FBC0197FF02C06F5F3B
S1132F907F4F759567956A507109C4010E940E525E
S1132FA061E070E0C4010E941A524AE050E0B601A8
S1132FB0C4010E94330862EA75E0C4010E94540708
S1132FC08091291390912A13019690932A13809348
S1132FD029130F900F900F900F90A1C0C4010E946D
S1132FE02D528C01C4010E942952A80117FF02C06E
S1132FF04F5F5F4F5595479544505109BC0197FF6A
S113300002C06F5F7F4F7595679569517109C4015F
S11330100E940E5261E070E0C4010E941A526DE4F5
S113302075E0C4010E945407888981110AC0898906
S1133030811107C08E85811104C08F85882309F40E
S11330406CC010922B1310922A1310922913188A11
S1133050198A1E861F8610922C13E9CE48E050E090
S113306062E070E0C9010E940E5261E0C4010E9456
S1133070145261E070E0C4010E941A5268E575E0E0
S1133080C4010E94540740E150E062E070E0C401D2
S11330900E940E5241E050E060E070E0C4010E94E2
S11330A020526CE675E0C4010E9454078E85882383
S11330B051F08091190490911A04019790931A0485
S11330C0809319041E868F85882351F080911904FA
S11330D090911A04019690931A04809319041F8600
S11330E08889882309F49ECE81E080932C1398CE9E
S11330F01816190634F082E090E090931A04809335
S113310019048091190490911A04039734F081E012
S113311090E090931A048093190477247394872D74
S1133120DF91CF911F910F91FF90EF90DF90CF909F
S1133130BF90AF909F908F907F900895CF92DF9231
S1133140EF92FF920F931F93CF93DF938C018091A3
S11331506811811129C0E801CF54DF4FCE010E94CC
S1133160CF469093671180936611CE010E94CB469F
S11331709093651180936411CE010E94D34690937D
S1133180631180936211CE010E94D746909361111E
S113319080936011CE010E94DB4690935F1180936F
S11331A05E1181E08093681180911604E8016596B0
S11331B0882309F462C10E948A09C0905A11D090F0
S11331C05B11E0905C11F0905D119B01AC012C1936
S11331D03D094E095F0969017A0135EFC31631E0F3
S11331E0D306E104F10454F01092160460935A11CA
S11331F070935B1180935C1190935D1180915811D1
S113320090915911892B61F161E0CE010E94145211
S113321061E070E0CE010E941A52CE010E94295250
S113322097FD019695958795BC016F5071094CE007
S113323050E0CE010E940E52809166119091671168
S11332400A972CF465EF76E0CE010E945407609152
S11332506611709167114AE050E0CE010E94330874
S113326061E0CE010E94145261E070E0CE010E9440
S11332701A52CE010E94295297FD01969595879581
S1133280BC01635071094CE050E0CE010E940E5223
S113329069E278E0CE010E94540780915811909120
S11332A05911019761F161E0CE010E94145261E06D
S11332B070E0CE010E941A52CE010E94295297FD5D
S11332C0019695958795BC016D5F7F4F4CE050E06A
S11332D0CE010E940E5280916411909165110A975B
S11332E02CF465EF76E0CE010E94540760916411DE
S11332F0709165114AE050E0CE010E94330880913C
S1133300581190915911029761F161E0CE010E9428
S1133310145261E070E0CE010E941A52CE010E9464
S1133320295297FD019695958795BC0169517109BC
S113333046E150E0CE010E940E52809162119091BC
S113334063110A972CF46FEB74E0CE010E945407CA
S113335060916211709163114AE050E0CE010E94C5
S1133360330861E0CE010E94145261E070E0CE01A6
S11333700E941A52CE010E94295297FD01969595FA
S11333808795BC016D50710946E150E0CE010E9461
S11333900E5264EA75E0CE010E94540780915811E0
S11333A090915911039761F161E0CE010E9414528A
S11333B061E070E0CE010E941A52CE010E942952AF
S11333C097FD019695958795BC016750710946E173
S11333D050E0CE010E940E528091601190916111D3
S11333E00A972CF465EF76E0CE010E9454076091B1
S11333F06011709161114AE050E0CE010E943308DF
S113340061E0CE010E94145261E070E0CE010E949E
S11334101A52CE010E94295297FD019695958795DF
S1133420BC016B5F7F4F46E150E0CE010E940E521B
S113343064EA75E0CE010E9454078091581190917E
S11334405911049709F4D7C061E0CE010E941452C7
S113345061E070E0CE010E941A52CE010E9429520E
S113346097FD019695958795BC01655F7F4F46E171
S113347050E0CE010E940E52AAC00E948A09C09058
S11334805A11D0905B11E0905C11F0905D119B019A
S1133490AC012C193D094E095F0969017A0135EF28
S11334A0C31631E0D306E104F1045CF021E020937B
S11334B0160460935A1170935B1180935C1190937E
S11334C05D1161E0CE010E94145261E070E0CE0112
S11334D00E941A52CE010E94295297FD0196959599
S11334E08795BC016F5071094CE050E0CE010E94F9
S11334F00E5280916611909167110A972CF465EF32
S113350076E0CE010E9454076091661170916711B4
S11335104AE050E0CE010E94330869E278E0CE012F
S11335200E94540780916411909165110A972CF4BC
S113353065EF76E0CE010E945407609164117091AA
S113354065114AE050E0CE010E943308CE010E948A
S1133550295297FD019695958795BC01695171098A
S113356046E150E0CE010E940E528091621190918A
S113357063110A972CF46FEB74E0CE010E94540798
S113358060916211709163114AE050E0CE010E9493
S1133590330864EA75E0CE010E94540780916011FB
S11335A0909161110A972CF465EF76E0CE010E94A8
S11335B0540760916011709161114AE050E0CE01AE
S11335C00E94330864EA75E0CE010E94540780919A
S11335D05E1190915F110A972CF465EF76E0CE01AD
S11335E00E94540760915E1170915F114AE050E0AF
S11335F0CE010E9433088091581190915911823064
S1133600910509F49CC034F4009761F0019709F422
S113361059C0C8C18330910509F4FCC0049709F46A
S113362081C1C0C1F8018685882399F08091661113
S1133630909167118731910534F401969093671145
S11336408093661104C01092671110926611F801FC
S11336501686F8018785882389F0809166119091F8
S113366067111816190614F4019702C087E190E057
S11336709093671180936611F8011786F801808989
S11336808823B1F06091661170916711C8018F545D
S11336909F4F0E941748F801108A10926811809178
S11336A05811909159110196909359118093581182
S11336B0F801C189CC2309F475C110926811F8018D
S11336C0118A5DC1F8018685882399F0809164117F
S11336D0909165118B33910534F4019690936511A3
S11336E08093641104C01092651110926411F80162
S11336F01686F8018785882389F08091641190915A
S113370065111816190614F4019702C08BE390E0B2
S11337109093651180936411F8011786F8018089EC
S1133720882309F4EDC06091641170916511C8019A
S11337308F549F4F0E940D48F801108AD6C0F8019B
S11337408685882349F1209160113091611180911F
S11337506211909163112230310521F48D3191056C
S113376064F413C0A901417055272830310544F48D
S1133770452B41F08F31910544F081E090E006C083
S1133780452BC1F38E319105C4F7019690936311D3
S113379080936211F8011686F8018785882341F128
S11337A080916211909163118230910514F0019718
S11337B013C080916011909161118230910519F4C8
S11337C08CE190E009C09C012170332708975CF4D8
S11337D0232B59F48EE190E090936311809362114E
S11337E0F801178605C0232BA9F78FE190E0F4CFE9
S11337F0F8018089882309F483C0108A40916011FC
S1133800509161116091621170916311C8018F54DC
S11338109F4F69C0F8018685882389F080916011E3
S1133820909161118C30910514F4019602C081E0ED
S113383090E09093611180936011F8011686F8016D
S11338408785882389F0809160119091611182307D
S1133850910514F0019702C08CE090E090936111FF
S113386080936011F8011786F8018089882309F490
S113387047C0108AE801CF54DF4F60916011709106
S11338806111CE010E9421488091621190916311CF
S11338908D31910554F14091601150916111423084
S11338A0510559F48CE190E0909363118093621177
S11338B042E050E06CE170E015C04F97B4F0CA01EB
S11338C081709927483051051CF4892B71F402C08A
S11338D0892B59F08EE190E09093631180936211EB
S11338E06EE170E0CE010E946148109268118091EF
S11338F05811909159110196909359118093581130
S1133900F8018189882309F44DC010926811118A45
S11339108091581190915911019790935911809366
S1133920581140C0F8018685882351F080915E11BA
S113393090915F11019690935F1180935E111686AA
S1133940F8018785882351F080915E1190915F1171
S1133950019790935F1180935E111786F801C089D7
S1133960CC2391F060915E1170915F11C8018F5466
S11339709F4F0E942E4810926811F801108A1092ED
S11339805911109258110FC0F8018189882351F000
S113399010926811118A83E090E0909359118093FA
S11339A0581101C0C0E08C2FDF91CF911F910F916E
S11339B0FF90EF90DF90CF900895FC01848595856A
S11339C00895BF92CF92DF92EF92FF920F931F93CD
S11339D0CF93DF93CDB7DEB76B01EC96BFACEC971A
S11339E0E596EEACFFACE5978C010B5E1F4F83E0D0
S11339F0440F551F8A95E1F762E070E0C8010E9408
S1133A000E52BB2041F041E050E060E070E0C8019C
S1133A100E94205205C061E070E0C8010E941A5261
S1133A204AE050E0B601C8010E94330864EE76E033
S1133A30C8010E945407E7966EAD7FADE7974AE050
S1133A4050E0C8010E94330864EA75E0C8010E948E
S1133A505407E9966EAD7FADE9974AE050E0C8019E
S1133A600E94330864EA75E0C8010E945407EB968B
S1133A706EAD7FADEB974AE050E0C8010E94330879
S1133A806FEB74E0C8010E945407E3966EAD7FADFE
S1133A90E3974AE050E0C8010E94330869E278E005
S1133AA0C8010E9454078AE0E816F1042CF465EF7B
S1133AB076E0C8010E9454074AE050E0B701C8010B
S1133AC0DF91CF911F910F91FF90EF90DF90CF90F6
S1133AD0BF900C943308FF920F931F93CF93DF93FF
S1133AE08B01F22EEC01659683E0440F551F8A95F5
S1133AF0E1F762E070E0CE010E940E52FF2041F037
S1133B0041E050E060E070E0CE010E94205205C028
S1133B1061E070E0CE010E941A52B801CE01DF913B
S1133B20CF911F910F91FF900C9454071F93CF9343
S1133B30DF93EC0180912504909126048530910552
S1133B4009F478C294F48230910509F487C024F40E
S1133B5081309105E9F0C0C28330910509F41DC19B
S1133B608430910509F4D2C1B7C28F31910509F4AB
S1133B70C5C12CF48531910509F407C1ADC2893260
S1133B80910509F44FC28333910509F499C2A4C283
S1133B9010912F13112349F0CE01D0DA182F882366
S1133BA009F4B9C210922F13B7C221E041E050E0EA
S1133BB066EA75E0CE018FDF20E042E050E069EB79
S1133BC075E0CE0188DF20E043E050E06BEC75E067
S1133BD0CE0181DF8E85882399F080912504909110
S1133BE0260401979093260480932504809123044E
S1133BF090912404019790932404809323041E86B7
S1133C008F85882399F0809125049091260401964C
S1133C109093260480932504809123049091240496
S1133C20019690932404809323041F868889882313
S1133C3029F081E080932F13188A198A89898823AF
S1133C4009F469C2198A81E090E090932604809374
S1133C50250490932404809323045EC2809123045A
S1133C60909124048130910509F04AC021E041E09B
S1133C7050E069EB75E0CE012EDF20E042E050E039
S1133C806BEC75E0CE0127DF20E043E050E060EE0E
S1133C9075E0CE0120DF8E85882351F080912504C4
S1133CA090912604019790932604809325041E8600
S1133CB08F85882399F080912304909124040196A0
S1133CC090932404809323048091250490912604E6
S1133CD0019690932604809325041F86888988235F
S1133CE041F085E190E09093260480932504188A9E
S1133CF0198A8989882309F40EC2198A10E00CC232
S1133D00029709F008C220E041E050E066EA75E05D
S1133D10CE01E1DE21E042E050E069EB75E0CE0146
S1133D20DADE20E043E050E06BEC75E0CE01D3DE58
S1133D308E85882399F0809125049091260401971B
S1133D409093260480932504809123049091240465
S1133D50019790932404809323041E868F858823DF
S1133D6009F4BCCF80912504909126040196909388
S1133D7026048093250480912304909124040196C1
S1133D809093240480932304A8CFCE010E94F814B6
S1133D908111C1C182E090E09AC180912304909185
S1133DA024048130910511F521E041E050E06BECF1
S1133DB075E0CE0190DE20E042E050E060EE75E078
S1133DC0CE0189DE20E043E050E060EF75E0CE01F3
S1133DD082DE8E858823C9F1809125049091260482
S1133DE0019790932604809325042EC08230910578
S1133DF009F042C020E041E050E069EB75E0CE01FB
S1133E006ADE21E042E050E06BEC75E0CE0163DE57
S1133E1020E043E050E060EE75E0CE015CDE8E858C
S1133E20882399F08091250490912604019790931A
S1133E3026048093250480912304909124040197FF
S1133E4090932404809323041E868F85882309F489
S1133E504EC08091250490912604019690932604E7
S1133E6080932504809123049091240401969093D7
S1133E702404809323043AC0039709F04CC120E042
S1133E8041E050E066EA75E0CE0125DE20E042E044
S1133E9050E069EB75E0CE011EDE21E043E050E026
S1133EA06BEC75E0CE0117DE8E85882399F0809146
S1133EB02504909126040197909326048093250469
S1133EC08091230490912404019790932404809377
S1133ED023041E868F85882351F0809125049091B8
S1133EE02604019690932604809325041F868889CE
S1133EF0882309F4FECE8FE190E0F5CECE010E9436
S1133F002E16811108C183E090E0E1C08091230462
S1133F10909124048230910509F042C020E041E0F0
S1133F2050E06BEC75E0CE01D6DD21E042E050E0DC
S1133F3060EE75E0CE01CFDD20E043E050E060EFBD
S1133F4075E0CE01C8DD8E85882399F08091250423
S1133F5090912604019790932604809325048091E0
S1133F6023049091240401979093240480932304C0
S1133F701E868F85882309F44EC080912504909174
S1133F8026040196909326048093250480912304AB
S1133F9090912404019690932404809323043AC0BE
S1133FA0039709F0B8C020E041E050E069EB75E008
S1133FB0CE0191DD20E042E050E06BEC75E0CE01F3
S1133FC08ADD21E043E050E060EE75E0CE0183DD60
S1133FD08E85882399F08091250490912604019779
S1133FE090932604809325048091230490912404C3
S1133FF0019790932404809323041E868F8588233D
S113400051F0809125049091260401969093260402
S1134010809325041F868889882309F46ACE89E25F
S113402090E061CECE010E942A14811174C084E014
S113403090E04DC08091230490912404039709F0EB
S11340406AC020E041E050E06BEC75E0CE0143DD56
S113405020E042E050E060EE75E0CE013CDD21E07E
S113406043E050E060EF75E0CE0135DD8E858823B6
S113407099F0809125049091260401979093260449
S113408080932504809123049091240401979093B4
S11340902404809323041E868F85882351F0809105
S11340A02504909126040196909326048093250478
S11340B01F868889882309F41CCE83E390E013CEFD
S11340C0CE010E94BA10811126C085E090E0909341
S11340D02604809325041FC01816190664F085E091
S11340E090E0909326048093250483E090E09093DD
S11340F02404809323048091250490912604069738
S113410054F081E090E090932604809325049093EA
S113411024048093230411E0812FDF91CF911F9118
S113412008958F929F92AF92BF92CF92DF92EF92B7
S1134130FF920F931F93CF93DF934C0180917B13D6
S113414081110AC0C4010E944110909350138093BE
S11341504F1381E080937B1380917313811126C0E8
S113416060914F1370915013072E000C880B990B1C
S11341701F921F921F922CE02F93A12CB12C65014A
S1134180A39414E6E12EF12C00E010E020E030E0EE
S1134190A9010E94894B70934E1360934D1381E0E3
S11341A0809373130F900F900F900F9080916B1367
S11341B0811110C0C40182549F4F0E941239609330
S11341C0491370934A1380934B1390934C1381E0DB
S11341D080936B130E948A0960934513709346136E
S11341E08093471390934813009141131091421305
S11341F020914313309144136B017C01C01AD10AFE
S1134200E20AF30A970186010333110521053105FA
S1134210DCF16093411370934213809343139093A2
S11342204413C4010E94411020914F133091501344
S11342302436310519F48336910521F090935013F7
S113424080934F1360914F1370915013072E000CFD
S1134250880B990B1F921F921F922CE02F93A12C75
S1134260B12C650114E6E12EF12C00E010E020E011
S113427030E0A9010E94894B70934E1360934D1353
S11342800F900F900F900F908091451390914613CB
S1134290A0914713B091481340913D1350913E13A0
S11342A060913F1370914013841B950BA60BB70BC1
S11342B08B3F9105A105B1056CF1C40182549F4F58
S11342C00E9412396093491370934A1380934B13DD
S11342D090934C1380913B1390913C130E94715F17
S11342E060E0C4018F549F4F0E94DF4690933C13BB
S11342F080933B138091451390914613A0914713EB
S1134300B091481380933D1390933E13A0933F13B1
S1134310B0934013E4016596CE010E942952209186
S11343204D1330914E130197BC01621B730BEE24A5
S1134330E394F12C04E010E042E050E0CE010E944E
S11343401D4D80914F13909150138A3091053CF488
S1134350CE010E942952BC016C51710910C08436EF
S1134360910539F0CE010E942952BC0162527109B3
S113437006C0CE010E942952BC016852710940E076
S113438050E0CE010E940E5261E0CE010E94145210
S113439061E070E0CE010E941A5260914F13709157
S11343A050134AE050E0CE010E94330862EA75E0FF
S11343B0CE010E94540761E0CE010E94145261E0D4
S11343C070E0CE010E941A52CE010E94295297FD3C
S11343D0019695958795BC016F50710940E050E0B6
S11343E0CE010E940E5260913B1370913C13CE019A
S11343F00E945407CE010E942952BC0160517109E8
S1134400CC24C394D12C48E0E42EF12C00E110E03C
S113441026E532E040E050E0CE010E94824EF401F5
S11344208489882359F008E010E02EE432E040E06B
S113443050E060E070E0CE010E94824E40E050E027
S11344406DE070E0CE010E940E5261E0CE010E9448
S1134450145261E070E0CE010E941A526091491337
S113446070914A1380914B1390914C130E94F55B09
S11344704AE050E0CE010E94330867EFCE010E946B
S11344803A5160E076E0CE01DF91CF911F910F9118
S1134490FF90EF90DF90CF90BF90AF909F908F9060
S11344A00C945407CF92DF92EF92FF920F931F93D5
S11344B0CF93DF936B01EC016596CE010E942952E4
S11344C09C0128523109E12CF12C0CE010E04CE065
S11344D050E064E170E0CE010E941D4DCE010E94C7
S11344E029529C0128523109EE24E394F12C4CE02A
S11344F050E064E170E0CE010E94EC4DF6010190C1
S11345000020E9F731978F010C191D09CE010E9493
S1134510295246E0409F9001419F300D1124889715
S11345202817390748F5CE010E942952F601019057
S11345300020E9F73197EC19FD0997FD019695954F
S1134540879546E04E9F90014F9F300D112436957C
S11345502795BC01621B730B4EE050E0CE010E9414
S11345600E5261E070E0CE010E941A5261E0CE0169
S11345700E941452B6011AC0CE010E94295297FD1E
S1134580019695958795BC01655171094EE050E0FF
S1134590CE010E940E5261E070E0CE010E941A52D8
S11345A061E0CE010E94145262E076E0CE01DF9118
S11345B0CF911F910F91FF90EF90DF90CF900C94CB
S11345C05407EF92FF920F931F93CF93DF938C01C5
S11345D07C018EEBE80EF11CE8016596C7010E9490
S11345E09733811128C06AE076E0C8015BDFCE0111
S11345F00E946A0F68E176E082EB90E10E94540722
S113460064EF71E080E090E00E94BB0962E077E033
S1134610CE010E945407CE010E946A0F62E077E047
S113462082EB90E10E94540764EF71E080E090E037
S11346300E94BB09D3CFDF91CF911F910F91FF90BF
S1134640EF900895AF92BF92CF92DF92EF92FF92D4
S11346500F931F93CF93DF93EC018C010B5E1F4FDD
S11346606FEFC8010E94C30D7E0181EBE80EF11CBF
S1134670C7010E9475466E01EEEBCE0ED11CC60139
S11346800E94913360E276E082EB90E10E945F0742
S113469021E04CE362E0C8010E94550E67E476E035
S11346A082EB90E10E945F07C8010E94DC0DC80103
S11346B00E946A0FC8010E942D525C01C8010E9429
S11346C02952A501B7FE02C04F5F5F4F559547952C
S11346D045505109BC0197FF02C06F5F7F4F75952C
S11346E0679562517109C8010E940E5261E070E041
S11346F0C8010E941A5262E0C8010E9414526DE57A
S113470076E0C8010E94540761E0C8010E94145277
S113471040E050E061E070E0C8010E940E5261E6A2
S113472076E0C8010E945407C8010E946A0F68EE2F
S113473073E080E090E00E94BB0960E776E082EBE2
S113474090E10E9454074AE050E06EE670E082EB8C
S113475090E10E94DE0769E876E082EB90E10E9436
S113476054074AE050E060E070E182EB90E10E947F
S1134770DE078FEF9FE00E94EC0F8150833008F03A
S1134780ABC08FEF9FE00E94EC0F90E09B878A877D
S11347908EEF9FE00E94EC0F8150823008F0A2C09F
S11347A08EEF9FE00E94EC0F90E09D878C876CE970
S11347B076E082EB90E10E9454078FEF9FE00E9425
S11347C0EC0F4AE050E0682F82EB90E10E94C907A9
S11347D067EB76E082EB90E10E9454078EEF9FE056
S11347E00E94EC0F4AE050E0682F82EB90E10E94B7
S11347F0C90765ED76E082EB90E10E94540786E7F5
S113480094E10E94B6484AE050E0BC0182EB90E19A
S11348100E94330886E794E10E94BE484AE050E0D3
S1134820BC0182EB90E10E94390861EE76E082EBF4
S113483090E10E945407CE01C4DE87E190E09983A1
S1134840888389E190E09B838A8388E190E09D835B
S11348508C8386E190E09F838E8385E490E0998742
S1134860888760E087E10E94F74A60E08A810E94BD
S1134870F74A60E08C810E94F74A60E08E810E94D2
S1134880F74A1E861F86188A198A81E08C8B1A8A39
S11348901B8ACD5BDF4F8EE6FE0111928A95E9F704
S11348A067EE76E082EB90E10E94540761EF76E0D8
S11348B082EB90E10E945F07C7010E947E46C60119
S11348C0DF91CF911F910F91FF90EF90DF90CF90E8
S11348D0BF90AF900C94173461E08FEF9FE00E947B
S11348E0EE0F4FCF61E08EEF9FE00E94EE0F58CFA6
S11348F0CF93DF93EC0165DE80912F04882341F090
S113490067EF76E082EB90E10E945F0710922F043C
S113491088810E94614B892B81F48A810E94614BBA
S1134920892B59F48C810E94614B892B31F48E813F
S11349300E94614B892B09F448C088810E94614B15
S1134940892B59F088810E94614B20915113309139
S113495052138217930709F03FC08A810E94614B6A
S1134960892B59F08A810E94614B20915113309117
S113497052138217930709F049C08C810E94614B3E
S1134980892B59F08C810E94614B209151133091F5
S113499052138217930709F053C08E810E94614B12
S11349A0892B59F08E810E94614B209151133091D3
S11349B052138217930709F05DC06AE070E080E04B
S11349C090E0DF91CF910C94BB0910925213109296
S11349D05113DF91CF91089588810E94614B909388
S11349E052138093511364E077E082EB90E10E94CC
S11349F0540788810E94614B4AE050E0BC0182EB7D
S1134A0090E10E94390881E08E87A7CF8A810E94B5
S1134A10614B909352138093511368E077E082EBDB
S1134A2090E10E9454078A810E94614B4AE050E061
S1134A30BC0182EB90E10E94390881E08F879DCF11
S1134A408C810E94614B90935213809351136EE0BA
S1134A5077E082EB90E10E9454078C810E94614BC5
S1134A604AE050E0BC0182EB90E10E94390881E009
S1134A70888B93CF8E810E94614B909352138093C5
S1134A80511363E177E082EB90E10E9454078E8139
S1134A900E94614B4AE050E0BC0182EB90E10E942D
S1134AA0390881E0898B89CFFF920F931F93CF93AD
S1134AB0DF93EC01062F8091631381110DC00E94D6
S1134AC08A09609337137093381380933913909342
S1134AD03A1381E0809363138A859B858230910524
S1134AE009F46FC08330910509F4B5C0019709F04A
S1134AF0A7C01B89111109C0002309F4ADC081E0CE
S1134B008B8B1A89111112C09FC0FA88002381F07F
S1134B101F2DFF2009F498C00E948A09609337135F
S1134B20709338138093391390933A131A8A94C06C
S1134B30F1102DC00E948A096093331370933413CB
S1134B40809335139093361388EC94E10E94E30428
S1134B50181619060CF478C080913313909134130D
S1134B60A0913513B09136134091371350913813F7
S1134B706091391370913A13841B950BA60BB70BF4
S1134B808B3F9105A105B1050CF068C05DC0CE0155
S1134B90AFDE8889811103C08989882339F01A8A94
S1134BA01B8A188A198A1E861F8655C08E85811114
S1134BB004C08F85882309F447C01E861F861F2DD5
S1134BC04BC01B89111110C0002309F445C081E0BA
S1134BD08B8B0E948A0960933713709338138093E8
S1134BE0391390933A1330C001111FC00E948A09EF
S1134BF06093331370933413809335139093361367
S1134C0000913713109138132091391330913A13CE
S1134C10DC01CB01801B910BA20BB30B813D9740B0
S1134C20A105B105BCF01B8A16C00E948A096093D5
S1134C303713709338138093391390933A130CC03D
S1134C40002321F081E08B8B11E006C01B89111138
S1134C50EACF02C006C010E0812F03C081E08A8B36
S1134C60FBCFDF91CF911F910F91FF900895AF92E9
S1134C70BF92CF92DF92EF92FF920F931F93CF9345
S1134C80DF93CDB7DEB7CE56D1090FB6F894DEBFA9
S1134C900FBECDBF7C018B0180E090E00E94EC0F41
S1134CA090E0801791070CF452C017FD50C069E4DE
S1134CB077E0C701F7DBC70134DAC70145960E94E4
S1134CC06A0F8EE6809F7001819FF00C11248FEF94
S1134CD0E81AF80A80E090E00E94EC0F282F30E0F8
S1134CE002171307E4F557019EE6A90EB11C05321D
S1134CF01105ACF568019FEFC91AD90ABE016F5FAF
S1134D007F4FC5010E94F00FBE016F5F7F4FC70147
S1134D100E9416106AEC77E082EB90E10E9454073F
S1134D204AE050E0B80182EB90E10E94330865ED5F
S1134D3077E082EB90E10E9454074AE050E0B6012C
S1134D4082EB90E10E94390875018601C3CF66E5C4
S1134D5077E082EB90E10E945F0780E037C0263263
S1134D60310544F59EE6899F800111240F5F1F4F92
S1134D708EE6F82E80E090E00E94EC0F282F30E0C1
S1134D802F5F3F4FF29EA001F39E500D1124401758
S1134D90510768F060E0C8010E94EE0F67E177E018
S1134DA082EB90E10E945F070F5F1F4FE3CF6FEF2D
S1134DB0680F01C064E280E090E00E94EE0F60E3BF
S1134DC077E082EB90E10E945F0781E0C259DF4FF8
S1134DD00FB6F894DEBF0FBECDBFDF91CF911F9108
S1134DE00F91FF90EF90DF90CF90BF90AF90089518
S1134DF0EF92FF920F931F93CF93DF93FC012389CC
S1134E00222309F462C02289211109C06CEF77E0E2
S1134E10DF91CF911F910F91FF90EF9043CBEC0165
S1134E206AE078E03FDB6596CE010E942D528C014A
S1134E30CE010E942952A8014A505109BC01635174
S1134E407109E12CF12C0AE010E02EE030E0CE01F3
S1134E500E941D4DCE010E942D528C01CE010E9454
S1134E602952A8014A505109BC0163517109EE2429
S1134E70E394F12C0AE010E02EE030E0CE010E9431
S1134E80EC4DCE010E942D528C01CE010E9429527C
S1134E90A80149505109BC0161517109CE010E9418
S1134EA00E5261E070E0CE010E941A5261E0CE0120
S1134EB00E94145265E178E0CE01DF91CF911F91F9
S1134EC00F91FF90EF900C945407DF91CF911F91B5
S1134ED00F91FF90EF900895AF92BF92CF92DF921F
S1134EE0EF92FF920F931F93CF93DF935B016A01BD
S1134EF0EC016596CE010E9429529C012852310989
S1134F00E12CF12C02E110E048E050E064E170E0B3
S1134F10CE010E941D4DCE010E9429529C012852AF
S1134F203109EE24E394F12C48E050E064E170E0B0
S1134F30CE010E94EC4DF50101900020E9F7319774
S1134F408F010A191B09CE010E942952F6E0FF2E97
S1134F50F09E9001F19E300D11248897281739078F
S1134F60A0F4F60101900020E9F731978F010C19A4
S1134F701D09CE010E942952F09E9001F19E300D30
S1134F801124889728173907D8F0CE010E94295296
S1134F9097FD019695958795BC01655171094DE082
S1134FA050E0CE010E940E5261E070E0CE010E94FA
S1134FB01A5261E0CE010E94145262E076E04AC0C7
S1134FC0CE010E942952F50101900020E9F73197A2
S1134FD0EA19FB0997FD01969595879546E04E9F42
S1134FE090014F9F300D112436952795BC01621B0B
S1134FF0730B49E050E0CE010E940E5261E070E074
S1135000CE010E941A5261E0CE010E941452B501F1
S1135010CE010E945407CE010E942952F60101904C
S11350200020E9F73197EC19FD0997FD0196959554
S1135030879546E04E9F90014F9F300D1124369581
S11350402795BC01621B730B41E150E0CE010E9425
S11350500E52B601CE01DF91CF911F910F91FF90B7
S1135060EF90DF90CF90BF90AF900C9454078F9245
S11350709F92AF92BF92CF92DF92EF92FF920F93E3
S11350801F93CF93DF93EC014B0180E090E00E94EB
S1135090EC0F98E0899FB001112480E699E00E940A
S11350A0345E072E000C880B990B1F921F921F92DF
S11350B01F92B7E1AB2EB12CC12CD12C14E6E12EFA
S11350C0F12C00E010E021E030E040E050E00E94EC
S11350D0894B8B0180E090E00E94EC0F282F30E098
S11350E0B90161507109C8010E94345E7B010F90BF
S11350F00F900F900F90672B19F4EE24E394F12C8A
S11351006596CE010E942D528C0180E090E00E94B1
S1135110EC0F90E094012F5F3F4F821B930B8E9D09
S113512090018F9D300D9E9D300D112437FF02C0DC
S11351302F5F3F4F3595279501501109021B130B23
S1135140CE010E9429526C01CE010E94295296017F
S113515021503109E89CA001E99C500DF89C500DA8
S1135160112457FF02C04F5F5F4F55954795485F25
S11351705F4FBC0161507109EE24E394F12CCE0120
S11351800E947F4DDF91CF911F910F91FF90EF907F
S1135190DF90CF90BF90AF909F908F900895AF9283
S11351A0BF92CF92DF92EF92FF920F931F93CF9310
S11351B0DF93EC0180915313811109C084E290E0E4
S11351C0909328138093271381E08093531380E0F6
S11351D090E00E94EC0F882309F470C48091251399
S11351E090912613E0902713F0902813E816F906FF
S11351F034F48E199F09909326138093251380917C
S11352002413882309F4ABC180912313811118C09E
S113521020912513309126134EE6429FC001439FEF
S1135220900D112465EB72E101960E94F00F81E06C
S11352308093231368E178E082EB90E10E945F079A
S11352408E010B5E1F4F48E050E069E170E0C80139
S11352500E940E5261E070E0C8010E941A526091EF
S11352601D1370911E134AE050E0C8010E943308D8
S113527064EA75E0C8010E94540760911F1370919D
S113528020134AE050E0C8010E94330864EA75E044
S1135290C8010E94540760912113709122134AE0BF
S11352A050E0C8010E9433086EEB74E0C8010E940C
S11352B054076091191370911A134AE050E0C80121
S11352C00E94330869E278E0C8010E945407809183
S11352D01B1390911C130A972CF465EF76E0C80118
S11352E00E94540760911B1370911C134AE050E014
S11352F0C8010E94330840E150E062E070E0C80158
S11353000E940E526DE578E0C8010E94540720E027
S113531030E0A9016091B9127091BA128091BB1268
S11353209091BC120E94365D87FD05C06FEB74E05E
S1135330C8010E9454074091B9125091BA12609169
S1135340BB127091BC1222E030E0C8010E942F0908
S113535048E150E062E070E0C8010E940E5268E249
S113536078E0C8010E94540720E030E0A901609170
S1135370BD127091BE128091BF129091C0120E9412
S1135380365D87FD05C06FEB74E0C8010E945407C9
S11353904091BD125091BE126091BF127091C01223
S11353A022E030E0C8010E942F09C8010E9429525E
S11353B0BC016A52710944E150E0C8010E940E52D6
S11353C06091B5127091B6128091B7129091B81293
S11353D028EE33E040E050E00E94475EBA01A901A4
S11353E02AE030E0C8010E94B70767E578E0C80109
S11353F00E9454078091B412882361F16BE278E033
S1135400CE0150D88E8581111E868F8581111F860D
S113541088898823C9F06091251370912613CE01E1
S113542026DC10922413109223131092B412188ABB
S1135430109226131092251381E090E090931804A3
S1135440809317048E878F878989882319F0109297
S1135450B412198A8889882321F081E08093B412D8
S1135460188A8E85882309F440C080912513909171
S11354702613009771F001979093261380932513B8
S113548080911704909118048130910559F1019786
S113549025C080E090E00E94EC0F823018F190E08B
S11354A001972091271330912813281739072CF4DA
S11354B0309326132093251304C0909326138093CE
S11354C0251380E090E00E94EC0F833018F083E015
S11354D090E004C0823031F482E090E090931804AC
S11354E080931704109223131E868F85882369F1F5
S11354F080E090E00E94EC0F209125133091261358
S1135500482F50E0415051094217530709F4F9C29A
S113551040912713509128132417350709F4F1C239
S11355202F5F3F4F30932613209325138091170448
S1135530909118048330910529F0019690931804F2
S113554080931704109223131F868989882329F0D6
S11355501092231310922413198A10E081C38091AE
S1135560170490911804019709F0B1C08091B31207
S1135570811134C000912513109126138EE6809F6B
S11355806001819FD00C112465E472E1C60101968B
S11355900E94F00F58018FEFA81AB80A80E090E03B
S11355A00E94EC0F90E0A816B906ACF40E151F0586
S11355B094F467ED71E1C60181599F4F0E94F00F89
S11355C080E090E00E94EC0F0E5F1F4F90E0081700
S11355D019070CF4A0C281E08093B31260912513E3
S11355E0709126136F5F7F4F81E08F938DB79EB7C5
S11355F08E5691090FB6F8949EBF0FBE8DBFADB7FE
S1135600BEB711968EE6E5E4F2E101900D928A951B
S1135610E1F741E050E0CE010E94E11C0091251326
S1135620109126138DB79EB781599F4F0FB6F894EA
S11356309EBF0FBE8DBF80E090E00E94EC0F9801EA
S11356402F5F3F4F90E0281739070CF040C080913E
S113565027139091281308171907CCF540911704C4
S1135660509118044F5F5F4FB8016E5F7F4F1F92D8
S11356708DB79EB78E5691090FB6F8949EBF0FBE94
S11356808DBFADB7BEB711968EE6E7EDF1E101909F
S11356900D928A95E1F7CE010E94E11C0091251339
S11356A0109126138DB79EB781599F4F0FB6F8946A
S11356B09EBF0FBE8DBF80E090E00E94EC0F98016A
S11356C02E5F3F4F90E0281739070CF430C28091C9
S11356D0170490911804029709F095C080E090E0B7
S11356E00E94EC0F823008F456C2009125131091E9
S11356F026130115110509F44EC28091B3128111CC
S113570024C0C80101972EE6289F7001299FF00C40
S1135710112465E472E1C70101960E94F00F67ED60
S113572071E1C70181599F4F0E94F00F80E090E022
S11357300E94EC0F90E098012F5F3F4F2817390724
S11357400CF430C281E08093B3121F928DB79EB7E0
S11357508E5691090FB6F8949EBF0FBE8DBFADB79C
S1135760BEB711968EE6E5E4F2E101900D928A95BA
S1135770E1F741E050E0B801CE010E94E11C8DB791
S11357809EB781599F4F0FB6F8949EBF0FBE8DBF31
S113579040911704509118046091251370912613B9
S11357A06F5F7F4F81E08F938DB79EB78E569109BF
S11357B00FB6F8949EBF0FBE8DBFADB7BEB711969E
S11357C08EE6E7EDF1E101900D928A95E1F7CE01C5
S11357D00E94E11C00912513109126138DB79EB7EA
S11357E081599F4F0FB6F8949EBF0FBE8DBF80E0C6
S11357F090E00E94EC0F98012F5F3F4F90E0281734
S113580039070CF4D7C180911704909118040397B9
S113581009F0ACC080E090E00E94EC0F833008F403
S113582003C200912513109126130230110508F4C8
S1135830FBC18091B31281111FC0C80102972EE6EB
S1135840289F7001299FF00C112465E472E1C701BF
S113585001960E94F00F67ED71E1C70181599F4FD6
S11358600E94F00F69E671E1C70183529F4F0E94C5
S1135870F00F81E08093B312B801615071091F9257
S11358808DB79EB78E5691090FB6F8949EBF0FBE82
S11358908DBFADB7BEB711968EE6E5E4F2E1019097
S11358A00D928A95E1F741E050E0CE010E94E11C9F
S11358B08DB79EB781599F4F0FB6F8949EBF0FBE08
S11358C08DBF4091170450911804415051096091C3
S11358D02513709126131F928DB79EB78E5691098A
S11358E00FB6F8949EBF0FBE8DBFADB7BEB711966D
S11358F08EE6E7EDF1E101900D928A95E1F7CE0194
S11359000E94E11C8DB79EB781599F4F0FB6F89442
S11359109EBF0FBE8DBF4091170450911804609133
S11359202513709126136F5F7F4F81E08F938DB79E
S11359309EB78E5691090FB6F8949EBF0FBE8DBFC9
S1135940ADB7BEB711968EE6E9E6F1E101900D928E
S11359508A95E1F7CE010E94E11C8DB79EB781596B
S11359609F4F0FB6F8949EBF0FBE8DBF8E858823C0
S113597009F446C02091170430911804809125132E
S1135980909126132130310569F5009731F0019784
S1135990909326138093251330C080E090E00E94FA
S11359A0EC0F823050F190E0019720912713309151
S11359B02813281739072CF4309326132093251322
S11359C004C09093261380932513809125139091FE
S11359D02613029794F083E090E090931804809348
S11359E017040BC00197909326138093251321501D
S11359F0310930931804209317041092B3121E86B1
S1135A008F858823D9F1E0901704F0901804009151
S1135A1025131091261393E0E916F10489F480E02C
S1135A2090E00E94EC0F90E0019780179107C9F075
S1135A3080912713909128130817190794F4FBC039
S1135A4080E090E00E94EC0F90E0019780179107AE
S1135A5041F080912713909128130817190709F032
S1135A60F1C0109226131092251381E090E09093D8
S1135A701804809317041092B3121F868889882310
S1135A8031F081E0809324131092B312188A19899B
S1135A90112369F0109226131092251381E090E0EF
S1135AA090931804809317041092B31228C0609145
S1135AB0251370912613CE01DADAD2C040E150E00A
S1135AC060E070E08E010B5E1F4FC8010E940E5211
S1135AD061E070E0C8010E941A5268E378E0C801EE
S1135AE00E94540788898111188A8E8581111E8627
S1135AF08F8581111F861989112309F42ECD198AE6
S1135B00AFC0823008F41ECD1092261310922513D4
S1135B1081E090E013CDAE14BF040CF05CCD69E6D7
S1135B2071E1C60183529F4F0E94F00F54CD209122
S1135B30271330912813C8010196821793070CF09C
S1135B40C6CD40911704509118044E5F5F4FB801C1
S1135B506D5F7F4F1F928DB79EB78E5691090FB61A
S1135B60F8949EBF0FBE8DBFADB7BEB711968EE63B
S1135B70E9E6F1E101900D928A95E1F7CE010E94E8
S1135B80E11C8DB79EB781599F4F0FB6F8949EBF05
S1135B900FBE8DBF9CCD81E090E09093180480935C
S1135BA0170431CE809127139091281308171907F1
S1135BB09CF1C8CD809127139091281308171907D9
S1135BC00CF021CE40911704509118044F5F5F4FA1
S1135BD0B8016E5F7F4F1F928DB79EB78E569109A5
S1135BE00FB6F8949EBF0FBE8DBFADB7BEB711966A
S1135BF08EE6E9E6F1E101900D928A95E1F7CE0196
S1135C000E94E11C8DB79EB781599F4F0FB6F8943F
S1135C109EBF0FBE8DBFF7CD69E671E1C701835208
S1135C209F4F0E94F00F8ECD81E090E09093180476
S1135C30809317049BCE0F5F1F4F1093261300937E
S1135C40251319CF0F5F1F4F1093261300932513AD
S1135C509FEFE91AF90AF0921804E09217040BCFA7
S1135C60812FDF91CF911F910F91FF90EF90DF90E3
S1135C70CF90BF90AF9008956F927F928F929F9232
S1135C80AF92BF92CF92DF92EF92FF920F931F9346
S1135C90CF93DF93EC0180912B0490912C048230FC
S1135CA0910509F4B8C324F4019709F47FC3DFC351
S1135CB08B30910521F0459709F46BC3D8C38091CB
S1135CC032139E012B5E3F4F6901811114C1C9013A
S1135CD00E9429529C0124513109E12CF12C08E144
S1135CE010E048E050E06AE070E0C6010E941D4DFB
