S00F0000746573744C49422E737265637E
S113000046C4000074C4000072C4000070C4000040
S11300106EC400006CC400006AC4000068C4000020
S113002066C4000064C4000062C4000060C4000030
S11300305EC400005CC400005AC4000058C4000040
S113004056C4000054C4000052C4000050C4000050
S11300504EC400004CC400004AC400000C94400983
S113006046C400003CC6000070C6000040C4000046
S11300703EC400003CC400003AC4000038C4000080
S113008036C4000034C4000032C4000030C4000090
S11300900C948B4B0C94C14B2AC400000C94385B19
S11300A026C4000024C4000022C4000020C40000B0
S11300B01EC400001CC400001AC4000018C40000C0
S11300C016C4000014C4000012C4000010C40000D0
S11300D00EC400000CC400000AC4000008C40000E0
S11300E006C40000634C664C554C594C5F4C9D4C07
S11300F06A4C6E4C744C784C7C4C824C864C8A4CCA
S11301009D4C904C944C984C084AD73B3BCE016E86
S113011084BCBFFDC12F3D6C74319ABD56833DDA5A
S11301203D00C77F11BED9E4BB4C3E916BAAAABE69
S1130130000000803F05A84CCDB2D44EB93836A992
S1130140020C50B9918688083CA6AAAA2ABE0000CF
S113015000803F0000407A10F35A00A0724E180944
S11301600010A5D4E80000E87648170000E40B541A
S1130170020000CA9A3B000000E1F50500008096E9
S11301809800000040420F000000A086010000001B
S1130190102700000000E8030000000064000000D5
S11301A000000A00000000000100000000002C769E
S11301B0D888DC674F0823DFC1DFAE59E1B1B796B9
S11301C0E5E3E453C63AE651997696E8E6C2842616
S11301D0EB898C9B62ED407C6FFCEFBC9C9F40F2F2
S11301E0BAA56FA5F490055A2AF75C936B6CF9676E
S11301F06DC11BFCE0E40D47FEF520E6B500D0ED33
S1130200902E0300943577050080841E080000209A
S11302104E0A000000C80C333333330F986E128338
S11302201141EF8D2114893BE65516CFFEE6DB180C
S1130230D1844B381BF77C1D901DA4BBE4242032D1
S113024084725E228100C9F124ECA1E53D270018E7
S113025054321C32541800003FFF2001E001E00139
S113026020013FFF000000000A0B02090C0D0E08DC
S1130270070304010000000000000000000000006B
S1130280000000000000000000000000000000006A
S11302900000121110000000000000000000000027
S11302A00000000000000000000000000102102017
S11302B02008081020401020408002010201080498
S11302C0020101020408102040808040201008042C
S11302D00201800402018040201008040201080485
S11302E002010102040810204080010204081020C9
S11302F040800505050507050808080802020202F2
S11303000A0A0808040404040101010101010101AD
S11303100303030303030303040707070C0C0C0C78
S11303200C0C0C0C02020202060606060606060661
S11303300B0B0B0B0B0B0B0B0000200023002600F8
S113034029002C002F0032000001000003010601E7
S1130350090100002200250028002B002E00310096
S1130360340002010000050108010B010000210016
S1130370240027002A002D00300033000101000072
S1130380040107010A0100000000003E5B4F5B3ED0
S11303903E6B4F6B3E1C3E7C3E1C183C7E3C181C46
S11303A0577D571C1C5E7F5E1C00183C1800FFE73D
S11303B0C3E7FF0018241800FFE7DBE7FF30483AE3
S11303C0060E2629792926407F050507407F052545
S11303D03F5A3CE73C5A7F3E1C1C08081C1C3E7FCD
S11303E014227F22145F5F005F5F06097F017F0094
S11303F06689956A606060606094A2FFA2940804B4
S11304007E040810207E201008082A1C08081C2AD4
S113041008081E101010100C1E0C1E0C30383E382C
S113042030060E3E0E06000000000000005F0000D3
S11304300007000700147F147F14242A7F2A122344
S11304401308646236495620500008070300001C54
S11304502241000041221C002A1C7F1C2A08083E5D
S11304600808008070300008080808080000606070
S11304700020100804023E5149453E00427F4000DE
S113048072494949462141494D331814127F1027B6
S1130490454545393C4A4949314121110907364905
S11304A0494936464949291E0000140000004034D9
S11304B000000008142241141414141400412214DE
S11304C00802015909063E415D594E7C1211127C05
S11304D07F494949363E414141227F4141413E7F66
S11304E0494949417F090909013E414151737F0846
S11304F008087F00417F41002040413F017F0814EC
S113050022417F404040407F021C027F7F0408104C
S11305107F3E4141413E7F090909063E4151215E2A
S11305207F09192946264949493203017F01033FBE
S11305304040403F1F2040201F3F4038403F63144D
S113054008146303047804036159494D43007F414F
S113055041410204081020004141417F040201028C
S113056004404040404000030708002054547840B1
S11305707F284444383844444428384444287F3845
S11305805454541800087E090218A4A49C787F08C7
S113059004047800447D40002040403D007F102842
S11305A0440000417F40007C047804787C08040403
S11305B0783844444438FC1824241818242418FC9B
S11305C07C08040408485454542404043F44243C40
S11305D04040207C1C2040201C3C4030403C4428AF
S11305E01028444C9090907C4464544C4400083649
S11305F041000000770000004136080002010204B7
S1130600023C2623263C1EA1A161123A4040207AD6
S1130610385454555921555579412254547842211E
S11306205554784020545579400C1E527212395555
S11306305555593954545459395554545800004552
S11306407C410002457D420001457C407D1211122F
S11306507DF0282528F07C545545002054547C54C2
S11306607C0A097F4932494949323A4444443A327E
S11306704A4848303A4141217A3A42402078009D24
S1130680A0A07D3D4242423D3D4040403D3C24FFD0
S11306902424487E4943662B2FFC2F2BFF0929F67F
S11306A020C0887E090320545479410000447D41D0
S11306B03048484A32384040227A007A0A0A727D29
S11306C00D19317D2629292F282629292926304844
S11306D04D4020380808080808080808382F10C8B2
S11306E0ACBA2F102834FA00007B000008142A1436
S11306F02222142A14085500550055AA55AA55AAB1
S1130700FF55FF55FF000000FF00101010FF0014FC
S11307101414FF001010FF00FF1010F010F0141458
S113072014FC001414F700FF0000FF00FF1414F47D
S113073004FC141417101F10101F101F1414141F7E
S113074000101010F0000000001F101010101F10F7
S1130750101010F010000000FF10101010101010F6
S11307601010FF10000000FF140000FF00FF000045
S11307701F10170000FC04F414141710171414F4B9
S113078004F40000FF00F714141414141414F700F4
S1130790F7141414171410101F101F141414F41445
S11307A01010F010F000001F101F0000001F1400B4
S11307B00000FC140000F010F01010FF10FF1414DF
S11307C014FF141010101F00000000F010FFFFFFB2
S11307D0FFFFF0F0F0F0F0FFFFFF0000000000FF6B
S11307E0FF0F0F0F0F0F3844443844FC4A4A4A3471
S11307F07E02020606027E027E0263554941633888
S113080044443C04407E201E2006027E020299A538
S1130810E7A5991C2A492A1C4C7201724C304A4D96
S11308204D303048784830BC625A463D3E494949CB
S1130830007E0101017E2A2A2A2A2A44445F444474
S113084040514A444040444A51400000FF0103E003
S113085080FF000008086B6B083612362436060F3A
S1130860090F06000018180000001010003040FFA7
S11308700101001F01011E00191D1712003C3C3C20
S11308803C0000000000DF04D706864BF54B112422
S11308901FBECFEFD1E2DEBFCDBF00E00CBF10E141
S11308A0A0E0B2E0E0EFF0ED00E00BBF02C0079083
S11308B00D92AA39B107D9F725E1AAE9B0E101C03F
S11308C01D92AF3CB207E1F714E0C7E4D4E000E0C6
S11308D006C021970109802FFE010E942C60C334B9
S11308E0D10780E00807A9F790D20C94766888CBEA
S11308F0CF93DF9326E040E05BE460E070E088EAB9
S113090090E162D18CE694E10E94F54A8DEE94E088
S113091086D2EC010E944E25D093A710C093A61056
S1130920D093A510C093A41061E374E088EA90E129
S1130930DF91CF91C4C28AE990E10E94764680910A
S1130940A6109091A71045960E94DC0D8AE990E1CB
S11309500E943141682F8091A6109091A7100E94A7
S11309608027811106C08091A6109091A7100E9443
S1130970A4268091A6109091A7100E94C53380915F
S1130980A6109091A7100E94DC218091A61090914E
S1130990A7108F549F4F0E9463498091A610909195
S11309A0A7100E949D238091A6109091A7104596B0
S11309B00E946A0F6AE070E080E090E0DCC48AE99B
S11309C090E10C94273BFC01918D228D892F90E0BE
S11309D0805C9F4F821B91098F7399270895FC01B6
S11309E0918D828D981731F0828DE80FF11D858DE0
S11309F090E008958FEF9FEF0895FC01918D828D13
S1130A00981761F0828DDF01A80FB11D5D968C915E
S1130A10928D9F5F9F73928F90E008958FEF9FEF69
S1130A200895FC01538D448D252F30E0842F90E0F0
S1130A30821B930B541710F0CF96089501970895D5
S1130A408EEC96E0892B39F080E090E0892B19F048
S1130A50A5D1811125C08BEE9BE4892B41F080E068
S1130A6090E0892B21F00E94EB4B81111CC080E0A7
S1130A7090E0892B41F080E090E0892B21F00E94E6
S1130A800000811113C080E090E0892BA1F080E088
S1130A9090E0892B81F00E94000081110AC0089522
S1130AA00E940000D8CF0E940000E1CF0E94000005
S1130AB0EACF0C9400000895FC01848DDF01A80F97
S1130AC0B11DA35ABF4F2C91848D90E001968F7372
S1130AD09927848FA689B7892C93A089B1898C9191
S1130AE080648C93938D848D981306C00288F38957
S1130AF0E02D80818F7D80830895EF92FF920F9384
S1130B001F93CF93DF93EC0181E0888F9B8D8C8DB5
S1130B10981305C0E889F989808185FD23C0F62EE4
S1130B200B8D10E00F5F1F4F0F731127E02E8C8D7C
S1130B30E8120BC00FB607FCFACFE889F989808167
S1130B4085FFF5CFCE01B8DFF2CF8B8DFE01E80F24
S1130B50F11DE35AFF4FF0820B8FEA89FB898081F4
S1130B60806207C0EE89FF896083E889F989808102
S1130B708064808381E090E0DF91CF911F910F9199
S1130B80FF90EF900895CF93DF93EC01888D882335
S1130B90C1F0EA89FB89808185FD05C0A889B989EE
S1130BA08C9186FD0EC00FB607FCF5CF808185FFC2
S1130BB0F2CFA889B9898C9185FFEDCFCE017CDF76
S1130BC0E8CFDF91CF910895CF92DF92EF92FF9219
S1130BD01F93CF93DF93EC016A017B01122FE88905
S1130BE0F98982E080834115514E61057105B1F0A8
S1130BF060E079E08DE390E0A70196010E94EE5F4A
S1130C00DA01C9010197A109B109B695A79597958C
S1130C1087959C01211580E13807A8F0E889F989B6
S1130C20108260E874E88EE190E0A70196010E94CA
S1130C30EE5FDA01C9010197A109B109B695A7953B
S1130C40979587959C01EC85FD853083EE85FF851E
S1130C502083188EEC89FD891083EA89FB898081C1
S1130C6080618083EA89FB89808188608083EA8946
S1130C70FB89808180688083EA89FB8980818F7DFC
S1130C808083DF91CF911F91FF90EF90DF90CF9001
S1130C900895CF93DF93EC01E881F9810680F78111
S1130CA0E02D1995EA89FB8980818F7E8083EA890A
S1130CB0FB898081877F8083EA89FB8980818F77A4
S1130CC08083EA89FB8980818F7D80838A8D898FE7
S1130CD0DF91CF91089580E090E0089508951F92E8
S1130CE00F920FB60F9211240BB60F922F938F937E
S1130CF09F93EF93FF93E091B810F091B910808126
S1130D00E091BE10F091BF1082FD12C090818091DD
S1130D10C1108F5F8F732091C210821751F0E09140
S1130D20C110F0E0E855FF4E958F8093C11001C0CB
S1130D308081FF91EF919F918F912F910F900BBE26
S1130D400F900FBE0F901F9018951F920F920FB621
S1130D500F9211240BB60F922F933F934F935F93EF
S1130D606F937F938F939F93AF93BF93EF93FF936F
S1130D7088EA90E1A1DEFF91EF91BF91AF919F913D
S1130D808F917F916F915F914F913F912F910F9030
S1130D900BBE0F900FBE0F901F90189588EA90E13C
S1130DA012DE21E0892B09F420E0822F0895E8EA7D
S1130DB0F0E11382128288EE93E0A0E0B0E0848335
S1130DC09583A683B7838EE494E09183808385EC36
S1130DD090E09587848784EC90E09787868780EC01
S1130DE090E0918B808B81EC90E0938B828B82ECF2
S1130DF090E0958B848B86EC90E0978B868B118E9C
S1130E00128E138E148E08950895EFD2FDDF70DDD7
S1130E10C0E2D5E090DD2097E9F312DEFBCF0C941D
S1130E2080600C9480600C941861CF92DF92EF92F2
S1130E30FF920F931F93CF93DF936C017A018B0181
S1130E40C0E0D0E0CE15DF0581F0D8016D918D01B1
S1130E50D601ED91FC910190F081E02DC601199528
S1130E60892B11F02196EECF7E01C701DF91CF913E
S1130E701F910F91FF90EF90DF90CF90089561152F
S1130E80710579F0FB0101900020E9F73197AF017A
S1130E90461B570BDC01ED91FC910280F381E02DA0
S1130EA0199480E090E00895EACFDC01ED91FC9183
S1130EB00190F081E02D19946CE574E0E0CF0F937C
S1130EC01F93CF93DF93EC01DADF8C01CE01F4DFC3
S1130ED0800F911FDF91CF911F910F9108958F92F1
S1130EE09F92AF92BF92EF92FF920F931F93CF9373
S1130EF0DF93CDB7DEB7A1970FB6F894DEBF0FBE70
S1130F00CDBF7C01FA01CB0119A2223008F42AE0FA
S1130F108E010F5D1F4F822E912CA12CB12CBF018D
S1130F20A50194010E94EE5FF901CA010150110963
S1130F306A3010F4605D01C0695CD8016C93232BA6
S1130F40242B252B61F7B801C70199DFA1960FB6B1
S1130F50F894DEBF0FBECDBFDF91CF911F910F91EB
S1130F60FF90EF90BF90AF909F908F9008952115C0
S1130F70310541F4DC01ED91FC910190F081E02D0B
S1130F80642F1994ACCF9A01462F50E060E070E0D2
S1130F90EECF0F931F93CF93DF93EC01F4DF8C011B
S1130FA0CE018ADF800F911FDF91CF911F910F91A6
S1130FB008959A01AB0160E070E0D9CF0F931F93BD
S1130FC0CF93DF93EC01F5DF8C01CE0175DF800F49
S1130FD0911FDF91CF911F910F910895CF92DF92CE
S1130FE0EF92FF920F931F93CF93DF932115310557
S1130FF081F4DC01ED91FC910190F081E02D642FEE
S1131000DF91CF911F910F91FF90EF90DF90CF90E0
S113101019942A303105F1F477FF1BC06A017B0172
S1131020EC016DE242DF8C0144275527BA014C19CB
S11310305D096E097F092AE0CE0151DF800F911FFF
S1131040DF91CF911F910F91FF90EF90DF90CF90A0
S113105008952AE0DF91CF911F910F91FF90EF90B7
S1131060DF90CF903CCF9A01AB01770F660B770BE3
S1131070B5CF0F931F93CF93DF93EC01F4DF8C0173
S1131080CE011ADF800F911FDF91CF911F910F9135
S113109008950F931F93CF93DF93EC019FDF8C018F
S11310A0CE010ADF800F911FDF91CF911F910F9125
S11310B008957F928F929F92AF92BF92CF92DF92C8
S11310C0EF92FF920F931F93CF93DF938C016A01EA
S11310D07B01722E9A01AB01C701B6010E94965F93
S11310E0882319F06FE574E027C046015701E8949E
S11310F0B7F82FEF3FEF4FE75FE7C501B4010E9458
S1131100965F81110DC02FEF3FEF4FE75FE7C501F9
S1131110B4010E942D5D18161CF463E674E00CC043
S11311202FEF3FEF4FE75FE4C701B6010E94DD5E9A
S113113018168CF467E674E0C801DF91CF911F9113
S11311400F91FF90EF90DF90CF90BF90AF909F9062
S11311508F907F9094CE2FEF3FEF4FE75FECC70166
S1131160B6010E942D5D87FDE5CF20E030E0A901A6
S1131170C701B6010E942D5D87FF09C06DE2C80159
S113118094DEEC01F7FAF094F7F8F09402C0C0E0B2
S1131190D0E0B12C60E070E080E09FE37B1441F08C
S11311A020E030E040E251E40E94345DB394F6CF95
S11311B0A70196010E94675C6B017C010E94A15DFE
S11311C04B015C012AE0AB01BC01C80188DEC80FF9
S11311D0D91F7720A9F1C501B4010E94CD5D9B01FF
S11311E0AC01C701B6010E94665C6B017C016EE232
S11311F0C8015BDEC80FD91F20E030E040E251E4B3
S1131200C701B6010E94E85E4B015C010E94A15D2A
S11312106B017C014AE050E0C801CBDEC80FD91F46
S1131220B60180E090E00E94CD5D9B01AC01C50158
S1131230B4010E94665C6B017C017A947110DCCF6E
S1131240CE01DF91CF911F910F91FF90EF90DF902E
S1131250CF90BF90AF909F908F907F90089529CFAB
S11312600F931F93CF93DF93EC0123DF8C01CE0107
S113127023DE800F911FDF91CF911F910F9108956D
S11312801F920F920FB60F9211242F933F938F93B7
S11312909F93AF93BF938091461190914711A09172
S11312A04811B09149113091451123E0230F2D3796
S11312B020F40196A11DB11D05C026E8230F029656
S11312C0A11DB11D209345118093461190934711A0
S11312D0A0934811B093491180914A1190914B11F8
S11312E0A0914C11B0914D110196A11DB11D809397
S11312F04A1190934B11A0934C11B0934D11BF918F
S1131300AF919F918F913F912F910F900FBE0F90AE
S11313101F9018952FB7F89460914611709147115A
S113132080914811909149112FBF08953FB7F894C7
S113133080914A1190914B11A0914C11B0914D1193
S113134026B5A89B05C02F3F19F00196A11DB11D1C
S11313503FBFBA2FA92F982F8827820F911DA11D57
S1131360B11DBC01CD0142E0660F771F881F991F94
S11313704A95D1F708958F929F92AF92BF92CF92E0
S1131380DF92EF92FF926B017C01D0DF4B015C0195
S1131390C114D104E104F104F9F00E94224CC6DF27
S11313A0DC01CB0188199909AA09BB09883E93403D
S11313B0A105B10568F321E0C21AD108E108F108DA
S11313C088EE880E83E0981EA11CB11CC114D104C0
S11313D0E104F10421F7DCCFFF90EF90DF90CF9090
S11313E0BF90AF909F908F900895789484B5826059
S11313F084BD84B5816084BD85B5826085BD85B5B5
S1131400816085BDEEE6F0E0808181608083E1E863
S1131410F0E010828081826080838081816080839B
S1131420E0E8F0E0808181608083E1EBF0E080819E
S113143084608083E0EBF0E0808181608083E1E977
S1131440F0E0808182608083808181608083E0E934
S1131450F0E0808181608083E1EAF0E08081826055
S11314608083808181608083E0EAF0E08081816014
S11314708083E1E2F1E08081826080838081816009
S11314808083E0E2F1E0808181608083EAE7F0E03C
S11314908081846080838081826080838081816098
S11314A080838081806880831092C10008950F93A7
S11314B01F93CF93DF93DC01FB0155968C915597D5
S11314C0823089F0833021F1813009F0E7C014962D
S11314D08D919C911597BC01641B750BAB01415018
S11314E05109BF011DC014966D917C911597CB01D4
S11314F08E1B9F0BFC0116968D919C911797BC0136
S1131500641B750BAB0141505109E21BF30BC6C0C0
S113151016966D917C9117976E1B7F0B621B730B54
S113152057FD1BC114968D919C9115974817590727
S11315300CF013C177FF04C0260F371F60E070E082
S113154016968D919C911797FB01E20FF31F8E174E
S11315509F071CF49C01261B370B121613060CF074
S1131560FCC0A22F862F86958695869590E8899F44
S1131570400D511D1124FA01EA5EFD4F6770A9F177
S113158098E0961B492F50E0EA01C25FDD4F888145
S1131590291790F4421B51092FEF30E002C0359512
S11315A027954A95E2F782230130110541F068F04E
S11315B00230110589F0D1C00130110519F42081E0
S11315C0822B0CC00130110520F4809520818223E8
S11315D005C00230110531F4208182278083A917C8
S11315E008F4BBC0A91BE058FF4FA83048F10230F3
S11315F0110559F4EF018A2F988190959883C0586A
S1131600DF4F88508830C0F733C081E001301105C6
S113161009F080E08195EF019A2F8883C058DF4F4D
S113162098509830D0F788EF8A0F869586958695DE
S113163060E8869FE00DF11D1124E058FF4FA7706C
S1131640AA2309F48AC0B0E0AA5FBD4F8C9101308F
S1131650110531F040F00230110509F07EC01BC0C5
S11316609081892B03C0809590818923808375C0E4
S113167088EF8A0F86958695869570E8879FE00D9A
S1131680F11D1124E058FF4FA77009F466C0B0E0C3
S1131690AA5FBD4F8C9190818927E8CF57FD5DC02B
S11316A016968D919C911797481759070CF055C0C1
S11316B0F7FF04C02E0F3F1FE0E0F0E014968D9179
S11316C09C911597BF01620F731F861797071CF42F
S11316D09C012E1B3F0B121613060CF03EC0CA01D0
S11316E057FD079663E0959587956A95E1F796957A
S11316F0982F882797958795E80FF91FEA5EFD4F85
S11317004770552781E090E001C0880F4A95EAF7B9
S1131710482F0130110539F078F002301105E9F451
S11317202E0F3F1F13C02E0F3F1FE217F307A9F020
S11317308081842B8193F9CF80952E0F3F1FE21770
S1131740F30759F0908198239193F9CFE217F307A7
S113175021F0808184278193F9CFDF91CF911F916C
S11317600F9108950F931F93CF93DF93DC01559648
S11317708C915597823071F0833009F1813009F0F2
S11317808CC01496ED91FC911597E41BF50BE21BAC
S1131790F30B20C01496ED91FC911597CF01861B95
S11317A0970BBC01615071091696ED91FC91179746
S11317B0CF01841B950BAC01421B530B6EC01696D4
S11317C0ED91FC911797CF01861B970BBC016150DB
S11317D07109FA0177FD1BC116968D919C9117979B
S11317E0681779070CF013C1F7FF04C02E0F3F1FD1
S11317F0E0E0F0E014968D919C911597AF01420FB3
S1131800531F841795071CF49C012E1B3F0B1216C3
S113181013060CF0FCC0CB0177FD079643E09595C9
S113182087954A95E1F79695982F882797958795F8
S1131830E80FF91FEA5EFD4F6770772781E090E0BB
S113184001C0880F6A95EAF7482F0130110541F06D
S113185088F00230110509F0DAC02E0F3F1F15C0C1
S11318602E0F3F1FE217F30709F4D1C08081842BA8
S11318708193F8CF80952E0F3F1FE217F30709F4E9
S1131880C6C0908198239193F8CFE217F30709F427
S1131890BEC0808184278193F8CF77FDB8C01496A9
S11318A08D919C911597681779070CF0B0C057FF7C
S11318B004C0240F351F40E050E016968D919C9192
S11318C01797FA01E20FF31F8E179F071CF49C0170
S11318D0241B350B121613060CF099C0A22F842F6B
S11318E086958695869590E8899F600D711D1124D3
S11318F0FB01EA5EFD4F4770A9F198E0941B492F64
S113190050E0EA01C25FDD4F8881291790F4421B41
S113191051092FEF30E002C0359527954A95E2F73B
S113192082230130110541F068F00230110589F07D
S11319306EC00130110519F42081822B0CC00130D6
S1131940110520F480952081822305C00230110501
S113195031F4208182278083A91708F458C0A91B79
S1131960E058FF4FA83048F10230110559F4EF0157
S11319708A2F988190959883C058DF4F885088307B
S1131980C0F730C081E00130110509F080E0819595
S1131990EF019A2F8883C058DF4F98509830D0F7C2
S11319A088EF8A0F86958695869590E8899FE00D45
S11319B0F11D1124E058FF4FA770AA2341F1B0E0B4
S11319C0AA5FBD4F8C910130110529F038F0023027
S11319D01105E9F419C09081892B18C08095908174
S11319E0892314C088EF8A0F86958695869590E89A
S11319F0899FE00DF11D1124E058FF4FA77039F0C5
S1131A00B0E0AA5FBD4F8C91908189278083DF91DC
S1131A10CF911F910F910895CF92DF92EF92FF9291
S1131A200F931F93CF93DF937C018B01EA0169012C
S1131A3077FDA0C00E94D053081719070CF09AC074
S1131A40D7FD98C0C7010E94D453C817D9070CF01A
S1131A5091C0C7010E94CD53823009F07FC0F701C5
S1131A60848195819C01201B310B8901015011094E
S1131A7086819781FC01EC1BFD0BEF0121970BC0C4
S1131A80813049F4F701848195818C1B9D0BE80119
S1131A908C0101501109F1E0CF16D10431F010F19D
S1131AA032E0C316D104E1F165C0FE01D7FD3796DB
S1131AB043E0F595E7954A95E1F7F695FE2FEE2775
S1131AC0F795E7950E0F1F1FF801EA5EFD4FC770EB
S1131AD0DD2781E090E001C0880FCA95EAF7908184
S1131AE0892B3AC0FE01D7FD379623E0F595E7959B
S1131AF02A95E1F7F695FE2FEE27F795E7950E0F59
S1131B001F1FF801EA5EFD4FC770DD2781E090E0FA
S1131B1001C0880FCA95EAF78095908189231CC07B
S1131B20FE01D7FD379683E0F595E7958A95E1F7B1
S1131B30F695FE2FEE27F795E7950E0F1F1FF80178
S1131B40EA5EFD4FC770DD2781E090E001C0880F99
S1131B50CA95EAF79081892780830CC0833009F005
S1131B608FCFF70186819781801B910B8E01EC0149
S1131B70219791CFDF91CF911F910F91FF90EF901B
S1131B80DF90CF9008951F93CF93DF93EC01162F2E
S1131B9040E250E060E870E00E9408508FE694E074
S1131BA0998388838FEF8C8F88A38E8F8D8F1F8F5F
S1131BB0DF91CF911F91089580E092E0E6E1F2E099
S1131BC0DF019C011D9221503040E1F70895FC0192
S1131BD081A1882339F06EBD00000DB407FEFDCF4E
S1131BE08EB5089528E030E090E8A4A1B5A14C9109
S1131BF083A5809584238C93A2A1B3A182A5462FAB
S1131C00492319F04C91842B03C04C918095842373
S1131C108C93A4A1B5A14C9183A5842B8C93969508
S1131C202150310911F708951F93CF93DF93EC01ED
S1131C30162F8C8D8F3F01F1EEA1FFA190818CA511
S1131C40892B8083E8A5F9A590818DA580958923AA
S1131C508083EEA1FFA190818CA580958923808348
S1131C60CE01B5DFEEA1FFA190818CA5892B8083E5
S1131C70DF91CF911F9108956A8D062E000C770B8A
S1131C808CE694E10E940D4B60E08CE694E10E94A6
S1131C90B64A612F8CE694E10E94B64A8CE694E140
S1131CA0DF91CF911F910C94844B0F931F93CF938B
S1131CB0DF93EC01162F022F6B8F4A8F8C8D8F3F91
S1131CC009F48CC061E08E8D0E949E4C61E088A175
S1131CD00E949E4C88A1082E000C990BFC01EE502A
S1131CE0FD4FE491F0E0EE0FFF1FEE5AFC4F2591FB
S1131CF034913FA32EA3FC01E455FD4FE491ECA7DE
S1131D008E8D082E000C990BFC01EE50FD4FE491D2
S1131D10F0E0EE0FFF1FEE5AFC4F2591349139A7E6
S1131D2028A7FC01E455FD4FE491EDA789A1811199
S1131D3034C061E08C8D0E949E4C61E08D8D0E94C8
S1131D409E4C8D8D082E000C990BFC01EE50FD4F1E
S1131D50E491F0E0EE0FFF1FEE5AFC4F2591349111
S1131D603DA32CA3FC01E455FD4FE491EBA78C8D1E
S1131D70082E000C990BFC01EE50FD4FE491F0E0AD
S1131D80EE0FFF1FEE5AFC4F259134913BA32AA37B
S1131D90FC01E455FD4FE491EAA789A1882311F1E0
S1131DA00E942B4A80916A14882399F02FB7F894E3
S1131DB080916A14813059F48DB3809368149DB373
S1131DC080916914809589238DBB2FBF02C0209315
S1131DD0681480E58CBD81E08DBD04C08CE694E17F
S1131DE00E94F54A0023E1F08F8D87FD19C061E060
S1131DF00E949E4C61E08F8D0E94DA4C61E070E09D
S1131E0080E090E0B8DA60E08F8D0E94DA4C6AE0FE
S1131E1070E080E090E0AFDA61E08F8D0E94DA4CF0
S1131E206EEACE0101DF65EDCE01FEDE60E8CE0193
S1131E30FBDE68EACE01F8DE6FE1CE01F5DE63ED8C
S1131E40CE01F2DE60E0CE01EFDE60E4CE01ECDE36
S1131E506DE8CE01E9DE113011F460E101C064E106
S1131E60CE01E2DE60E2CE01DFDE60E0CE01DCDE48
S1131E7061EACE01D9DE68ECCE01D6DE6AEDCE0190
S1131E80D3DE62E0CE01D0DE61E8CE01CDDE6FE8C4
S1131E90CE01CADE69EDCE01C7DE113011F462E273
S1131EA001C061EFCE01C0DE6BEDCE01BDDE60E4AA
S1131EB0CE01BADE64EACE01B7DE66EACE01B4DE54
S1131EC06EE2CE01B1DE6FEACE01DF91CF911F91B8
S1131ED00F91AACEAF92BF92CF92DF92EF92FF9270
S1131EE00F931F93CF93DF93EC0161E29DDE60E0DB
S1131EF0CE019ADE6FE7CE0197DE62E2CE0194DE78
S1131F0060E0CE0191DE63E0CE018EDE8C8D8F3FEA
S1131F1041F1EEA1FFA190818CA5892B8083E8A5D6
S1131F20F9A590818DA5892B8083EEA1FFA19081D5
S1131F308CA580958923808306E112E026E1E22EB8
S1131F4024E0F22EF80161918F01CE0140DEE0160B
S1131F50F106C1F7EEA1FFA190818CA5892B8083A6
S1131F6030C0E090B8008CE08093B80006E112E045
S1131F7096E1C92E94E0D92E6A8D062E000C770BBB
S1131F808CE694E10E940D4B60E48CE694E10E949F
S1131F90B64A580180E1F82EF50161915F018CE6A3
S1131FA094E10E94B64AFA94F110F6CF8CE694E1DB
S1131FB00E94844B005F1F4FC016D106E9F6E092E1
S1131FC0B800DF91CF911F910F91FF90EF90DF90B8
S1131FD0CF90BF90AF9008950C9460680C9468689B
S1131FE0CF92DF92EF92FF920F931F93CF93DF93E1
S1131FF0EB017B012EE6E20EF11C8B016C01C61A8B
S1132000D70AC601800F911F0E946068F80181936E
S11320108F01EE15FF05A9F7CE01DF91CF911F9136
S11320200F91FF90EF90DF90CF900895AF92BF9201
S1132030DF92EF92FF920F931F93CF93DF93EC0104
S11320407B018B015C018EE6A80EB11CF801D190D6
S11320508F01CE010E946068D81621F06D2DCE014B
S11320600E9468682196CA15DB0581F7C701DF91D4
S1132070CF911F910F91FF90EF90DF90BF90AF90A1
S11320800895AF92BF92CF92DF92EF92FF920F9397
S11320901F93FC0180850E94234CBC01990F880B7F
S11320A0990B1F921F921F9224E62F93A12CB12CFF
S11320B06501EE24EA9413E0F12E00E010E020E044
S11320C030E0A9010E94304D0F900F900F900F90B7
S11320D0CB011F910F91FF90EF90DF90CF90BF90B5
S11320E0AF900895EF92FF921F93CF93DF93EC018B
S11320F07C0185E1E80EF11C48E050E062E070E00C
S1132100C7010E94B55341E050E060E070E0C701B0
S11321100E94C7531C89112359F067E974E0C70171
S11321200E9454078889882379F01C8A188A10C071
S11321306CEA74E0C7010E9454078889882321F05F
S113214081E08C8B188A0FC08989882319F0198A39
S113215010E009C08E8581111E861F85112311F0A0
S11321601F8601C011E0812FDF91CF911F91FF9055
S1132170EF900895EF92FF920F931F93CF93DF9305
S1132180EC0180912104909122048230910509F49C
S1132190CEC024F48130910551F035C383309105CC
S11321A009F4A6C18430910509F49CC22CC38E01A4
S11321B00B5E1F4F48E050E062E070E0C8010E94EF
S11321C0B55361E0C8010E94BB5341E050E060E0B8
S11321D070E0C8010E94C7536EEB74E0C8010E940E
S11321E054077E018EEBE80EF11CC7010E94CA3A27
S11321F0019729F461EC74E0C8010E94540763EC70
S113220074E0C8010E94540740E150E062E070E0CD
S1132210C8010E94B55361E070E0C8010E94C15337
S11322206EEB74E0C8010E945407C7010E94CA3AC9
S1132230029729F461EC74E0C8010E9454076BEC26
S113224074E0C8010E94540748E150E062E070E085
S1132250C8010E94B55361E070E0C8010E94C153F7
S11322606EEB74E0C8010E945407C7010E94CA3A89
S1132270039729F461EC74E0C8010E94540763EDEC
S113228074E0C8010E9454078E85882351F0809120
S113229021049091220401979093220480932104B5
S11322A01E868F85882399F08091210490912204C1
S11322B00196909322048093210480911F049091AD
S11322C0200401969093200480931F041F8688891C
S11322D0882329F1C7010E94CA3A609121047091B0
S11322E0220486179707C9F0C7010E94BB3A6BED19
S11322F074E088EA90E10E9454076091210470918F
S113230022044AE050E088EA90E10E94330866E241
S113231070E188EA90E10E945F07188A198A898926
S1132320811102C081E08FC2198A80E08CC2809141
S11323301F04909120048130910509F06BC08E0137
S11323400B5E1F4F48E050E062E070E0C8010E945D
S1132350B55361E0C8010E94BB5341E050E060E026
S113236070E0C8010E94C7536EEB74E0C8010E947C
S113237054077E018EEBE80EF11CC7010E94CA3A95
S1132380029729F461EC74E0C8010E9454076BECD5
S113239074E0C8010E94540740E150E062E070E03C
S11323A0C8010E94B55361E070E0C8010E94C153A6
S11323B06EEB74E0C8010E945407C7010E94CA3A38
S11323C0039729F461EC74E0C8010E94540763ED9B
S11323D074E0C8010E94540748E150E062E070E0F4
S11323E0C8010E94B55361E070E0C8010E94C15366
S11323F06EEB74E0C8010E945407C7010E94CA3AF8
S1132400049729F461EC74E0C8010E94540762EE59
S113241074E037CF029709F085CF8E010B5E1F4F12
S113242048E050E062E070E0C8010E94B55361E00A
S1132430C8010E94BB5361E070E0C8010E94C1530F
S11324406EEB74E0C8010E9454077E018EEBE80E27
S1132450F11CC7010E94CA3A019729F461EC74E0A7
S1132460C8010E94540763EC74E0C8010E94540739
S113247040E150E062E070E0C8010E94B55341E0E1
S113248050E060E070E0C8010E94C7536EEB74E056
S1132490C8010E945407C7010E94CA3A029729F44E
S11324A061EC74E0C8010E9454076BEC74E0C8014D
S11324B00E94540748E150E062E070E0C8010E94C5
S11324C0B55361E070E0C8010E94C1536EEB74E043
S11324D0C8010E945407C7010E94CA3A039729F40D
S11324E061EC74E0C8010E94540763ED74E072C0AB
S11324F080911F04909120048230910509F084C0DA
S11325008E010B5E1F4F48E050E062E070E0C801AE
S11325100E94B55361E0C8010E94BB5361E070E0C2
S1132520C8010E94C1536EEB74E0C8010E945407B5
S11325307E018EEBE80EF11CC7010E94CA3A029795
S113254029F461EC74E0C8010E9454076BEC74E058
S1132550C8010E94540740E150E062E070E0C80105
S11325600E94B55341E050E060E070E0C8010E9471
S1132570C7536EEB74E0C8010E945407C7010E9460
S1132580CA3A039729F461EC74E0C8010E94540725
S113259063ED74E0C8010E94540748E150E062E032
S11325A070E0C8010E94B55361E070E0C8010E9468
S11325B0C1536EEB74E0C8010E945407C7010E9426
S11325C0CA3A049729F461EC74E0C8010E945407E4
S11325D062EE74E0C8010E9454078E85882309F4D2
S11325E060CE80912104909122040197909322045B
S11325F08093210480911F0490912004019790936B
S1132600200480931F044CCE039709F08BCE8E01D7
S11326100B5E1F4F48E050E062E070E0C8010E948A
S1132620B55361E0C8010E94BB5361E070E0C8018A
S11326300E94C1536EEB74E0C8010E9454077E01EE
S11326408EEBE80EF11CC7010E94CA3A019729F4E7
S113265061EC74E0C8010E94540763EC74E0C801A3
S11326600E94540740E150E062E070E0C8010E941B
S1132670B55361E070E0C8010E94C1536EEB74E091
S1132680C8010E945407C7010E94CA3A029729F45C
S113269061EC74E0C8010E9454076BEC74E0C8015B
S11326A00E94540748E150E062E070E0C8010E94D3
S11326B0B55341E050E060E070E0C8010E94C753A8
S11326C06EEB74E0C8010E945407C7010E94CA3A25
S11326D0039729F461EC74E0C8010E94540763ED88
S11326E074E06AC08E010B5E1F4F48E050E062E068
S11326F070E0C8010E94B55361E0C8010E94BB5359
S113270061E070E0C8010E94C1536EEB74E0C8013F
S11327100E9454077E018EEBE80EF11CC7010E9453
S1132720CA3A029729F461EC74E0C8010E94540784
S11327306BEC74E0C8010E94540740E150E062E091
S113274070E0C8010E94B55361E070E0C8010E94C6
S1132750C1536EEB74E0C8010E945407C7010E9484
S1132760CA3A039729F461EC74E0C8010E94540743
S113277063ED74E0C8010E94540748E150E062E050
S113278070E0C8010E94B55341E050E060E070E0A1
S1132790C8010E94C7536EEB74E0C8010E9454073D
S11327A0C7010E94CA3A049729F461EC74E0C80195
S11327B00E94540762EE74E0C8010E9454078E859B
S11327C0882399F080912104909122040197909399
S11327D022048093210480911F0490912004019786
S11327E09093200480931F041E868F85882309F408
S11327F06ECD80912104909122040196909322043D
S11328008093210463CD1816190664F084E090E0E7
S1132810909322048093210483E090E09093200419
S113282080931F04809121049091220405970CF455
S113283079CD81E090E090932204809321049093D9
S1132840200480931F04DF91CF911F910F91FF907B
S1132850EF9008950F931F93CF93DF93EC01809132
S11328601D0490911E048130910529F08230910558
S113287009F473C0A2C08E010B5E1F4F48E050E004
S113288062E070E0C8010E94B55361E0C8010E9493
S1132890BB5341E050E060E070E0C8010E94C753C0
S11328A08C859D85019729F46AEE74E0C8010E9425
S11328B054076DEE74E0C8010E94540740E150E0F3
S11328C062E070E0C8010E94B55361E070E0C801A5
S11328D00E94C1538C859D85029729F46AEE74E0A9
S11328E0C8010E9454076BEF74E0C8010E945407AA
S11328F08E85882351F080911D0490911E040197C8
S113290090931E0480931D041E868F85882351F0A6
S113291080911D0490911E04019690931E0480934F
S11329201D041F868889882381F060911D0470919D
S11329301E048C859D858617970729F07D876C87F3
S11329408EEF9FE04BDB188A198A8989811102C0B6
S113295081E049C0198A80E046C08E010B5E1F4F9A
S113296048E050E062E070E0C8010E94B55361E0C5
S1132970C8010E94BB5361E070E0C8010E94C153CA
S11329808C859D85019729F46AEE74E0C8010E9444
S113299054076DEE74E0C8010E94540740E150E012
S11329A062E070E0C8010E94B55341E050E060E08D
S11329B070E0C8010E94C7538DCF1816190634F071
S11329C082E090E090931E0480931D0480911D0486
S11329D090911E0403970CF4BBCF81E090E0909398
S11329E01E0480931D04DF91CF911F910F910895D0
S11329F00F931F93CF93DF93EC0180911B0490916D
S1132A001C048230910509F494C08330910509F4C3
S1132A10C0C08130910509F006C18E010B5E1F4FC5
S1132A2048E050E062E070E0C8010E94B55361E004
S1132A30C8010E94BB5341E050E060E070E0C8016F
S1132A400E94C7538A859B85019729F46AEE74E036
S1132A50C8010E94540769E075E0C8010E94540748
S1132A6040E150E062E070E0C8010E94B55361E0CB
S1132A7070E0C8010E94C1538A859B85029729F49E
S1132A806AEE74E0C8010E94540768E175E0C80169
S1132A900E94540748E150E062E070E0C8010E94DF
S1132AA0B55361E070E0C8010E94C1538A859B85DB
S1132AB0039729F46AEE74E0C8010E94540767E2A0
S1132AC075E0C8010E9454078E85882351F08091D7
S1132AD01B0490911C04019790931C0480931B0485
S1132AE01E868F85882351F080911B0490911C04CD
S1132AF0019690931C0480931B041F868889882365
S1132B0081F060911B0470911C048A859B85861753
S1132B10970729F07B876A878FEF9FE05FDA188A2F
S1132B20198A8989811102C081E093C0198A80E0E1
S1132B3090C08E010B5E1F4F48E050E062E070E0F1
S1132B40C8010E94B55361E0C8010E94BB5361E013
S1132B5070E0C8010E94C1538A859B85019729F4BE
S1132B606AEE74E0C8010E94540769E075E0C80188
S1132B700E94540740E150E062E070E0C8010E9406
S1132B80B55341E050E060E070E0C8010E94C753D3
S1132B9073CF8E010B5E1F4F48E050E062E070E09F
S1132BA0C8010E94B55361E0C8010E94BB5361E0B3
S1132BB070E0C8010E94C1538A859B85019729F45E
S1132BC06AEE74E0C8010E94540769E075E0C80128
S1132BD00E94540740E150E062E070E0C8010E94A6
S1132BE0B55361E070E0C8010E94C1538A859B859A
S1132BF0029729F46AEE74E0C8010E94540768E160
S1132C0075E0C8010E94540748E150E062E070E0BA
S1132C10C8010E94B55341E050E060E070E0C80193
S1132C200E94C75343CF1816190634F083E090E08E
S1132C3090931C0480931B0480911B0490911C04AA
S1132C4004970CF471CF81E090E090931C0480937E
S1132C501B04DF91CF911F910F9108957F928F9262
S1132C609F92AF92BF92CF92DF92EF92FF920F9317
S1132C701F93CF93DF93EC018091190490911A0470
S1132C808130910529F08230910509F4D2C030C217
S1132C90809124138E010B5E1F4F882309F478C0A2
S1132CA080912313811134C048E050E062E070E069
S1132CB0C8010E94B55361E070E0C8010E94C1538D
S1132CC067E375E0C8010E945F07C8010E94D05302
S1132CD097FD0196BC017595679540E150E0C801E8
S1132CE00E94B55369E475E0C8010E9454078889BD
S1132CF0882321F081E080932313188A7988772030
S1132D0009F40BC210922313198A1092241307C2D8
S1132D1060E080E090E062D9C8010E94D4537C0155
S1132D20C8010E94D053A701F7FE02C04F5F5F4F56
S1132D305595479544505109BC0197FF02C06F5FF8
S1132D407F4F7595679569517109C8010E94B55304
S1132D5061E070E0C8010E94C1536DE475E0C801F0
S1132D600E945407888981110AC08989811107C08A
S1132D708E85811104C08F85882309F4CEC11092F9
S1132D802313188A198A1E861F86109224134FC093
S1132D9048E050E062E070E0C8010E94B55361E091
S1132DA0C8010E94BB5341E050E060E070E0C801FC
S1132DB00E94C75368E575E0C8010E94540740E1CA
S1132DC050E062E070E0C8010E94B55361E070E039
S1132DD0C8010E94C1536CE675E0C8010E94540703
S1132DE08E85882351F08091190490911A040197DB
S1132DF090931A04809319041E868F85882351F0BA
S1132E008091190490911A04019690931A04809366
S1132E1019041F868889882329F081E0809324136C
S1132E20188A198A8989882309F477C1198A712C27
S1132E3076C1809122139E012B5E3F4F4901882366
S1132E4009F40CC170902113711034C048E050E0B3
S1132E5062E070E0C9010E94B55361E070E0C40112
S1132E600E94C15362E875E0C4010E945F07C40177
S1132E700E94D05397FD0196BC017595679540E17A
S1132E8050E0C4010E94B55369E475E0C4010E9496
S1132E9054078889882321F081E080932113188ABC
S1132EA07988772009F439C110922113198A109274
S1132EB0221335C1C9010E94D4538C01C4010E945C
S1132EC0D053A80117FF02C04F5F5F4F5595479538
S1132ED044505109BC0197FF02C06F5F7F4F759545
S1132EE067956E517109C4010E94B55361E070E0A9
S1132EF0C4010E94C15380911F13909120138F3FEE
S1132F003FE0930708F06AC060E068D860911F133F
S1132F10709120134AE050E088EA90E10E94390859
S1132F2060911F1370912013072E000C880B990BCE
S1132F301F921F921F9224E62F93A12CB12C65019E
S1132F40EE24EA941FE0F12E00E010E020E030E0EF
S1132F50A9010E94304D6B017C0166E975E0C40152
S1132F600E945407C4010E94D453D82FC92FC4010E
S1132F700E94D0534D2F5C2F57FF02C04F5F5F4F0D
S1132F80559547954C5F5F4FBC0197FF02C06F5F3B
S1132F907F4F759567956A507109C4010E94B553B6
S1132FA061E070E0C4010E94C1534AE050E0B60100
S1132FB0C4010E94330862EA75E0C4010E94540708
S1132FC080911F1390912013019690932013809366
S1132FD01F130F900F900F900F90A1C0C4010E9477
S1132FE0D4538C01C4010E94D053A80117FF02C01E
S1132FF04F5F5F4F5595479544505109BC0197FF6A
S113300002C06F5F7F4F7595679569517109C4015F
S11330100E94B55361E070E0C4010E94C1536DE4A5
S113302075E0C4010E945407888981110AC0898906
S1133030811107C08E85811104C08F85882309F40E
S11330406CC0109221131092201310921F13188A2F
S1133050198A1E861F8610922213E9CE48E050E09A
S113306062E070E0C9010E94B55361E0C4010E94AE
S1133070BB5361E070E0C4010E94C15368E575E090
S1133080C4010E94540740E150E062E070E0C401D2
S11330900E94B55341E050E060E070E0C4010E943A
S11330A0C7536CE675E0C4010E9454078E858823DB
S11330B051F08091190490911A04019790931A0485
S11330C0809319041E868F85882351F080911904FA
S11330D090911A04019690931A04809319041F8600
S11330E08889882309F49ECE81E08093221398CEA8
S11330F01816190634F082E090E090931A04809335
S113310019048091190490911A04039734F081E012
S113311090E090931A048093190477247394872D74
S1133120DF91CF911F910F91FF90EF90DF90CF909F
S1133130BF90AF909F908F907F900895CF92DF9231
S1133140EF92FF920F931F93CF93DF938C018091A3
S11331505E11811129C0E801CF54DF4FCE010E94D6
S1133160764890935D1180935C11CE010E94724861
S113317090935B1180935A11CE010E947A489093E8
S1133180591180935811CE010E947E489093571193
S113319080935611CE010E948248909355118093DA
S11331A0541181E080935E1180911604E8016596C4
S11331B0882309F462C10E948A09C0905011D090FA
S11331C05111E0905211F09053119B01AC012C1954
S11331D03D094E095F0969017A0135EFC31631E0F3
S11331E0D306E104F10454F01092160460935011D4
S11331F070935111809352119093531180914E11F9
S113320090914F11892B61F161E0CE010E94BB5373
S113321061E070E0CE010E94C153CE010E94D05300
S113322097FD019695958795BC016F5071094CE007
S113323050E0CE010E94B55380915C1190915D11D4
S11332400A972CF461E177E0CE010E945407609163
S11332505C1170915D114AE050E0CE010E94330888
S113326061E0CE010E94BB5361E070E0CE010E9498
S1133270C153CE010E94D05397FD01969595879531
S1133280BC01635071094CE050E0CE010E94B5537B
S113329069E278E0CE010E94540780914E1190912A
S11332A04F11019761F161E0CE010E94BB5361E0CF
S11332B070E0CE010E94C153CE010E94D05397FD0D
S11332C0019695958795BC016D5F7F4F4CE050E06A
S11332D0CE010E94B55380915A1190915B110A97C7
S11332E02CF461E177E0CE010E94540760915A11F9
S11332F070915B114AE050E0CE010E943308809146
S11333004E1190914F11029761F161E0CE010E943C
S1133310BB5361E070E0CE010E94C153CE010E9414
S1133320D05397FD019695958795BC016951710914
S113333046E150E0CE010E94B5538091581190911E
S113334059110A972CF46FEB74E0CE010E945407D4
S113335060915811709159114AE050E0CE010E94D9
S1133360330861E0CE010E94BB5361E070E0CE01FE
S11333700E94C153CE010E94D05397FD01969595AA
S11333808795BC016D50710946E150E0CE010E9461
S1133390B55364EA75E0CE010E94540780914E1142
S11333A090914F11039761F161E0CE010E94BB53EC
S11333B061E070E0CE010E94C153CE010E94D0535F
S11333C097FD019695958795BC016750710946E173
S11333D050E0CE010E94B55380915611909157113F
S11333E00A972CF461E177E0CE010E9454076091C2
S11333F05611709157114AE050E0CE010E943308F3
S113340061E0CE010E94BB5361E070E0CE010E94F6
S1133410C153CE010E94D05397FD0196959587958F
S1133420BC016B5F7F4F46E150E0CE010E94B55373
S113343064EA75E0CE010E94540780914E11909188
S11334404F11049709F4D7C061E0CE010E94BB5329
S113345061E070E0CE010E94C153CE010E94D053BE
S113346097FD019695958795BC01655F7F4F46E171
S113347050E0CE010E94B553AAC00E948A09C090B0
S11334805011D0905111E0905211F09053119B01C2
S1133490AC012C193D094E095F0969017A0135EF28
S11334A0C31631E0D306E104F1045CF021E020937B
S11334B0160460935011709351118093521190939C
S11334C0531161E0CE010E94BB5361E070E0CE0174
S11334D00E94C153CE010E94D05397FD0196959549
S11334E08795BC016F5071094CE050E0CE010E94F9
S11334F0B55380915C1190915D110A972CF461E1B0
S113350077E0CE010E94540760915C1170915D11C7
S11335104AE050E0CE010E94330869E278E0CE012F
S11335200E94540780915A1190915B110A972CF4D0
S113353061E177E0CE010E94540760915A117091C5
S11335405B114AE050E0CE010E943308CE010E9494
S1133550D05397FD019695958795BC0169517109E2
S113356046E150E0CE010E94B553809158119091EC
S113357059110A972CF46FEB74E0CE010E945407A2
S113358060915811709159114AE050E0CE010E94A7
S1133590330864EA75E0CE010E9454078091561105
S11335A0909157110A972CF461E177E0CE010E94C3
S11335B0540760915611709157114AE050E0CE01C2
S11335C00E94330864EA75E0CE010E94540780919A
S11335D05411909155110A972CF461E177E0CE01D2
S11335E00E94540760915411709155114AE050E0C3
S11335F0CE010E94330880914E1190914F11823078
S1133600910509F49CC034F4009761F0019709F422
S113361059C0C8C18330910509F4FCC0049709F46A
S113362081C1C0C1F8018685882399F080915C111D
S113363090915D118731910534F4019690935D1159
S113364080935C1104C010925D1110925C11F8011A
S11336501686F8018785882389F080915C11909102
S11336605D111816190614F4019702C087E190E061
S113367090935D1180935C11F8011786F80180899D
S11336808823B1F060915C1170915D11C8018F5471
S11336909F4F0E94BE49F801108A10925E118091DA
S11336A04E1190914F11019690934F1180934E11AA
S11336B0F801C189CC2309F475C110925E11F80197
S11336C0118A5DC1F8018685882399F080915A1189
S11336D090915B118B33910534F4019690935B11B7
S11336E080935A1104C010925B1110925A11F80180
S11336F01686F8018785882389F080915A11909164
S11337005B111816190614F4019702C08BE390E0BC
S113371090935B1180935A11F8011786F801808900
S1133720882309F4EDC060915A1170915B11C801AE
S11337308F549F4F0E94B449F801108AD6C0F801F3
S11337408685882349F12091561130915711809133
S11337505811909159112230310521F48D31910580
S113376064F413C0A901417055272830310544F48D
S1133770452B41F08F31910544F081E090E006C083
S1133780452BC1F38E319105C4F7019690935911DD
S113379080935811F8011686F8018785882341F132
S11337A080915811909159118230910514F001972C
S11337B013C080915611909157118230910519F4DC
S11337C08CE190E009C09C012170332708975CF4D8
S11337D0232B59F48EE190E0909359118093581162
S11337E0F801178605C0232BA9F78FE190E0F4CFE9
S11337F0F8018089882309F483C0108A4091561106
S1133800509157116091581170915911C8018F54FA
S11338109F4F69C0F8018685882389F080915611ED
S1133820909157118C30910514F4019602C081E0F7
S113383090E09093571180935611F8011686F80181
S11338408785882389F08091561190915711823091
S1133850910514F0019702C08CE090E09093571109
S113386080935611F8011786F8018089882309F49A
S113387047C0108AE801CF54DF4F60915611709110
S11338805711CE010E94C849809158119091591145
S11338908D31910554F14091561150915711423098
S11338A0510559F48CE190E090935911809358118B
S11338B042E050E06CE170E015C04F97B4F0CA01EB
S11338C081709927483051051CF4892B71F402C08A
S11338D0892B59F08EE190E09093591180935811FF
S11338E06EE170E0CE010E94084A10925E11809150
S11338F04E1190914F11019690934F1180934E1158
S1133900F8018189882309F44DC010925E11118A4F
S113391080914E1190914F11019790934F11809384
S11339204E1140C0F8018685882351F080915411CE
S113393090915511019690935511809354111686C8
S1133940F8018785882351F0809154119091551185
S1133950019790935511809354111786F801C089EB
S1133960CC2391F06091541170915511C8018F547A
S11339709F4F0E94D54910925E11F801108A10924F
S11339804F1110924E110FC0F8018189882351F014
S113399010925E11118A83E090E090934F1180930E
S11339A04E1101C0C0E08C2FDF91CF911F910F9178
S11339B0FF90EF90DF90CF900895FF920F931F93A5
S11339C0CF93DF93EC0180912504909126048530F8
S11339D0910509F4BAC394F48230910509F4AEC098
S11339E024F481309105E9F031C48330910509F460
S11339F09AC18430910509F4C6C228C48F31910557
S1133A0009F4B9C22CF48531910509F484C11EC4AA
S1133A108932910509F491C38333910509F40AC4E9
S1133A2015C4F0902513FF2049F0CE0187DBF82E52
S1133A30882309F42AC41092251329C448E050E0CD
S1133A4062E070E08E010B5E1F4FC8010E94B55307
S1133A5061E0C8010E94BB5341E050E060E070E0C7
S1133A60C8010E94C75366EA75E0C8010E94540762
S1133A7040E150E062E070E0C8010E94B55361E0AB
S1133A8070E0C8010E94C15369EB75E0C8010E944F
S1133A90540748E150E063E070E0C8010E94B55368
S1133AA061E070E0C8010E94C1536BEC75E0C8018D
S1133AB00E9454078E85882399F080912504909163
S1133AC0260401979093260480932504809123046F
S1133AD090912404019790932404809323041E86D8
S1133AE08F85882399F0809125049091260401966E
S1133AF090932604809325048091230490912404B8
S1133B00019690932404809323041F868889882334
S1133B1029F081E080932513188A198A89898823DA
S1133B2009F4B3C3198A81E090E09093260480934A
S1133B3025049093240480932304A9C3809123042F
S1133B4090912404019709F070C048E050E062E0CD
S1133B5070E08E010B5E1F4FC8010E94B55361E0F7
S1133B60C8010E94BB5341E050E060E070E0C8012E
S1133B700E94C75369EB75E0C8010E94540740E1F5
S1133B8050E062E070E0C8010E94B55361E070E06B
S1133B90C8010E94C1536BEC75E0C8010E94540730
S1133BA048E150E063E070E0C8010E94B55361E071
S1133BB070E0C8010E94C15360EE75E0C8010E9424
S1133BC054078E85882351F0809125049091260412
S1133BD0019790932604809325041E868F8588235D
S1133BE099F08091250490912604019690932604DF
S1133BF0809325048091230490912404019690934A
S1133C002404809323041F868889882341F085E156
S1133C1090E09093260480932504188A198A898950
S1133C20882319F0198AF12C32C3809123049091CE
S1133C302404029709F029C348E050E062E070E0F0
S1133C408E010B5E1F4FC8010E94B55361E0C8018D
S1133C500E94BB5361E070E0C8010E94C15366EA50
S1133C6075E0C8010E94540740E150E062E070E052
S1133C70C8010E94B55341E050E060E070E0C80123
S1133C800E94C75369EB75E0C8010E94540748E1DC
S1133C9050E063E070E0C8010E94B55361E070E059
S1133CA0C8010E94C1536BEC75E0C8010E9454071F
S1133CB08E85882399F0809125049091260401979C
S1133CC090932604809325048091230490912404E6
S1133CD0019790932404809323041E868F85882360
S1133CE099F08091250490912604019690932604DE
S1133CF08093250480912304909124040196909349
S1133D002404809323041F868889882309F48EC29F
S1133D1085E190E085C2CE010E94F8148111B5C2FC
S1133D2082E090E08EC2809123049091240481303B
S1133D30910509F04AC048E050E062E070E08E016D
S1133D400B5E1F4FC8010E94B55361E0C8010E9479
S1133D50BB5341E050E060E070E0C8010E94C753EB
S1133D606BEC75E0C8010E94540740E150E062E04A
S1133D7070E0C8010E94B55361E070E0C8010E9480
S1133D80C15360EE75E0C8010E94540748E150E059
S1133D9062E070E0C8010E94B55361E070E0C801C0
S1133DA00E94C15360EF75E0C8010E9454078E85DC
S1133DB0882309F460C0809125049091260401971A
S1133DC0909326048093250455C08230910509F010
S1133DD069C048E050E062E070E08E010B5E1F4F66
S1133DE0C8010E94B55361E0C8010E94BB5361E061
S1133DF070E0C8010E94C15369EB75E0C8010E94DC
S1133E00540740E150E062E070E0C8010E94B553FD
S1133E1041E050E060E070E0C8010E94C7536BECE1
S1133E2075E0C8010E94540748E150E062E070E088
S1133E30C8010E94B55361E070E0C8010E94C153FB
S1133E4060EE75E0C8010E9454078E85882399F0BE
S1133E5080912504909126040197909326048093E1
S1133E6025048091230490912404019790932404C1
S1133E70809323041E868F85882309F475C080915E
S1133E80250490912604019690932604809325049A
S1133E9080912304909124040196909324048093A8
S1133EA0230461C0039709F0F0C148E050E062E0E8
S1133EB070E08E010B5E1F4FC8010E94B55361E094
S1133EC0C8010E94BB5361E070E0C8010E94C15365
S1133ED066EA75E0C8010E94540740E150E062E0E0
S1133EE070E0C8010E94B55361E070E0C8010E940F
S1133EF0C15369EB75E0C8010E94540748E150E0E2
S1133F0062E070E0C8010E94B55341E050E060E017
S1133F1070E0C8010E94C7536BEC75E0C8010E94B1
S1133F2054078E85882399F0809125049091260466
S1133F300197909326048093250480912304909103
S1133F402404019790932404809323041E868F8570
S1133F50882351F080912504909126040196909332
S1133F602604809325041F868889882309F45EC16A
S1133F708FE190E055C1CE010E942E16811185C1BA
S1133F8083E090E05EC18091230490912404823008
S1133F90910509F069C048E050E062E070E08E01EC
S1133FA00B5E1F4FC8010E94B55361E0C8010E9417
S1133FB0BB5361E070E0C8010E94C1536BEC75E033
S1133FC0C8010E94540740E150E062E070E0C8017B
S1133FD00E94B55341E050E060E070E0C8010E94E7
S1133FE0C75360EE75E0C8010E94540748E150E0F1
S1133FF062E070E0C8010E94B55361E070E0C8015E
S11340000E94C15360EF75E0C8010E9454078E8579
S1134010882399F080912504909126040197909328
S1134020260480932504809123049091240401970D
S113403090932404809323041E868F85882309F497
S113404075C08091250490912604019690932604CE
S113405080932504809123049091240401969093E5
S113406024048093230461C0039709F00EC148E03F
S113407050E062E070E08E010B5E1F4FC8010E94A9
S1134080B55361E0C8010E94BB5361E070E0C80110
S11340900E94C15369EB75E0C8010E94540740E1D6
S11340A050E062E070E0C8010E94B55361E070E046
S11340B0C8010E94C1536BEC75E0C8010E9454070B
S11340C048E150E062E070E0C8010E94B55341E06D
S11340D050E060E070E0C8010E94C75360EE75E0F4
S11340E0C8010E9454078E85882399F08091250485
S11340F0909126040197909326048093250480913F
S1134100230490912404019790932404809323041E
S11341101E868F85882351F0809125049091260472
S1134120019690932604809325041F86888988230A
S113413009F47CC089E290E073C0CE010E942A1485
S11341408111A3C084E090E07CC08091230490910D
S11341502404039709F099C048E050E062E070E05D
S11341608E010B5E1F4FC8010E94B55361E0C80168
S11341700E94BB5361E070E0C8010E94C1536BEC24
S113418075E0C8010E94540740E150E062E070E02D
S1134190C8010E94B55361E070E0C8010E94C15398
S11341A060EE75E0C8010E94540748E150E062E007
S11341B070E0C8010E94B55341E050E060E070E057
S11341C0C8010E94C75360EF75E0C8010E945407FC
S11341D08E85882399F08091250490912604019777
S11341E090932604809325048091230490912404C1
S11341F0019790932404809323041E868F8588233B
S113420051F0809125049091260401969093260400
S1134210809325041F868889882341F083E390E0F6
S11342209093260480932504188A198A8989811118
S1134230F9CC2BC0CE010E94BA10811126C085E0B2
S113424090E090932604809325041FC01816190645
S113425064F085E090E0909326048093250483E045
S113426090E09093240480932304809125049091FA
S11342702604069754F081E090E0909326048093FE
S113428025049093240480932304FF24F3948F2D16
S1134290DF91CF911F910F91FF900895FC018485C8
S11342A095850895BF92CF92DF92EF92FF920F937C
S11342B01F93CF93DF93CDB7DEB76B01EC96BFAC02
S11342C0EC97E596EEACFFACE5978C010B5E1F4FC7
S11342D083E0440F551F8A95E1F762E070E0C8015E
S11342E00E94B553BB2041F041E050E060E070E033
S11342F0C8010E94C75305C061E070E0C8010E9474
S1134300C1534AE050E0B601C8010E94330860E09E
S113431077E0C8010E945407E7966EAD7FADE7973A
S11343204AE050E0C8010E94330864EA75E0C8011D
S11343300E945407E9966EAD7FADE9974AE050E0DC
S1134340C8010E94330864EA75E0C8010E9454075A
S1134350EB966EAD7FADEB974AE050E0C8010E944A
S113436033086FEB74E0C8010E945407E3966EAD06
S11343707FADE3974AE050E0C8010E94330869E248
S113438078E0C8010E9454078AE0E816F1042CF48E
S113439061E177E0C8010E9454074AE050E0B701A8
S11343A0C801DF91CF911F910F91FF90EF90DF90A3
S11343B0CF90BF900C9433088F929F92AF92BF928C
S11343C0CF92DF92EF92FF920F931F93CF93DF93DD
S11343D04C018091711381110AC0C4010E944110E3
S11343E0909346138093451381E0809371138091D9
S11343F06913811126C06091451370914613072EED
S1134400000C880B990B1F921F921F922CE02F9384
S1134410A12CB12C6501A39414E6E12EF12C00E04B
S113442010E020E030E0A9010E94304D7093441365
S11344306093431381E0809369130F900F900F9062
S11344400F9080916113811110C0C40182549F4F59
S11344500E94B93A60933F137093401380934113C1
S11344609093421381E0809361130E948A096093C0
S11344703B1370933C1380933D1390933E13009130
S11344803713109138132091391330913A136B017B
S11344907C01C01AD10AE20AF30A970186010333A8
S11344A0110521053105DCF160933713709338133E
S11344B08093391390933A13C4010E9441102091C0
S11344C04513309146132436310519F4833691058A
S11344D021F0909346138093451360914513709196
S11344E04613072E000C880B990B1F921F921F92E4
S11344F02CE02F93A12CB12C650114E6E12EF12CB4
S113450000E010E020E030E0A9010E94304D7093FB
S11345104413609343130F900F900F900F9080916A
S11345203B1390913C13A0913D13B0913E134091E5
S11345303313509134136091351370913613841BE7
S1134540950BA60BB70B8B3F9105A105B1056CF13B
S1134550C40182549F4F0E94B93A60933F137093F1
S1134560401380934113909342138091311390919F
S113457032130E94186160E0C4018F549F4F0E945F
S11345808648909332138093311380913B1390911A
S11345903C13A0913D13B0913E1380933313909339
S11345A03413A0933513B0933613E4016596CE010A
S11345B00E94D05320914313309144130197BC01BE
S11345C0621B730BEE24E394F12C04E010E042E050
S11345D050E0CE010E94C44E809145139091461341
S11345E08A3091053CF4CE010E94D053BC016C5139
S11345F0710910C08436910539F0CE010E94D05360
S1134600BC016252710906C0CE010E94D053BC01A4
S11346106852710940E050E0CE010E94B55361E058
S1134620CE010E94BB5361E070E0CE010E94C153F1
S113463060914513709146134AE050E0CE010E9408
S1134640330862EA75E0CE010E94540761E0CE01AE
S11346500E94BB5361E070E0CE010E94C153CE01C1
S11346600E94D05397FD019695958795BC016F5094
S1134670710940E050E0CE010E94B55360913113BE
S113468070913213CE010E945407CE010E94D05380
S1134690BC0160517109CC24C394D12C48E0E42EB0
S11346A0F12C00E110E026E532E040E050E0CE01DC
S11346B00E942950F4018489882359F008E010E00D
S11346C02EE432E040E050E060E070E0CE010E9471
S11346D0295040E050E06DE070E0CE010E94B553F7
S11346E061E0CE010E94BB5361E070E0CE010E9404
S11346F0C15360913F137091401380914113909185
S113470042130E949C5D4AE050E0CE010E943308AF
S113471067EFCE010E94E15260E076E0CE01DF91C6
S1134720CF911F910F91FF90EF90DF90CF90BF90AA
S1134730AF909F908F900C945407EF92FF920F9339
S11347401F93CF93DF93EC018B89882309F4CFC0A7
S11347508A89659681113CC0CE010E94D0539C0188
S113476028523109E12CF12C0CE010E04CE050E02F
S113477064E170E0CE010E94C44ECE010E94D05389
S11347809C0128523109EE24E394F12C4CE050E0D2
S113479064E170E0CE010E94934FCE010E94D05399
S11347A097FD019695958795BC01645271094EE079
S11347B050E0CE010E94B55361E070E0CE010E944A
S11347C0C15361E0CE010E94BB5362E076E086C033
S11347D0CE010E94D0539C0128523109E12CF12CC6
S11347E00CE010E04CE050E064E170E0CE010E9487
S11347F0C44ECE010E94D0539C0128523109EE24AC
S1134800E394F12C4CE050E064E170E0CE010E94AE
S1134810934FCE010E94D05397FD019695958795AD
S1134820BC01645271094EE050E0CE010E94B553C0
S113483061E070E0CE010E94C15361E0CE010E94AC
S1134840BB5360E176E0CE010E945407CE010E9482
S1134850D4538C01CE010E94D053A8014A5051096F
S1134860BC0163517109E12CF12C0AE010E02EE047
S113487030E0CE010E94C44ECE010E94D4538C017C
S1134880CE010E94D053A8014A505109BC01635182
S11348907109EE24E394F12C0AE010E02EE030E0FC
S11348A0CE010E94934FCE010E94D4538C01CE01BD
S11348B00E94D053A80149505109BC0161517109AA
S11348C0CE010E94B55361E070E0CE010E94C15355
S11348D061E0CE010E94BB536BE176E0CE01DF9133
S11348E0CF911F910F91FF90EF900C945407DF919B
S11348F0CF911F910F91FF90EF900895CF92DF9287
S1134900EF92FF920F931F93CF93DF936B01EC0110
S11349106596CE010E94D0539C0128523109E12CA6
S1134920F12C0CE010E04CE050E064E170E0CE01CA
S11349300E94C44ECE010E94D0539C0128523109DA
S1134940EE24E394F12C4CE050E064E170E0CE01FD
S11349500E94934FF60101900020E9F731978F01EF
S11349600C191D09CE010E94D05346E0409F9001CE
S1134970419F300D112488972817390748F5CE0137
S11349800E94D053F60101900020E9F73197EC1909
S1134990FD0997FD01969595879546E04E9F9001F8
S11349A04F9F300D112436952795BC01621B730B64
S11349B04EE050E0CE010E94B55361E070E0CE01BC
S11349C00E94C15361E0CE010E94BB53B6011AC0DC
S11349D0CE010E94D05397FD019695958795BC0111
S11349E0655171094EE050E0CE010E94B55361E07B
S11349F070E0CE010E94C15361E0CE010E94BB531E
S1134A006EE176E0CE01DF91CF911F910F91FF907F
S1134A10EF90DF90CF900C945407EF92FF920F9396
S1134A201F93CF93DF938C017C018EEBE80EF11C76
S1134A30E8016596C7010E943E35811128C066E2EF
S1134A4076E0C8015BDFCE010E946A0F64E376E082
S1134A5088EA90E10E94540764EF71E080E090E0FE
S1134A600E94BB096EE177E0CE010E945407CE019B
S1134A700E946A0F6EE177E088EA90E10E94540791
S1134A8064EF71E080E090E00E94BB09D3CFDF9136
S1134A90CF911F910F91FF90EF900895AF92BF9225
S1134AA0CF92DF92EF92FF920F931F93CF93DF93F6
S1134AB0EC018C010B5E1F4F6FEFC8010E94C30D08
S1134AC07E0181EBE80EF11CC7010E941C486E01B7
S1134AD0EEEBCE0ED11CC6010E9438356CE376E0B5
S1134AE088EA90E10E945F0721E04CE362E0C8019C
S1134AF00E94550E63E676E088EA90E10E945F0723
S1134B00C8010E94DC0DC8010E946A0FC8010E94FE
S1134B10D4535C01C8010E94D053A501B7FE02C062
S1134B204F5F5F4F5595479545505109BC0197FF1D
S1134B3002C06F5F7F4F7595679562517109C80117
S1134B400E94B55361E070E0C8010E94C15362E065
S1134B50C8010E94BB5369E776E0C8010E9454076C
S1134B6061E0C8010E94BB5340E050E061E070E0A6
S1134B70C8010E94B5536DE776E0C8010E9454074E
S1134B80C8010E946A0F68EE73E080E090E00E9422
S1134B90BB096CE876E088EA90E10E9454074AE099
S1134BA050E06EE670E088EA90E10E94DE0765EA74
S1134BB076E088EA90E10E9454074AE050E060E021
S1134BC070E188EA90E10E94DE078FEF9FE00E9487
S1134BD0EC0F8150833008F0ABC08FEF9FE00E9450
S1134BE0EC0F90E09B878A878EEF9FE00E94EC0F8A
S1134BF08150823008F0A2C08EEF9FE00E94EC0F3B
S1134C0090E09D878C8768EB76E088EA90E10E94CB
S1134C1054078FEF9FE00E94EC0F4AE050E0682FAA
S1134C2088EA90E10E94C90763ED76E088EA90E1A2
S1134C300E9454078EEF9FE00E94EC0F4AE050E080
S1134C40682F88EA90E10E94C90761EF76E088EA5C
S1134C5090E10E9454078CE694E10E945D4A4AE088
S1134C6050E0BC0188EA90E10E9433088CE694E1AC
S1134C700E94654A4AE050E0BC0188EA90E10E9443
S1134C8039086DEF76E088EA90E10E945407CE017E
S1134C90C4DE87E190E09983888389E190E09B8377
S1134CA08A8388E190E09D838C8386E190E09F83F2
S1134CB08E8385E490E09987888760E087E10E948D
S1134CC09E4C60E08A810E949E4C60E08C810E9430
S1134CD09E4C60E08E810E949E4C1E861F86188A20
S1134CE0198A81E08C8B1A8A1B8ACD5BDF4F8EE692
S1134CF0FE0111928A95E9F763E077E088EA90E192
S1134D000E9454076DE077E088EA90E10E945F0713
S1134D10C7010E942548C601DF91CF911F910F91D1
S1134D20FF90EF90DF90CF90BF90AF900C94BE3582
S1134D3061E08FEF9FE00E94EE0F4FCF61E08EEFB6
S1134D409FE00E94EE0F58CFCF93DF93EC0165DE16
S1134D5080912F04882341F063E177E088EA90E1B1
S1134D600E945F0710922F0488810E94084D892BAE
S1134D7081F48A810E94084D892B59F48C810E9408
S1134D80084D892B31F48E810E94084D892B09F43A
S1134D9048C088810E94084D892B59F088810E945F
S1134DA0084D20914713309148138217930709F057
S1134DB03FC08A810E94084D892B59F08A810E9444
S1134DC0084D20914713309148138217930709F037
S1134DD049C08C810E94084D892B59F08C810E9416
S1134DE0084D20914713309148138217930709F017
S1134DF053C08E810E94084D892B59F08E810E94E8
S1134E00084D20914713309148138217930709F0F6
S1134E105DC06AE070E080E090E0DF91CF910C9497
S1134E20BB091092481310924713DF91CF91089554
S1134E3088810E94084D909348138093471360E241
S1134E4077E088EA90E10E94540788810E94084D27
S1134E504AE050E0BC0188EA90E10E94390881E010
S1134E608E87A7CF8A810E94084D90934813809320
S1134E70471364E277E088EA90E10E9454078A814C
S1134E800E94084D4AE050E0BC0188EA90E10E948B
S1134E90390881E08F879DCF8C810E94084D9093C3
S1134EA04813809347136AE277E088EA90E10E940E
S1134EB054078C810E94084D4AE050E0BC0188EA06
S1134EC090E10E94390881E0888B93CF8E810E9403
S1134ED0084D90934813809347136FE277E088EA74
S1134EE090E10E9454078E810E94084D4AE050E0F0
S1134EF0BC0188EA90E10E94390881E0898B89CF5E
S1134F00FF920F931F93CF93DF93EC01062F8091B1
S1134F10591381110DC00E948A0960932D13709357
S1134F202E1380932F139093301381E080935913A1
S1134F308A859B858230910509F46FC08330910581
S1134F4009F4B5C0019709F0A7C01B89111109C064
S1134F50002309F4ADC081E08B8B1A89111112C0B2
S1134F609FC0FA88002381F01F2DFF2009F498C008
S1134F700E948A0960932D1370932E1380932F132C
S1134F80909330131A8A94C0F1102DC00E948A099C
S1134F906093291370932A1380932B1390932C13EB
S1134FA08EEB94E10E94E304181619060CF478C001
S1134FB08091291390912A13A0912B13B0912C1353
S1134FC040912D1350912E1360912F137091301333
S1134FD0841B950BA60BB70B8B3F9105A105B1055F
S1134FE00CF068C05DC0CE01AFDE8889811103C0BA
S1134FF08989882339F01A8A1B8A188A198A1E8695
S11350001F8655C08E85811104C08F85882309F4BD
S113501047C01E861F861F2D4BC01B89111110C04F
S1135020002309F445C081E08B8B0E948A096093B8
S11350302D1370932E1380932F139093301330C03D
S113504001111FC00E948A096093291370932A13C7
S113505080932B1390932C1300912D1310912E13E6
S113506020912F1330913013DC01CB01801B910B65
S1135070A20BB30B813D9740A105B105BCF01B8A7F
S113508016C00E948A0960932D1370932E13809387
S11350902F13909330130CC0002321F081E08B8BED
S11350A011E006C01B891111EACF02C006C010E04E
S11350B0812F03C081E08A8BFBCFDF91CF911F91B9
S11350C00F91FF900895AF92BF92CF92DF92EF922B
S11350D0FF920F931F93CF93DF93CDB7DEB7CE56D6
S11350E0D1090FB6F894DEBF0FBECDBF7C018B0192
S11350F080E090E00E94EC0F90E0801791070CF4A0
S113510052C017FD50C065E677E0C701F7DBC70161
S113511053D9C70145960E946A0F8EE6809F70019D
S1135120819FF00C11248FEFE81AF80A80E090E0D8
S11351300E94EC0F282F30E002171307E4F5570103
S11351409EE6A90EB11C05321105ACF568019FEF6E
S1135150C91AD90ABE016F5F7F4FC5010E94F00FC3
S1135160BE016F5F7F4FC7010E94161066EE77E0A5
S113517088EA90E10E9454074AE050E0B80188EAC6
S113518090E10E94330861EF77E088EA90E10E94A1
S113519054074AE050E0B60188EA90E10E943908D9
S11351A075018601C3CF62E777E088EA90E10E9447
S11351B05F0780E037C02632310544F59EE6899FBB
S11351C0800111240F5F1F4F8EE6F82E80E090E0DF
S11351D00E94EC0F282F30E02F5F3F4FF29EA0017A
S11351E0F39E500D11244017510768F060E0C80188
S11351F00E94EE0F63E377E088EA90E10E945F0784
S11352000F5F1F4FE3CF6FEF680F01C064E280E0D0
S113521090E00E94EE0F6CE477E088EA90E10E944F
S11352205F0781E0C259DF4F0FB6F894DEBF0FBEAF
S1135230CDBFDF91CF911F910F91FF90EF90DF9041
S1135240CF90BF90AF9008958F929F92AF92BF92EC
S1135250CF92DF92EF92FF920F931F93CF93DF933E
S1135260EC014B0180E090E00E94EC0F98E0899FF4
S1135270B001112480E699E00E94DB5F072E000C48
S1135280880B990B1F921F921F921F92B7E1AB2EAE
S1135290B12CC12CD12C14E6E12EF12C00E010E04D
S11352A021E030E040E050E00E94304D8B0180E08E
S11352B090E00E94EC0F282F30E0B9016150710991
S11352C0C8010E94DB5F7B010F900F900F900F903D
S11352D0672B19F4EE24E394F12C6596CE010E9419
S11352E0D4538C0180E090E00E94EC0F90E0940194
S11352F02F5F3F4F821B930B8E9D90018F9D300D2E
S11353009E9D300D112437FF02C02F5F3F4F35950E
S1135310279501501109021B130BCE010E94D05393
S11353206C01CE010E94D053960121503109E89CB2
S1135330A001E99C500DF89C500D112457FF02C0A8
S11353404F5F5F4F55954795485F5F4FBC01615074
S11353507109EE24E394F12CCE010E94264FDF91D3
S1135360CF911F910F91FF90EF90DF90CF90BF905E
S1135370AF909F908F900895AF92BF92CF92DF929B
S1135380EF92FF920F931F93CF93DF93EC018091E1
S11353904913811109C084E290E090931E13809315
S11353A01D1381E08093491380E090E00E94EC0F8C
S11353B0882309F4AAC480911B1390911C130091B3
S11353C01D1310911E130817190734F4801B910B39
S11353D090931C1380931B1380911A13882309F450
S11353E0E7C180911913811118C020911B133091CA
S11353F01C134EE6429FC001439F900D11246BEA9B
S113540072E101960E94F00F81E08093191368E124
S113541078E088EA90E10E945F076E0185E1C80E9A
S1135420D11C48E050E069E170E0C6010E94B55328
S113543061E070E0C6010E94C15360911313709142
S113544014134AE050E0C6010E94330864EA75E090
S1135450C6010E94540760911513709116134AE017
S113546050E0C6010E94330864EA75E0C6010E9458
S1135470540760911713709118134AE050E0C60165
S11354800E9433086EEB74E0C6010E9454076091D9
S11354900F13709110134AE050E0C6010E943308C4
S11354A069E278E0C6010E9454078091111390913B
S11354B012130A972CF461E177E0C6010E945407A5
S11354C060911113709112134AE050E0C6010E94DA
S11354D0330840E150E062E070E0C6010E94B55339
S11354E06DE578E0C6010E94540720E030E0A90190
S11354F06091AF127091B0128091B1129091B2127A
S11355000E94DD5E87FD05C06FEB74E0C6010E945A
S113551054074091AF125091B0126091B112709142
S1135520B21222E030E0C6010E942F0948E150E0A7
S113553062E070E0C6010E94B55368E278E0C601FB
S11355400E94540720E030E0A9016091B3127091E9
S1135550B4128091B5129091B6120E94DD5E87FD5F
S113556005C06FEB74E0C6010E9454074091B3126A
S11355705091B4126091B5127091B61222E030E0ED
S1135580C6010E942F09C6010E94D053BC016A5271
S1135590710944E150E0C6010E94B5536091AB1219
S11355A07091AC128091AD129091AE1228EE33E05E
S11355B040E050E00E94EE5FBA01A9012AE030E029
S11355C0C6010E94B70767E578E0C6010E94540748
S11355D08091AA12882309F466C0C6010E94D053A0
S11355E09C0128523109E12CF12C0CE010E04CE034
S11355F050E064E170E0C6010E94C44EC6010E94FE
S1135600D0539C0128523109EE24E394F12C4CE050
S113561050E064E170E0C6010E94934FC6010E940D
S1135620D05397FD019695958795BC0164527109F5
S11356304EE050E0C6010E94B55361E070E0C6013F
S11356400E94C15361E0C6010E94BB536BE278E043
S1135650C6010E9454078E8581111E868F85811193
S11356601F8688898823C9F060911B1370911C13CD
S1135670CE0129DD10921A13109219131092AA1256
S1135680188A10921C1310921B1381E090E09093DF
S11356901804809317048E878F878989882319F0CB
S11356A01092AA12198A8889882321F081E08093B4
S11356B0AA12188A8E85882309F440C080911B138E
S11356C090911C13009771F0019790931C13809391
S11356D01B1380911704909118048130910559F19E
S11356E0019725C080E090E00E94EC0F823018F111
S11356F090E0019720911D1330911E13281739074C
S11357002CF430931C1320931B1304C090931C138C
S113571080931B1380E090E00E94EC0F833018F01C
S113572083E090E004C0823031F482E090E0909312
S1135730180480931704109219131E868F858823EA
S113574069F180E090E00E94EC0F20911B133091EE
S11357501C13482F50E0415051094217530709F4D4
S1135760F7C240911D1350911E132417350709F4F5
S1135770EFC22F5F3F4F30931C1320931B13809174
S11357801704909118048330910529F001969093A1
S1135790180480931704109219131F86898988238B
S11357A029F01092191310921A13198AD12C80C35C
S11357B08091170490911804019709F0B2C0809168
S11357C0A912811135C0C0901B13D0901C138EE612
S11357D08C9D70018D9DF00C11246BE372E1C70167
S11357E001960E94F00F56019FEFA91AB90A80E0B2
S11357F090E00E94EC0F90E0A816B906B4F4C0162D
S1135800D1069CF46DEC71E1C70181599F4F0E9450
S1135810F00F80E090E00E94EC0F92E0C90ED11CE2
S113582090E0C816D9060CF49DC281E08093A912B9
S113583060911B1370911C136F5F7F4F81E08F93F6
S11358408DB79EB78E5691090FB6F8949EBF0FBEC2
S11358508DBFADB7BEB711968EE6EBE3F2E10190D2
S11358600D928A95E1F741E050E0CE010E94522169
S113587000911B1310911C138DB79EB781599F4F34
S11358800FB6F8949EBF0FBE8DBF80E090E00E94DB
S1135890EC0F98012F5F3F4F90E0281739070CF069
S11358A040C080911D1390911E1308171907CCF561
S11358B040911704509118044F5F5F4FB8016E5F19
S11358C07F4F1F928DB79EB78E5691090FB6F894ED
S11358D09EBF0FBE8DBFADB7BEB711968EE6EDEC81
S11358E0F1E101900D928A95E1F7CE010E945221D7
S11358F000911B1310911C138DB79EB781599F4FB4
S11359000FB6F8949EBF0FBE8DBF80E090E00E945A
S1135910EC0F98012E5F3F4F90E0281739070CF4E5
S11359202DC28091170490911804029709F095C034
S113593080E090E00E94EC0F823008F453C20091A2
S11359401B1310911C130115110509F44BC280910E
S1135950A912811124C0C80101972EE6289F700165
S1135960299FF00C11246BE372E1C70101960E9498
S1135970F00F6DEC71E1C70181599F4F0E94F00F48
S113598080E090E00E94EC0F90E098012F5F3F4F81
S1135990281739070CF42DC281E08093A9121F92B5
S11359A08DB79EB78E5691090FB6F8949EBF0FBE61
S11359B08DBFADB7BEB711968EE6EBE3F2E1019071
S11359C00D928A95E1F741E050E0B801CE010E94C2
S11359D052218DB79EB781599F4F0FB6F8949EBF41
S11359E00FBE8DBF409117045091180460911B1392
S11359F070911C136F5F7F4F81E08F938DB79EB7BB
S1135A008E5691090FB6F8949EBF0FBE8DBFADB7E9
S1135A10BEB711968EE6EDECF1E101900D928A95F8
S1135A20E1F7CE010E94522100911B1310911C1327
S1135A308DB79EB781599F4F0FB6F8949EBF0FBE86
S1135A408DBF80E090E00E94EC0F98012F5F3F4FE4
S1135A5090E0281739070CF4D4C180911704909171
S1135A601804039709F0ACC080E090E00E94EC0FAA
S1135A70833008F400C200911B1310911C130230F0
S1135A80110508F4F8C18091A91281111FC0C80141
S1135A9002972EE6289F7001299FF00C11246BE3D6
S1135AA072E1C70101960E94F00F6DEC71E1C7012C
S1135AB081599F4F0E94F00F6FE571E1C701835236
S1135AC09F4F0E94F00F81E08093A912B8016150AA
S1135AD071091F928DB79EB78E5691090FB6F8942F
S1135AE09EBF0FBE8DBFADB7BEB711968EE6EBE37A
S1135AF0F2E101900D928A95E1F741E050E0CE0188
S1135B000E9452218DB79EB781599F4F0FB6F894CA
S1135B109EBF0FBE8DBF4091170450911804415091
S1135B20510960911B1370911C131F928DB79EB77E
S1135B308E5691090FB6F8949EBF0FBE8DBFADB7B8
S1135B40BEB711968EE6EDECF1E101900D928A95C7
S1135B50E1F7CE010E9452218DB79EB781599F4F24
S1135B600FB6F8949EBF0FBE8DBF4091170450919D
S1135B70180460911B1370911C136F5F7F4F81E0B9
S1135B808F938DB79EB78E5691090FB6F8949EBF2A
S1135B900FBE8DBFADB7BEB711968EE6EFE5F1E14E
S1135BA001900D928A95E1F7CE010E9452218DB7A2
S1135BB09EB781599F4F0FB6F8949EBF0FBE8DBFFD
S1135BC08E85882309F446C0209117043091180467
S1135BD080911B1390911C132130310569F50097B6
S1135BE031F0019790931C1380931B1330C080E015
S1135BF090E00E94EC0F823050F190E001972091E8
S1135C001D1330911E13281739072CF430931C13DD
S1135C1020931B1304C090931C1380931B13809137
S1135C201B1390911C13029794F083E090E09093DF
S1135C301804809317040BC0019790931C1380934E
S1135C401B13215031093093180420931704109228
S1135C50A9121E868F858823C1F100911704109123
S1135C601804C0901B13D0901C1380E090E0033004
S1135C70110579F40E94EC0F90E001978C159D05B5
S1135C80B9F080911D1390911E13C816D90684F49F
S1135C90F9C00E94EC0F90E001978C159D0541F02E
S1135CA080911D1390911E13C816D90609F0F2C0F5
S1135CB010921C1310921B1381E090E0909318042F
S1135CC0809317041092A9121F868889882331F0C3
S1135CD081E080931A131092A912188AD988DD20C2
S1135CE069F010921C1310921B1381E090E09093C2
