:1000000043C4000072C4000070C400006EC400004D
:100010006CC400006AC4000068C4000066C400002C
:1000200064C4000062C4000060C400005EC400003C
:100030005CC400005AC4000058C4000056C400004C
:1000400054C4000052C4000050C400004EC400005C
:100050004CC400004AC4000048C400000C944C3456
:1000600044C400000C944C330C9423333EC4000071
:100070003CC400003AC4000038C4000036C400008C
:1000800034C4000032C4000030C400002EC400009C
:100090000C94FA320C94D13228C400000C94112B29
:1000A00024C4000022C4000020C400001EC40000BC
:1000B0001CC400001AC4000018C4000016C40000CC
:1000C00014C4000012C4000010C400000EC40000DC
:1000D0000CC400000AC4000008C4000006C40000EC
:1000E00004C400006F327232613265326B32A93261
:1000F00076327A328032843288328E32923296323E
:10010000A9329C32A032A432084AD73B3BCE016EC2
:1001100084BCBFFDC12F3D6C74319ABD56833DDA5E
:100120003D00C77F11BED9E4BB4C3E916BAAAABE6D
:10013000000000803F05A84CCDB2D44EB93836A996
:10014000020C50B9918688083CA6AAAA2ABE0000D3
:1001500000803F0000407A10F35A00A0724E180948
:100160000010A5D4E80000E87648170000E40B541E
:10017000020000CA9A3B000000E1F50500008096ED
:100180009800000040420F000000A086010000001F
:10019000102700000000E8030000000064000000D9
:1001A00000000A00000000000100000000002C76A2
:1001B000D888DC674F0823DFC1DFAE59E1B1B796BD
:1001C000E5E3E453C63AE651997696E8E6C284261A
:1001D000EB898C9B62ED407C6FFCEFBC9C9F40F2F6
:1001E000BAA56FA5F490055A2AF75C936B6CF96772
:1001F0006DC11BFCE0E40D47FEF520E6B500D0ED37
:10020000902E0300943577050080841E080000209E
:100210004E0A000000C80C333333330F986E12833C
:100220001141EF8D2114893BE65516CFFEE6DB1810
:10023000D1844B381BF77C1D901DA4BBE4242032D5
:1002400084725E228100C9F124ECA1E53D270018EB
:1002500054321C32541800003FFF2001E001E0013D
:1002600020013FFF000000000000003E5B4F5B3EAE
:100270003E6B4F6B3E1C3E7C3E1C183C7E3C181C6B
:10028000577D571C1C5E7F5E1C00183C1800FFE762
:10029000C3E7FF0018241800FFE7DBE7FF30483A08
:1002A000060E2629792926407F050507407F05256A
:1002B0003F5A3CE73C5A7F3E1C1C08081C1C3E7FF2
:1002C00014227F22145F5F005F5F06097F017F00B9
:1002D0006689956A606060606094A2FFA2940804D9
:1002E0007E040810207E201008082A1C08081C2AFA
:1002F00008081E101010100C1E0C1E0C30383E3852
:1003000030060E3E0E06000000000000005F0000F8
:100310000007000700147F147F14242A7F2A122369
:100320001308646236495620500008070300001C79
:100330002241000041221C002A1C7F1C2A08083E82
:100340000808008070300008080808080000606095
:100350000020100804023E5149453E00427F400003
:1003600072494949462141494D331814127F1027DB
:10037000454545393C4A494931412111090736492A
:10038000494936464949291E0000140000004034FE
:100390000000000814224114141414140041221403
:1003A0000802015909063E415D594E7C1211127C2A
:1003B0007F494949363E414141227F4141413E7F8B
:1003C000494949417F090909013E414151737F086B
:1003D00008087F00417F41002040413F017F081411
:1003E00022417F404040407F021C027F7F04081072
:1003F0007F3E4141413E7F090909063E4151215E50
:100400007F09192946264949493203017F01033FE3
:100410004040403F1F2040201F3F4038403F631472
:1004200008146303047804036159494D43007F4174
:1004300041410204081020004141417F04020102B1
:1004400004404040404000030708002054547840D6
:100450007F284444383844444428384444287F386A
:100460005454541800087E090218A4A49C787F08EC
:1004700004047800447D40002040403D007F102867
:10048000440000417F40007C047804787C08040428
:10049000783844444438FC1824241818242418FCC0
:1004A0007C08040408485454542404043F44243C65
:1004B0004040207C1C2040201C3C4030403C4428D4
:1004C0001028444C9090907C4464544C440008366E
:1004D00041000000770000004136080002010204DC
:1004E000023C2623263C1EA1A161123A4040207AFC
:1004F0003854545559215555794122545478422144
:100500005554784020545579400C1E52721239557A
:100510005555593954545459395554545800004577
:100520007C410002457D420001457C407D12111254
:100530007DF0282528F07C545545002054547C54E7
:100540007C0A097F4932494949323A4444443A32A3
:100550004A4848303A4141217A3A42402078009D49
:10056000A0A07D3D4242423D3D4040403D3C24FFF5
:100570002424487E4943662B2FFC2F2BFF0929F6A4
:1005800020C0887E090320545479410000447D41F5
:100590003048484A32384040227A007A0A0A727D4E
:1005A0000D19317D2629292F282629292926304869
:1005B0004D4020380808080808080808382F10C8D7
:1005C000ACBA2F102834FA00007B000008142A145B
:1005D0002222142A14085500550055AA55AA55AAD6
:1005E000FF55FF55FF000000FF00101010FF001422
:1005F0001414FF001010FF00FF1010F010F014147E
:1006000014FC001414F700FF0000FF00FF1414F4A2
:1006100004FC141417101F10101F101F1414141FA3
:1006200000101010F0000000001F101010101F101C
:10063000101010F010000000FF101010101010101B
:100640001010FF10000000FF140000FF00FF00006A
:100650001F10170000FC04F414141710171414F4DE
:1006600004F40000FF00F714141414141414F70019
:10067000F7141414171410101F101F141414F4146A
:100680001010F010F000001F101F0000001F1400D9
:100690000000FC140000F010F01010FF10FF141404
:1006A00014FF141010101F00000000F010FFFFFFD7
:1006B000FFFFF0F0F0F0F0FFFFFF0000000000FF90
:1006C000FF0F0F0F0F0F3844443844FC4A4A4A3496
:1006D0007E02020606027E027E02635549416338AD
:1006E00044443C04407E201E2006027E020299A55E
:1006F000E7A5991C2A492A1C4C7201724C304A4DBC
:100700004D303048784830BC625A463D3E494949F0
:10071000007E0101017E2A2A2A2A2A44445F444499
:1007200040514A444040444A51400000FF0103E028
:1007300080FF000008086B6B083612362436060F5F
:10074000090F06000018180000001010003040FFCC
:100750000101001F01011E00191D1712003C3C3C45
:100760003C000000000000002100240027002A00B7
:100770002D003000330001010000040107010A01CF
:1007800000002200250028002B002E00310034003C
:1007900002010000050108010B01000020002300F8
:1007A000260029002C002F00320000010000030168
:1007B00006010901050505050705080808080202E4
:1007C00002020A0A080804040404010101010101EB
:1007D00001010303030303030303040707070C0CCE
:1007E0000C0C0C0C0C0C0202020206060606060695
:1007F00006060B0B0B0B0B0B0B0B0102102020083A
:10080000081020401020408002010201080402016B
:1008100001020408102040808040201008040201DA
:100820008004020180402010080402010804020133
:1008300001020408102040800102040810204080BA
:1008400000000A0B02090C0D0E080703040100004A
:100850000000000000000000000000000000000098
:100860000000000000000000000000001211100055
:100870000000000000000000000000000000000078
:10088000000000000000A35511241FBECFEFD1E2ED
:10089000DEBFCDBF00E00CBF10E1A0E0B2E0ECEDA8
:1008A000F4EC00E00BBF02C007900D92A234B10738
:1008B000D9F725E1A2E4B0E101C01D92A837B20743
:1008C000E1F714E0C4E4D4E000E006C02197010998
:1008D000802FFE010E94555FC334D10780E00807D6
:1008E000A9F70E9479410C946C628ACB6F927F9237
:1008F0008F929F92AF92BF92CF92DF92EF92FF9230
:100900000F931F93CF93DF931F921F92CDB7DEB744
:100910003C01E0900D02F0900E0225E0E216F10499
:1009200011F40C94A210CCF442E0E416F10409F4A2
:10093000E0C434F481E0E816F10459F10C94A714F2
:10094000E3E0EE16F10409F408C7F4E0EF16F10451
:1009500011F40C94FA0E0C94A7142FE1E216F10492
:1009600011F40C94D60C3CF445E1E416F10409F4BE
:10097000B4C50C94A71459E2E516F10411F40C94D3
:10098000D60F83E3E816F10411F40C941A110C94B9
:10099000A714D0905D1083010B5E1F4FDD2009F47A
:1009A00026C480915610811124C0F301EF54FF4FEB
:1009B0008481958190935510809354108281938106
:1009C0009093531080935210868197819093511089
:1009D000809350108085918590934F1080934E1096
:1009E0008285938590934D1080934C1081E0809385
:1009F000561080910002882309F45AC10E944034A5
:100A0000609348107093491080934A1090934B1054
:100A10008090441090904510A0904610B0904710E0
:100A20009B01AC01281939094A095B0949015A019E
:100A300035EF831631E09306A104B10454F010920F
:100A40000002609344107093451080934610909379
:100A500047108091421090914310892B49F181E019
:100A6000F30181A781E090E090A787A396A385A3D7
:100A7000858D968D97FD0196959587950F97F30136
:100A800092A381A38CE090E094A383A3809154105F
:100A9000909155100A972CF460EF79E0C8010E94FC
:100AA000593D6091541070915510C8010E94BF408B
:100AB00081E0F30181A781E090E090A787A396A34E
:100AC00085A3858D968D97FD0196959587950397BE
:100AD000F30192A381A38CE090E094A383A360EB45
:100AE00076E0C8010E94593D8091421090914310D8
:100AF000019749F181E0F30181A781E090E090A79F
:100B000087A396A385A3858D968D97FD01969595D0
:100B100087950396F30192A381A38CE090E094A3C0
:100B200083A380915210909153100A972CF460EF98
:100B300079E0C8010E94593D6091521070915310A4
:100B4000C8010E94BF4080914210909143100297CB
:100B500049F181E0F30181A781E090E090A787A3AC
:100B600096A385A3858D968D97FD0196959587957E
:100B70004997F30192A381A386E190E094A383A314
:100B800080915010909151100A972CF463EA75E00F
:100B9000C8010E94593D6091501070915110C801D8
:100BA0000E94BF4081E0F30181A781E090E090A71F
:100BB00087A396A385A3858D968D97FD0196959520
:100BC00087950D97F30192A381A386E190E094A30A
:100BD00083A36CE874E0C8010E94593D80914210E3
:100BE00090914310039749F181E0F30181A781E0DF
:100BF00090E090A787A396A385A3858D968D97FDFA
:100C00000196959587950797F30192A381A386E1B5
:100C100090E094A383A380914E1090914F100A9777
:100C20002CF460EF79E0C8010E94593D60914E10AC
:100C300070914F10C8010E94BF4081E0F30181A76D
:100C400081E090E090A787A396A385A3858D968DDC
:100C500097FD0196959587950596F30192A381A33B
:100C600086E190E094A383A36CE874E0C8010E943D
:100C7000593D8091421090914310049709F4D3C0DC
:100C800081E0F30181A781E090E090A787A396A37C
:100C900085A3858D968D97FD0196959587950B96E5
:100CA000F30192A381A386E190E094A383A3A9C05A
:100CB0000E944034609348107093491080934A100A
:100CC00090934B108090441090904510A090461047
:100CD000B09047109B01AC01281939094A095B09FA
:100CE00049015A0135EF831631E09306A104B1049E
:100CF0005CF021E020930002609344107093451053
:100D0000809346109093471081E0F30181A781E022
:100D100090E090A787A396A385A3858D968D97FDD8
:100D20000196959587950F97F30192A381A38CE087
:100D300090E094A383A380915410909155100A974A
:100D40002CF460EF79E0C8010E94593D6091541085
:100D500070915510C8010E94BF4060EB76E0C80159
:100D60000E94593D80915210909153100A972CF493
:100D700060EF79E0C8010E94593D60915210709176
:100D80005310C8010E94BF40F301858D968D97FDD9
:100D90000196959587954997F30192A381A386E1E2
:100DA00090E094A383A380915010909151100A97E2
:100DB0002CF463EA75E0C8010E94593D609150101F
:100DC00070915110C8010E94BF406CE874E0C801E6
:100DD0000E94593D80914E1090914F100A972CF42B
:100DE00060EF79E0C8010E94593D60914E1070910A
:100DF0004F10C8010E94BF406CE874E0C8010E9417
:100E0000593D80914C1090914D100A972CF460EF51
:100E100079E0C8010E94593D60914C1070914D10CD
:100E2000C8010E94BF4080914210909143108230CF
:100E3000910509F49FC03CF4009771F0019709F403
:100E400058C00C94CF148330910509F407C104975E
:100E500009F487C10C94CF14F3018685882399F097
:100E600080915410909155108731910534F401967A
:100E7000909355108093541004C010925510109206
:100E80005410F3011686F3018785882389F0809139
:100E90005410909155101816190614F4019702C0B9
:100EA00087E190E09093551080935410F3011786DA
:100EB000F3018089882399F0609154107091551046
:100EC000C3018F549F4F0E941936F301108A10926C
:100ED000561081E090E09093431080934210F3010C
:100EE0008189882311F40C94CF1410925610118A22
:100EF00065C1F3018685882399F080915210909105
:100F000053108B33910534F40196909353108093D2
:100F1000521004C01092531010925210F301168612
:100F2000F3018785882389F08091521090915310A6
:100F30001816190614F4019702C08BE390E0909301
:100F4000531080935210F3011786F3018089882390
:100F500009F4F8C06091521070915310C3018F547E
:100F60009F4F0E946436F301108A1092561082E05F
:100F700090E0E4C0F3018685882369F180914E10EA
:100F800090914F1020915010309151108230910566
:100F900021F42D3131055CF416C0AC0141705527A8
:100FA000089764F4452B61F02F31310564F081E03E
:100FB00090E090935110809350100BC0452BA1F3FB
:100FC0002E313105A4F72F5F3F4F309351102093FE
:100FD0005010F3011686F3018785882339F180913B
:100FE0005010909151108230910514F0019718C063
:100FF00080914E1090914F108230910519F48CE140
:1010000090E00EC09C012170332708972CF4232B0D
:1010100029F48EE190E004C0232BD9F78FE190E012
:101020009093511080935010F3011786F30180893B
:10103000882309F487C0108A40914E1050914F10B8
:101040006091501070915110C3018F549F4F0E94B6
:10105000FB351092561083E090E070C0F301868556
:10106000882389F080914E1090914F108C3091051B
:1010700014F4019602C081E090E090934F108093A9
:101080004E10F3011686F3018785882389F080913D
:101090004E1090914F108230910514F0019702C0CC
:1010A0008CE090E090934F1080934E10F3011786E0
:1010B000F3018089882309F445C0108A40914E10BD
:1010C00050914F1083010F541F4FBA01C80149833B
:1010D0005A830E94DD3580915010909151104981C2
:1010E0005A818D31910534F14230510559F48CE12A
:1010F00090E0909351108093501042E050E06CE1EA
:1011000070E015C04F97B4F0CA018170992748303C
:1011100051051CF4892B71F402C0892B59F08EE122
:1011200090E090935110809350106EE170E0C801F0
:101130000E94FB351092561084E090E0909343108B
:1011400080934210F3018189882311F40C94CF1409
:1011500010925610118A809142109091431001977D
:1011600040C0F3018685882351F080914C10909106
:101170004D10019690934D1080934C101686F301FC
:101180008785882351F080914C1090914D100197E4
:1011900090934D1080934C101786F301808988231B
:1011A000A9F060914C1070914D10C3018F549F4F66
:1011B0000E94C13510925610F301108A109243100C
:1011C0001092421010925D100C94CF14F30181899B
:1011D000882311F40C94CF1410925610118A83E0D6
:1011E00090E090934310809342100C94CF14E2E06F
:1011F000AE2EB12CF301B2A2A1A288E090E094A39C
:1012000083A381E081A716A215A2F0A6E7A26EE84B
:1012100074E0C8010E94593DF301B2A2A1A280E18D
:1012200090E094A383A3F0A6E7A2F6A2E5A261EA68
:1012300074E0C8010E94593D83E090E0F30192A35D
:1012400081A388E190E094A383A3F0A6E7A2F6A28D
:10125000E5A263EB74E0C8010E94593DF301868565
:10126000882399F080910D0290910E02019790933E
:101270000E0280930D0280910B0290910C02019757
:1012800090930C0280930B021686F30187858823C6
:1012900099F080910D0290910E02019690930E02AA
:1012A00080930D0280910B0290910C020196909315
:1012B0000C0280930B021786F3018089882329F0A2
:1012C00081E080935D10108A118AF301818988235F
:1012D00011F40C94CD14F301118A81E090E0909305
:1012E0000E0280930D0290930C0280930B020C94DB
:1012F000CF1400910B0210910C020130110509F07E
:1013000072C0FC01F2A2E1A288E090E094A383A362
:1013100081E081A716A215A210A707A361EA74E0D5
:101320006301F5E1CF0ED11CC6010E94593DF301C6
:10133000F2A2E1A280E190E094A383A310A707A307
:1013400016A305A363EB74E0C6010E94593D83E038
:1013500090E0F30192A381A388E190E094A383A39A
:1013600010A707A316A305A368EC74E0C6010E94AA
:10137000593DF3018685882351F080910D029091AB
:101380000E02019790930E0280930D021686F301D0
:101390008785882399F080910D0290910E02019625
:1013A00090930E0280930D0280910B0290910C029B
:1013B000019690930C0280930B021786F3018089AB
:1013C000882341F085E190E090930E0280930D0216
:1013D000108A118AF3018189882329F0F301118A87
:1013E000D12C0C94CF14C0900B02D0900C02F2E0E0
:1013F000CF16D10411F00C94CD14F301D2A2C1A2E6
:1014000088E090E094A383A381E081A7EE24E39495
:10141000F12CF0A6E7A2F6A2E5A26EE874E0830143
:101420000B5E1F4FC8010E94593DF301D2A2C1A219
:1014300080E190E094A383A316A215A2F0A6E7A2F0
:1014400061EA74E0C8010E94593D83E090E0F30135
:1014500092A381A388E190E094A383A3F0A6E7A2DE
:10146000F6A2E5A263EB74E0C8010E94593DF301C6
:101470008685882399F080910D0290910E02019744
:1014800090930E0280930D0280910B0290910C02BA
:10149000019790930C0280930B021686F3018785C7
:1014A000882399F080910D0290910E0201969093FD
:1014B0000E0280930D0280910B0290910C02019616
:1014C00090930C0280930B021786F3018089882386
:1014D00009F4ABC685E190E0A2C68091010290912B
:1014E00002028230910509F4A0C08330910509F40D
:1014F000CCC08130910509F017C122E030E0F30142
:1015000032A321A328E030E034A323A321E021A7C4
:1015100016A215A290A787A38285938583010B5EEF
:101520001F4F019729F468ED74E0C8010E94593DEE
:101530006BED74E0C8010E94593D82E090E0F30138
:1015400092A381A380E190E094A383A381E090E043
:1015500090A787A396A385A382859385029729F4F4
:1015600068ED74E0C8010E94593D6AEE74E0C8015C
:101570000E94593D82E090E0F30192A381A388E1AB
:1015800090E094A383A381E090E090A787A396A323
:1015900085A382859385039729F468ED74E0C801DB
:1015A0000E94593D69EF74E0C8010E94593DF30162
:1015B0008685882351F08091010290910202019763
:1015C00090930202809301021686F3018785882397
:1015D00051F08091010290910202019690930202D3
:1015E000809301021786F3018089882391F060912E
:1015F000010270910202828593858617970731F068
:10160000738762878FEF9FE00E94AD39F301108AE4
:10161000118AF3018189882311F40C94CD14F3010C
:10162000118A82E090E00C94C914F30192A381A383
:1016300088E090E094A383A381E081A781E090E01B
:1016400090A787A396A385A38285938583010B5ECC
:101650001F4F019729F468ED74E0C8010E94593DBD
:101660006BED74E0C8010E94593D82E090E0F30107
:1016700092A381A380E190E094A383A316A215A274
:1016800081E090E090A787A367CF82E090E0F3012C
:1016900092A381A388E090E094A383A381E081A733
:1016A00081E090E090A787A396A385A38285938588
:1016B00083010B5E1F4F019729F468ED74E0C801A8
:1016C0000E94593D6BED74E0C8010E94593D82E0D3
:1016D00090E0F30192A381A380E190E094A383A31F
:1016E00081E090E090A787A396A385A38285938548
:1016F000029729F468ED74E0C8010E94593D6AEE32
:1017000074E0C8010E94593D82E090E0F30192A389
:1017100081A388E190E094A383A316A215A281E09F
:1017200090E090A787A335CF1816190634F083E010
:1017300090E09093020280930102809101029091C7
:101740000202049714F40C94CD1481E090E090937D
:101750000202809301020C94CD1400910B021091AF
:101760000C020130110509F048C062E0C62ED12CF0
:10177000FC01D2A2C1A288E090E094A383A381E0FF
:1017800081A716A215A210A707A363EB74E073014B
:10179000F5E1EF0EF11CC7010E94593DF301D2A201
:1017A000C1A280E190E094A383A310A707A316A38E
:1017B00005A368EC74E0C7010E94593DF301D2A271
:1017C000C1A288E190E094A383A310A707A316A366
:1017D00005A369E075E0C7010E94593DF3018685C4
:1017E000882309F45EC080910D0290910E0201974A
:1017F00090930E0280930D0253C00230110509F040
:1018000068C0FC0112A301A388E090E094A383A325
:1018100081E081A7CC24C394D12CD0A6C7A2D6A2A4
:10182000C5A261EA74E07301F5E1EF0EF11CC70196
:101830000E94593DF30112A301A380E190E094A31B
:1018400083A316A215A2D0A6C7A263EB74E0C701BA
:101850000E94593DF30112A301A388E190E094A3F3
:1018600083A3D0A6C7A2D6A2C5A268EC74E0C70124
:101870000E94593DF3018685882399F080910D02DD
:1018800090910E02019790930E0280930D02809129
:101890000B0290910C02019790930C0280930B0223
:1018A0001686F3018785882309F478C080910D029C
:1018B00090910E02019690930E0280930D028091FA
:1018C0000B0290910C02019690930C0280930B02F4
:1018D00064C00330110511F00C94CD1432E0C32E16
:1018E000D12CFC01D2A2C1A288E090E094A383A3F2
:1018F00081E081A7EE24E394F12CF0A6E7A2F6A202
:10190000E5A26EE874E083010B5E1F4FC8010E94E0
:10191000593DF301D2A2C1A280E190E094A383A338
:10192000F0A6E7A2F6A2E5A261EA74E0C8010E946F
:10193000593DF301D2A2C1A288E190E094A383A310
:1019400016A215A2F0A6E7A263EB74E0C8010E94FC
:10195000593DF3018685882399F080910D0290917D
:101960000E02019790930E0280930D0280910B025C
:1019700090910C02019790930C0280930B021686B3
:10198000F3018785882351F080910D0290910E021A
:10199000019690930E0280930D021786F3018089C1
:1019A000882309F442C48FE190E039C40091030216
:1019B000109104020130110529F00230110509F4DB
:1019C000D8C001C280915C1093012B5E3F4F79011A
:1019D000882309F47CC080915B10811138C082E0BB
:1019E00090E0F30192A381A388E090E094A383A305
:1019F00010A707A316A305A369E175E0C9010E941A
:101A0000473DF301858D968D97FD019695958795B8
:101A1000F30192A381A380E190E094A383A36BE2FE
:101A200075E0C7010E94593DF3018089882321F0A8
:101A300081E080935B10108AF3018189882309F487
:101A4000ACC710925B10118A10925C10A6C760E0C0
:101A500080E090E00E94AD39F301278D30A137FF7F
:101A600002C02F5F3F4F3595279524503109F30170
:101A7000858D968D97FD0196959587954997F301EC
:101A800092A381A334A323A381E090E090A787A32E
:101A900096A385A36FE275E0C7010E94593DF3014B
:101AA000808981110AC08189811107C086858111D1
:101AB00004C08785882309F470C710925B10F30176
:101AC000108A118A1686178610925C1060C7B2E0E1
:101AD000CB2ED12CF301D2A2C1A288E090E094A336
:101AE00083A381E081A716A215A210A707A36AE32A
:101AF00075E0C9010E94593DF301D2A2C1A280E163
:101B000090E094A383A310A707A316A305A36EE4F4
:101B100075E0C7010E94593DF3018685882351F085
:101B200080910302909104020197909304028093A4
:101B300003021686F3018785882351F08091030202
:101B400090910402019690930402809303021786F9
:101B5000F3018089882329F081E080935C10108A4A
:101B6000118AF3018189882309F417C7F301118AC7
:101B70000EC780915A1093012B5E3F4F7901882345
:101B800009F4D7C080915910F301811137C012A315
:101B900001A388E090E094A383A381E090E090A764
:101BA00087A396A385A364E675E0C9010E94473D1B
:101BB000F301858D968D97FD019695958795F30197
:101BC00092A381A380E190E094A383A36BE275E0EC
:101BD000C7010E94593DF3018089882321F081E0EB
:101BE00080935910108AF3018189882309F4D5C69E
:101BF00010925910118A10925A10CFC6878D90A159
:101C000097FD0196959587950497F301258D368D5F
:101C100037FF02C02F5F3F4F35952795A9014E51E1
:101C20005109F30152A341A394A383A381E090E05F
:101C300090A787A396A385A38091571090915810E1
:101C40008F3FFFE09F0708F04EC060E00E94AD3973
:101C500080915710909158100E94B33B00915710FB
:101C60001091581068E775E0C7010E94593DF301D3
:101C7000878D90A197FD0196959587950496F30120
:101C8000258D368D37FF02C02F5F3F4F3595279545
:101C90002A503109F30132A321A394A383A381E045
:101CA00090E090A787A396A385A324E630E0D8010F
:101CB0000E945D5F2FEF3FE040E050E00E94A15B9B
:101CC000B901C7010E94BF4064E875E0C7010E94E6
:101CD000593D80915710909158100196909358104B
:101CE000809357105AC629513109F30132A321A319
:101CF0006FE275E0C7010E94593DF30180898111AF
:101D00000AC08189811107C08685811104C0878539
:101D1000882309F442C6109259101092581010925C
:101D20005710F301108A118A1686178610925A10DE
:101D30002EC6F30112A301A388E090E094A383A32D
:101D400081E081A7CC24C394D12CD0A6C7A2D6A26F
:101D5000C5A26AE375E0C9010E94593DF30112A3CF
:101D600001A380E190E094A383A316A215A2D0A6BC
:101D7000C7A26EE475E0C7010E94593DF301868554
:101D8000882351F08091030290910402019790936F
:101D90000402809303021686F3018785882351F09D
:101DA0008091030290910402019690930402809323
:101DB00003021786F3018089882309F4D2CE81E0DB
:101DC00080935A10CCCE1016110634F082E090E0C9
:101DD0009093040280930302809103029091040285
:101DE00003970CF4DAC581E090E0909304028093AD
:101DF0000302D3C500910B0210910C0202301105B1
:101E000009F068C0FC0112A301A388E090E094A34C
:101E100083A381E081A7CC24C394D12CD0A6C7A2F0
:101E2000D6A2C5A263EB74E07301F5E1EF0EF11CDD
:101E3000C7010E94593DF30112A301A380E190E084
:101E400094A383A316A215A2D0A6C7A268EC74E03F
:101E5000C7010E94593DF30112A301A388E190E05C
:101E600094A383A3D0A6C7A2D6A2C5A269E075E0B9
:101E7000C7010E94593DF3018685882399F080911E
:101E80000D0290910E02019790930E0280930D0225
:101E900080910B0290910C02019790930C02809319
:101EA0000B021686F3018785882309F477C0809199
:101EB0000D0290910E02019690930E0280930D02F6
:101EC00080910B0290910C02019690930C028093EA
:101ED0000B0263C00330110509F05FC522E0C22E7A
:101EE000D12CFC01D2A2C1A288E090E094A383A3EC
:101EF00081E081A7EE24E394F12CF0A6E7A2F6A2FC
:101F0000E5A261EA74E083010B5E1F4FC8010E94E5
:101F1000593DF301D2A2C1A280E190E094A383A332
:101F2000F0A6E7A2F6A2E5A263EB74E0C8010E9466
:101F3000593DF301D2A2C1A288E190E094A383A30A
:101F400016A215A2F0A6E7A268EC74E0C8010E94F0
:101F5000593DF3018685882399F080910D02909177
:101F60000E02019790930E0280930D0280910B0256
:101F700090910C02019790930C0280930B021686AD
:101F8000F3018785882351F080910D0290910E0214
:101F9000019690930E0280930D021786F3018089BB
:101FA000882309F442C189E290E039C18091050299
:101FB000909106028130910529F08230910509F453
:101FC0007AC0A9C022E030E0F30132A321A328E0C7
:101FD00030E034A323A321E021A716A215A290A7E5
:101FE00087A38485958583010B5E1F4F019729F494
:101FF00068ED74E0C8010E94593D66E875E0C801CB
:102000000E94593D82E090E0F30192A381A380E118
:1020100090E094A383A381E090E090A787A396A388
:1020200085A384859585029729F468ED74E0C8013D
:102030000E94593D64E975E0C8010E94593DF301D1
:102040008685882351F080910502909106020197C0
:1020500090930602809305021686F30187858823F4
:1020600051F080910502909106020196909306022C
:10207000809305021786F3018089882391F060918F
:10208000050270910602848595858617970731F0C1
:10209000758764878EEF9FE00E94AD39F301108A47
:1020A000118AF3018189882309F477C4F301118A25
:1020B00084E090E06EC4F30192A381A388E090E0F5
:1020C00094A383A381E081A781E090E090A787A3F8
:1020D00096A385A38485958583010B5E1F4F019789
:1020E00029F468ED74E0C8010E94593D66E875E086
:1020F000C8010E94593D82E090E0F30192A381A3C0
:1021000080E190E094A383A316A215A281E090E061
:1021100090A787A386CF1816190634F082E090E0C6
:102120009093060280930502809105029091060229
:1021300003970CF432C481E090E090930602809300
:1021400005022BC480910B0290910C02039709F0B9
:1021500024C482E0C82ED12CF301D2A2C1A288E00F
:1021600090E094A383A381E081A7EE24E394F12C73
:10217000F0A6E7A2F6A2E5A263EB74E083010B5E92
:102180001F4FC8010E94593DF301D2A2C1A280E1B4
:1021900090E094A383A3F0A6E7A2F6A2E5A268ECE0
:1021A00074E0C8010E94593DF301D2A2C1A288E1A6
:1021B00090E094A383A316A215A2F0A6E7A269E07B
:1021C00075E0C8010E94593DF3018685882399F086
:1021D00080910D0290910E02019790930E028093D0
:1021E0000D0280910B0290910C02019790930C02CA
:1021F00080930B021686F3018785882351F0809126
:102200000D0290910E02019690930E0280930D02A2
:102210001786F3018089882341F083E390E090934F
:102220000E0280930D02108A118AF30181898111B7
:10223000D5C8B3C38091090290910A0282309105FA
:1022400009F47DC024F48130910551F060C38330DE
:10225000910509F46DC18430910509F487C257C313
:1022600022E030E0F30132A321A328E030E034A3E0
:1022700023A321E021A716A215A290A787A383017B
:102280000B5E1F4F62EA75E0C8010E94593D730161
:10229000F7E1EF1AFBEFFF0AF701808191810197C7
:1022A00029F465EA75E0C8010E94593D67EA75E0C6
:1022B000C8010E94593D82E090E0F30192A381A3FE
:1022C00080E190E094A383A381E090E090A787A3AE
:1022D00096A385A362EA75E0C8010E94593DF70103
:1022E00080819181029729F465EA75E0C8010E9416
:1022F000593D6FEA75E0C8010E94593D82E090E0C7
:10230000F30192A381A388E190E094A383A381E0E9
:1023100090E090A787A396A385A362EA75E0C80121
:102320000E94593DF70180819181039729F465EA64
:1023300075E0C8010E94593D67EB75E074C02091BB
:102340000702309108022130310509F07EC0F30107
:1023500092A381A388E090E094A383A381E081A766
:1023600016A215A230A727A383010B5E1F4F62EAB6
:1023700075E0C8010E94593D7301F7E1EF1AFBEFC8
:10238000FF0AF70180819181029729F465EA75E0DF
:10239000C8010E94593D6FEA75E0C8010E94593D8D
:1023A00082E090E0F30192A381A380E190E094A306
:1023B00083A381E090E090A787A396A385A362EA18
:1023C00075E0C8010E94593DF70180819181039712
:1023D00029F465EA75E0C8010E94593D67EB75E094
:1023E000C8010E94593D82E090E0F30192A381A3CD
:1023F00088E190E094A383A381E090E090A787A375
:1024000096A385A362EA75E0C8010E94593DF701D1
:1024100080819181049729F465EA75E0C8010E94E2
:10242000593D66EC75E0C8010E94593DF30186856F
:10243000882309F40FC18091090290910A02019743
:1024400090930A028093090204C12230310509F0F9
:10245000A4C2F30132A321A388E090E094A383A354
:1024600081E081A781E090E090A787A396A385A350
:1024700083010B5E1F4F62EA75E0C8010E94593D5F
:102480007301F7E1EF1AFBEFFF0AF70180819181F9
:10249000019729F465EA75E0C8010E94593D67EA91
:1024A00075E0C8010E94593D82E090E0F30192A3DB
:1024B00081A380E190E094A383A316A215A281E0FA
:1024C00090E090A787A362EA75E0C8010E94593D99
:1024D000F70180819181029729F465EA75E0C801CE
:1024E0000E94593D6FEA75E0C8010E94593D82E0A3
:1024F00090E0F30192A381A388E190E094A383A3E9
:1025000081E090E090A787A396A385A362EA75E097
:10251000C8010E94593DF70180819181039729F4F8
:1025200065EA75E0C8010E94593D67EB75E078C027
:1025300080910702909108028230910509F0A2C0B3
:1025400082E090E0F30192A381A388E090E094A35D
:1025500083A381E081A781E090E090A787A396A361
:1025600085A383010B5E1F4F62EA75E0C8010E94DC
:10257000593D7301F7E1EF1AFBEFFF0AF701808184
:102580009181029729F465EA75E0C8010E94593DDE
:102590006FEA75E0C8010E94593D82E090E0F301C6
:1025A00092A381A380E190E094A383A316A215A235
:1025B00081E090E090A787A362EA75E0C8010E94DD
:1025C000593DF70180819181039729F465EA75E00F
:1025D000C8010E94593D67EB75E0C8010E94593D52
:1025E00082E090E0F30192A381A388E190E094A3BC
:1025F00083A381E090E090A787A396A385A362EAD6
:1026000075E0C8010E94593DF701808191810497CE
:1026100029F465EA75E0C8010E94593D66EC75E051
:10262000C8010E94593DF3018685882399F0809165
:10263000090290910A02019790930A02809309027D
:10264000809107029091080201979093080280936D
:1026500007021686F3018785882309F41FC180913C
:10266000090290910A02019690930A02809309024E
:10267000809107029091080201969093080280933E
:1026800007020BC1039709F088C182E090E0F301D3
:1026900092A381A388E090E094A383A381E081A723
:1026A00081E090E090A787A396A385A383010B5EAA
:1026B0001F4F62EA75E0C8010E94593D7301F7E1BE
:1026C000EF1AFBEFFF0AF70180819181019729F44E
:1026D00065EA75E0C8010E94593D67EA75E0C801E6
:1026E0000E94593D82E090E0F30192A381A380E132
:1026F00090E094A383A381E090E090A787A396A3A2
:1027000085A362EA75E0C8010E94593DF701808106
:102710009181029729F465EA75E0C8010E94593D4C
:102720006FEA75E0C8010E94593D82E090E0F30134
:1027300092A381A388E190E094A383A316A215A29B
:1027400081E090E090A787A362EA75E0C8010E944B
:10275000593DF70180819181039729F465EA75E07D
:10276000C8010E94593D67EB75E070C082E090E0BF
:10277000F30192A381A388E090E094A383A381E076
:1027800081A781E090E090A787A396A385A383010A
:102790000B5E1F4F62EA75E0C8010E94593D73014C
:1027A000F7E1EF1AFBEFFF0AF701808191810297B1
:1027B00029F465EA75E0C8010E94593D6FEA75E0A9
:1027C000C8010E94593D82E090E0F30192A381A3E9
:1027D00080E190E094A383A381E090E090A787A399
:1027E00096A385A362EA75E0C8010E94593DF701EE
:1027F00080819181039729F465EA75E0C8010E9400
:10280000593D67EB75E0C8010E94593D82E090E0B8
:10281000F30192A381A388E190E094A383A316A27D
:1028200015A281E090E090A787A362EA75E0C80155
:102830000E94593DF70180819181049729F465EA4E
:1028400075E0C8010E94593D66EC75E0C8010E9420
:10285000593DF3018685882399F080910902909172
:102860000A02019790930A0280930902809107025D
:1028700090910802019790930802809307021686B0
:10288000F3018785882351F08091090290910A0213
:10289000019690930A02809309021786F3018089BA
:1028A00081110AC0F3018189882309F476C0F301FC
:1028B000118A85E090E06DC08091090290910A0232
:1028C000F701208131812817390721F4F301108A9B
:1028D000118AE8CF9C01215031092430310510F4D0
:1028E000918380836FEB75E086EC94E10E94593D03
:1028F0006091090270910A0286EC94E10E94BF4047
:102900006AE97EE086EC94E10E94473DDFCF18162D
:10291000190664F084E090E090930A028093090223
:1029200083E090E09093080280930702809109026F
:1029300090910A0205978CF181E090E090930A0251
:1029400080930902909308028093070226C01E1408
:102950001F0464F085E090E090930E0280930D02D6
:1029600083E090E090930C0280930B0280910D0223
:1029700090910E0206978CF081E090E090930E0209
:1029800080930D0290930C0280930B0206C083E0AB
:1029900090E090930E0280930D02DD24D3948D2D50
:1029A0000F900F90DF91CF911F910F91FF90EF90BB
:1029B000DF90CF90BF90AF909F908F907F906F905F
:1029C0000895BF92CF92DF92EF92FF920F931F93E1
:1029D000CF93DF93EC016C0185E1C80ED11CBB24C1
:1029E000B3940E94C62D8111C6C066E978E086ECDA
:1029F00094E10E94473D4F8D58A16D8D7E8D8A01D7
:102A000057FF02C00F5F1F4F15950795CB0177FD4C
:102A1000039695958795959587959B01281B390B6E
:102A200057FF02C04D5F5F4F5595479555954795A8
:102A300077FF02C0695F7F4F93E0759567959A9520
:102A4000E1F7E12CF12CC6010E944C264F8D58A1D4
:102A50006D8D7E8D8A0157FF02C00F5F1F4F159548
:102A60000795CB0177FD0396959587959595879565
:102A70009B01281B390B57FF02C04D5F5F4F5595D7
:102A800047955595479577FF02C0695F7F4FE3E013
:102A900075956795EA95E1F7EE24E394F12CC6016C
:102AA0000E9459252F8D38A18D8D9E8D97FD019601
:102AB000959587958C979AA389A3C90137FD0396AD
:102AC000959587959595879537FF02C0295F3F4F6C
:102AD00043E0359527954A95E1F7280F391F3CA328
:102AE0002BA381E090E098A78FA39EA38DA3B9A606
:102AF00060E878E0C6010E94593DC6010E94E438B2
:102B00006EE878E086EC94E10E94593D68EE73E04F
:102B100080E090E00E94083462EB78E0C6010E94F9
:102B2000593DC6010E94E43862EB78E086EC94E1FE
:102B30000E94593D68EE73E080E090E00E94083406
:102B400062EB78E0C6010E94593DC6010E94E4385C
:102B500062EB78E086EC94E10E94593D68EE73E008
:102B600080E090E00E94083462EB78E086EC94E12B
:102B70000E94473D36CFDF91CF911F910F91FF907B
:102B8000EF90DF90CF90BF900895FC018085863351
:102B900008F0865390917B00282F2870977F922B06
:102BA00090937B008770806480937C0080917A0092
:102BB000806480937A0080917A0086FDFCCFA0919A
:102BC000780080917900B0E0B82B24E630E00E94D4
:102BD0005D5F2FEF33E040E050E00E94A15BC90150
:102BE00008950F931F93CF93DF93EC01EADE80915A
:102BF0001904882341F067EA78E086EC94E10E94AA
:102C0000473D1092190488810E947533892B81F405
:102C10008A810E947533892B59F48C810E94753307
:102C2000892B31F48E810E947533892B09F44AC0B7
:102C300088810E947533892B59F000915F131091A0
:102C4000601388810E9475330817190709F043C083
:102C50008A810E947533892B59F000915F1310917E
:102C600060138A810E9475330817190709F048C05C
:102C70008C810E947533892B59F000915F1310915C
:102C800060138C810E9475330817190709F04DC035
:102C90008E810E947533892B59F000915F1310913A
:102CA00060138E810E9475330817190709F052C00E
:102CB0006AE070E080E090E0DF91CF911F910F918A
:102CC0000C9408341092601310925F13DF91CF912F
:102CD0001F910F91089588810E947533909360131E
:102CE00080935F1364EB78E086EC94E10E94593D99
:102CF00088810E9475330E94B33B81E08E87A8CF04
:102D00008A810E9475339093601380935F1368EB00
:102D100078E086EC94E10E94593D8A810E947533E7
:102D20000E94B33B81E08F87A3CF8C810E947533D3
:102D30009093601380935F136EEB78E086EC94E1E0
:102D40000E94593D8C810E9475330E94B33B81E003
:102D5000888B9ECF8E810E947533909360138093F1
:102D60005F1363EC78E086EC94E10E94593D8E811C
:102D70000E9475330E94B33B81E0898B99CFBF924B
:102D8000CF92DF92EF92FF920F931F93CF93DF9337
:102D90001F92CDB7DEB740E05BE460E070E086EC08
:102DA00094E10E941D3A1092B2131092B113109246
:102DB000FB1310921C140E94422C8DEE94E00E9492
:102DC00062568C017C0125E1E20EF11CDC01589673
:102DD0001C921E92579720E830E05A963C932E930F
:102DE000599780E290E05C969C938E935B975E96F9
:102DF0003C932E935D9790969C938E935F979A96B3
:102E00001C929A9792961C921E92919794961C925D
:102E10001E92939781E099968C9399972FEF3FEFAD
:102E200098963C932E93979796963C932E939597CE
:102E30009B968C939B979C961C929C979E961C921B
:102E40001E929D9784E294E056969C938E9355979C
:102E50008FEFD1968C93D197D5968C93D597D396A7
:102E60008C93D397D2968C93D297D4968C9367EC0D
:102E700078E086EC94E10E94473D6FEE78E086ECC6
:102E800094E10E94473D68E179E086EC94E10E947C
:102E9000473D82E0F80180AB8CE387A781A98F3F93
:102EA00009F4C4C061E083A90E94CC3361E0D80179
:102EB000D5968C910E94CC33F80185A9082E000C80
:102EC000990BFC01EC54F84FE491F0E0EE0FFF1F7A
:102ED000E058F84F25913491D801DC963C932E931D
:102EE000DB97FC01E650F84FE491AF5BBF4FEC93EA
:102EF000F80183A9082E000C990BFC01EC54F84F43
:102F0000E491F0E0EE0FFF1FE058F84F2591349167
:102F1000D801DE963C932E93DD97FC01E650F84FE6
:102F2000E491AE5BBF4FEC93F80186A9811141C0DB
:102F300061E081A90E94CC3361E0D801D2968C91E6
:102F40000E94CC33F80182A9082E000C990BFC01D9
:102F5000EC54F84FE491F0E0EE0FFF1FE058F84F0B
:102F600025913491D801DA963C932E93D997FC01A0
:102F7000E650F84FE491A05CBF4FEC93F80181A9B3
:102F8000082E000C990BFC01EC54F84FE491F0E092
:102F9000EE0FFF1FE058F84F25913491D801D896D5
:102FA0003C932E93D797FC01E650F84FE491DF96BF
:102FB000EC93F80186A9882309F442C0DFB6F8949F
:102FC00080915E13811127C0E9EEF7E08491EFE272
:102FD000F8E09491E82FF0E0EE0FFF1FEA59F84F68
:102FE000A591B491EC91E92321F461E085E30E947D
:102FF0009D3361E085E30E94CC338CB580618CBD4C
:103000008CB580648CBD61E084E30E94CC3361E0C8
:1030100083E30E94CC3380915E138F5F80935E13B5
:10302000DFBE80E58CBD81E08DBD0AC01092B21379
:103030001092B1131092FB1310921C140E94422C98
:10304000D801D4968C9187FD1FC061E00E94CC33DB
:1030500061E0F80184A90E949D3361E070E080E0A6
:1030600090E00E94083460E0D801D4968C910E94D0
:103070009D336AE070E080E090E00E94083461E0F7
:10308000F80184A90E949D336EEAC7010E94AC3802
:1030900065EDC7010E94AC3860E8C7010E94AC38FA
:1030A00068EAC7010E94AC386FE1C7010E94AC38E2
:1030B00063EDC7010E94AC3860E0C7010E94AC38E4
:1030C00060E4C7010E94AC386DE8C7010E94AC38CB
:1030D00064E1C7010E94AC3860E2C7010E94AC38CD
:1030E00060E0C7010E94AC3861EAC7010E94AC38B9
:1030F00068ECC7010E94AC386AEDC7010E94AC3889
:1031000062E0C7010E94AC3861E8C7010E94AC3898
:103110006FE8C7010E94AC3869EDC7010E94AC3866
:1031200061EFC7010E94AC386BEDC7010E94AC385B
:1031300060E4C7010E94AC3864EAC7010E94AC3861
:1031400066EAC7010E94AC386EE2C7010E94AC3843
:103150006FEAC7010E94AC386FE379E086EC94E136
:103160000E94473D80E092E0EFE0F2E0DF019C0149
:103170001D9221503040E1F7C7010E94E438D80188
:103180005F968D919C91909797FD01969595879567
:103190000597F801258D368D37FF02C02F5F3F4F11
:1031A0003595279522513109D80192963C932E935B
:1031B000919794969C938E939397CC24C394D12CFF
:1031C0009896DC92CE9297979696DC92CE929597AF
:1031D00082E099968C9365E579E0C7010E94593D9C
:1031E00081E0F80181A7D2A2C1A214A213A269E5CD
:1031F00079E0C7010E94593DC7010E94E43868EE9A
:1032000073E080E090E00E94083468E679E086ECA4
:1032100094E10E94593D8EE690E00E94C73B61E830
:1032200079E086EC94E10E94593D80E090E10E94B3
:10323000C73B8FEF9FE00E94AF398150833008F089
:103240009DC18FEF9FE00E94AF3990E0D8011B969F
:103250009C938E931A978EEF9FE00E94AF39815016
:10326000823008F091C18EEF9FE00E94AF3990E06C
:10327000F8019587848764E979E086EC94E10E94FF
:10328000593D8FEF9FE00E94AF39482F50E060E03A
:1032900070E02AE086EC94E10E94223C6FEA79E03B
:1032A00086EC94E10E940D3C62EB79E086EC94E1BF
:1032B0000E94593D8EEF9FE00E94AF39482F50E0A9
:1032C00060E070E02AE086EC94E10E94223C6FEA24
:1032D00079E086EC94E10E940D3C60ED79E086ECAB
:1032E00094E10E94593D6091B11370E08091B21356
:1032F000681B710986EC94E10E94BF408DE194E166
:103300000E94982A0E94B33B6CED79E086EC94E130
:103310000E94593DC80155DB87E190E0D801119624
:103320009C938E9389E190E013969C938E931297D1
:1033300088E190E015969C938E93149786E190E037
:1033400017969C938E93169785E490E019969C931C
:103350008E93189760E087E10E94CC3360E0F8011B
:1033600082810E94CC3360E0D80114968C910E9437
:10337000CC3360E0F80186810E94CC33D8011E96E0
:103380001C921E971F961C921F9750961C92509746
:1033900051961C92519781E054968C935497529673
:1033A0001C92529753961C928EE6B82EF801ED5B54
:1033B000FF4FDF012B2D1D922A95E9F762EE79E090
:1033C00086EC94E10E94593D6CEE79E086EC94E144
:1033D0000E94473D62EF79E086EC94E10E94473D10
:1033E000780131EBE30EF11C67018CE0C80ED11CB3
:1033F000C6010E94933590E0D7018D939C93C6013E
:103400000E947D3590E0F70193838283AE014F5F88
:103410005F4FBA01C6010E94413590E0D701159671
:103420009C938E931497C6010E942B3590E0F70170
:1034300097838683BE016F5F7F4FC6010E94083568
:1034400090E0D70119969C938E931897C6010E941D
:10345000F23490E0F701938782876BE17AE086ECA3
:1034600094E10E94473D8CE08093B800F801E2545B
:10347000FF4FCF010196DC011D92BA94E9F781E07C
:1034800090E0A0E0B0E081839283A383B48387E0DF
:1034900090E07801B5E1EB1ABBEFFB0AF7019183ED
:1034A000808361E00E94CC3360E0D7018C910E9460
:1034B0009D337801B7E1EB1ABBEFFB0A81E090E0A6
:1034C000F701918380830E94C62D811103C060E4BF
:1034D0007AE040C060E081E80E945E2C811103C068
:1034E00064E57AE037C06CE879EB80E090E00E9418
:1034F000B22C811103C063E77AE02CC080E593EC25
:10350000A0E0B0E0F801EB51FB4F80839183A283F0
:10351000B38364EF71E080E090E00E94762C81112B
:1035200003C063E97AE016C00E94EB3A811103C040
:1035300067EB7AE00FC0D7018C910E947F2D81113B
:1035400003C069ED7AE006C00E94443B811109C0C6
:103550006FEE7AE086EC94E10E94473D68E57BE0FF
:103560001BC0B801675A7B4FC801835D9E4F0E9404
:10357000453F81110FC068E07BE0ECCF61E08FEF49
:103580009FE00E94AD395DCE61E08EEF9FE00E942A
:10359000AD3969CE6CE27BE086EC94E10E94473D58
:1035A00010935F1000935E1010936E1500936D15CD
:1035B00063E27BE086EC94E10E94473D0F90DF914F
:1035C000CF911F910F91FF90EF90DF90CF90BF9020
:1035D00008952F923F924F925F926F927F928F92B7
:1035E0009F92AF92BF92CF92DF92EF92FF920F9392
:1035F0001F93CF93DF93CDB7DEB7CE58D1090FB667
:10360000F894DEBF0FBECDBF8C0181E080936615BC
:1036100065E77BE0C8010E94865F892B69F48CEE28
:1036200099E00E94414162EE79E086EC94E10E94CB
:10363000593D6CEE79E037C069E77BE0C8010E9434
:10364000865F892B89F40E94754190E04AE0BE01B3
:103650006F5F7F4F8532910514F085E290E00E9404
:10366000BF58CE010196CDC46DE77BE0C8010E9432
:10367000865F892BE9F480916D1590916E1585DA3E
:103680004AE0BE016F5F7F4F0E94BF58CE01019696
:103690000E94414161E87BE086EC94E10E94593D43
:1036A000BE016F5F7F4F86EC94E10E94473D64C589
:1036B0006FE87BE0C8010E94865F892B79F589E27B
:1036C00094E10E947B31019609F472C289E294E18F
:1036D0000E947B31892B09F46BC28E0101591F4F67
:1036E000780189E294E10E947B31019609F468C275
:1036F00089E294E10E947B31892B09F461C289E25D
:1037000094E10E945931F80181938F01682F86EC72
:1037100094E10E94063CF8011082E3CF6DE97BE062
:10372000C8010E94865F892B09F50E947541882394
:10373000D1F001E010E00E9475412EE6829FC001A9
:103740001124019660E00817190730F4C8010E949F
:10375000F0340F5F1F4FEFCF80E090E00E94F03415
:1037600061EA7BE048C46CEB7BE045C460EE7BE043
:10377000C8010E94865F892B89F464EE7BE086ECA9
:1037800094E10E94473D0E94F82D8E010F5F1F4F6C
:1037900022E046E00E944356C80133C46AEF7BE052
:1037A000C8010E94865F892B09F03BC16AE070E086
:1037B00080E090E00E94083489E294E10E947B312D
:1037C000019609F4DFC289E294E10E947B31892BE2
:1037D00009F4D8C289E294E10E947B310C97E4F4A9
:1037E0006EEF7BE086EC94E10E94593D89E294E122
:1037F0000E947B31BC0186EC94E10E94BF4062E4F0
:103800007CE086EC94E10E94473D6AE070E080E055
:1038100090E00E940834DECF6EE47CE086EC94E118
:103820000E94473D00E010E061E070E080E090E041
:103830000E94083489E294E1023011052CF40E94C0
:103840005931E1E0F0E024C0043011052CF40E946D
:103850005931EFEFFFEF1CC0063011052CF40E9428
:103860005931EDEFFFEF14C0083011052CF40E9420
:103870005931EBEFFFEF0CC00A3011052CF40E9418
:103880005931E9EFFFEF04C00E945931E7EFFFEF34
:10389000EC0FFD1FE00FF11F80830F5F1F4F1B8296
:1038A00002301105D1F461E070E080E090E00E9408
:1038B0000834BE016F5F7F4F86EC94E10E94593D52
:1038C0004AE050E0BE0161597F4FCE0101960E944F
:1038D0008F576B0167E67CE01CC004301105F1F4E2
:1038E00061E070E080E090E00E940834BE016F5F0C
:1038F0007F4F86EC94E10E94593D4AE050E0BE01C2
:1039000061597F4FCE0101960E948F577B016AE774
:103910007CE086EC94E10E94473D5BC006301105D7
:10392000D1F461E070E080E090E00E940834BE01D4
:103930006F5F7F4F86EC94E10E94593D4AE050E072
:10394000BE0161597F4FCE0101960E948F573B0106
:103950006DE87CE039C008301105D1F461E070E019
:1039600080E090E00E940834BE016F5F7F4F86ECDC
:1039700094E10E94593D4AE050E0BE0161597F4FF9
:10398000CE0101960E948F575B0160EA7CE01CC06B
:103990000A301105F1F461E070E080E090E00E94EF
:1039A0000834BE016F5F7F4F86EC94E10E94593D61
:1039B0004AE050E0BE0161597F4FCE0101960E945E
:1039C0008F574B0164EB7CE086EC94E10E94473D0D
:1039D0002BCF0C30110509F027CF61E070E080E0BB
:1039E00090E00E940834BE016F5F7F4F86EC94E147
:1039F0000E94593D4AE050E0BE0161597F4FCE011F
:103A000001960E948F571B012C016AEC7CE086EC2A
:103A100094E10E94473DFCE32F16310408F0A1C059
:103A200087C066EF7CE0C8010E94865F892B39F071
:103A30006AEF7CE0C8010E94865F892BC9F56AE0C5
:103A400070E080E090E00E94083489E294E10E94F6
:103A50007B31019609F4D8C289E294E10E947B315E
:103A6000892B09F4D1C289E294E10E947B311816B6
:103A700019065CF7CE0101967C0189E294E10E946F
:103A80007B31019611F389E294E10E947B31892B0D
:103A9000E1F289E294E10E945931F70181937F01BB
:103AA000682F86EC94E10E94063CF7011082E5CF76
:103AB0006EEF7CE0C8010E94865F892B09F056C03A
:103AC0006AE070E080E090E00E94083489E294E1CE
:103AD0000E947B31019609F4E2C289E294E10E94DE
:103AE0007B31892B09F4DBC289E294E10E947B31AE
:103AF000049764F38E010F5F1F4F89E294E10E94E7
:103B00007B31019619F389E294E10E947B31892B84
:103B1000E9F289E294E10E945931F80181938F0121
:103B2000682F86EC94E10E94063CF8011082E5CFF4
:103B3000FCE38F169104A8F428E1A216B10488F4DE
:103B400080916D1590916E15A701B6018F549F4F0E
:103B50000E94A935882329F0C70101970C9708F422
:103B6000E1C160E176E089E294E107C160EA7DE0CD
:103B700086EC94E10E94473D60E176E089E294E1C1
:103B80000E94593D1092661500E010E089E294E130
:103B90000E94593189E294E10E947B31892B11F412
:103BA0000AE010E00F5F1F4F0A3011057CF3E4C2FA
:103BB00060E080E090E00E94F0346FED7DE01BC299
:103BC00069EF7DE086EC94E10E94593DB70186ECF7
:103BD00094E10E94473D4AE050E0BE0163577F4FA9
:103BE000C7010E948F5770936C1560936B156BEF34
:103BF0007DE086EC94E10E94593D80916B15909197
:103C00006C150E94B33B60E07EE086EC94E10E947C
:103C1000593DC357DF4F68817981CD58D04086EC3C
:103C200094E10E94593D64E07EE086EC94E10E94BC
:103C3000473DC0906B15D0906C158601015011095D
:103C400066E07EE086EC94E10E94593DC8010E9446
:103C5000B33B0E94754190E0801791070CF47DC042
:103C600017FD7BC08EE68C9D70018D9DF00C11249C
:103C70002FEFE21AF20A0E947541282F30E0021756
:103C800013075CF568018FEFC81AD80ABE016F5F91
:103C90007F4FC7010E949634BE016F5F7F4FC701FF
:103CA0008E5691090E94BC346FEB76E086EC94E16D
:103CB0000E94593DB80186EC94E10E94BF406AEC35
:103CC00076E086EC94E10E94593DC6010E94B33B28
:103CD0009EE6E90EF11C8601CECF215031098EE619
:103CE000829F8001839F100D11240F5F1F4F0E9440
:103CF0007541FEE68F9F9001112420173107F0F0E7
:103D000060E0C8010E94F03463E97BE086EC94E156
:103D10000E94593DB80186EC94E10E94BF406CE8D6
:103D200074E086EC94E10E94593D0E947541EEE6F4
:103D30008E9FC00111240E94C73BD7CF6FEF680F41
:103D400080E090E00E94F0346AE077E086EC94E155
:103D50000E94473D6BED77E04EC16CE078E086EC69
:103D600094E10E94473D6BE27EE086EC94E10E9484
:103D7000473D60E176E086EC94E10E94593D109267
:103D80006615FAC1E0916D15F0916E15EF54FF4F75
:103D90004AE0BE0161597F4F868197810E94BF58DA
:103DA00000916D1510916E150F541F4FF80186810B
:103DB00097810A9774F460EF79E0CE0101960E9432
:103DC0008F5FBE0161597F4FCE0101960E947B5FDC
:103DD00007C0BE0161597F4FCE0101960E948F5FDF
:103DE0006CE874E0CE0101960E947B5F4AE0BE0160
:103DF00061597F4FF801808591850E94BF580091DD
:103E00006D1510916E150F541F4FF8018085918527
:103E10000A9734F460EF79E0CE0101960E947B5F4F
:103E2000BE0161597F4FCE0101960E947B5F6CE815
:103E300074E0CE0101960E947B5F4AE0BE016159A9
:103E40007F4FF801828593850E94BF5800916D15C0
:103E500010916E150F541F4FF801828593850A97B4
:103E600034F460EF79E0CE0101960E947B5FBE01E1
:103E700061597F4FCE0101960E947B5F63EA75E036
:103E8000CE0101960E947B5F4AE0BE0161597F4FDF
:103E9000F801848195810E94BF5800916D151091A1
:103EA0006E150F541F4FF801848195810A9734F4E1
:103EB00060EF79E0CE0101960E947B5FBE016159FF
:103EC0007F4FCE0101960E947B5F60EB76E0CE01D2
:103ED00001960E947B5F4AE0BE0161597F4FF80165
:103EE000828193810E94BF58E0916D15F0916E150B
:103EF000EF54FF4F828193810A9734F460EF79E0A9
:103F0000CE0101960E947B5FBE0161597F4FCE01B9
:103F100001960E947B5FCE0101960E94414160EEB6
:103F20007CE0C1CB77FC1DCE88E60E94E13A80E0C0
:103F300090E00E943F3B822D6AE00E94365F692F2D
:103F4000E0E18E9F600D11248DE194E10E94E32A4F
:103F50000E94843A88E60E94E13A8FE090E00E9455
:103F60003F3B0E94843A88E690E00E94F73A8DE158
:103F700094E10E94982A182F88E60E94E13A8FE087
:103F800090E00E943F3B612F6F778DE194E10E94AA
:103F9000E32A0E94843A80916D1590916E15B401C8
:103FA0008F549F4F0E94643680916D1590916E15CD
:103FB000B5018F549F4F0E94193680916D159091D5
:103FC0006E15A701B6018F549F4F0E94FB3580915B
:103FD0006D1590916E15B7018F549F4F0E94DD357E
:103FE00080916D1590916E15B3018F549F4F0E9473
:103FF000C13566E57EE086EC94E10E94473D86EEA1
:1040000097E00E944141B8C069EF7DE086EC94E101
:104010000E94593DBE016F5F7F4F86EC94E10E9484
:10402000473D4AE050E0BE0161597F4FCE01019605
:104030000E948F5770936C1560936B156EE67EE04F
:1040400086EC94E10E94593D80916B1590916C151E
:104050000E94B33B60E07EE086EC94E10E94593D13
:10406000E1966EAD7FADE19786EC94E10E94593DFB
:1040700064E07EE086EC94E10E94473DFF24F394E7
:10408000F09263156AEF7CE0C8010E94865F892B7D
:1040900019F01092651570C0F09265156DC069EF4A
:1040A0007DE086EC94E10E94593DBE016F5F7F4F39
:1040B00086EC94E10E94473D4AE050E0BE01615920
:1040C0007F4FCE0101960E948F576B017C016EE6F7
:1040D0007EE086EC94E10E94593DB701A60186EC92
:1040E00094E10E94703B6FEA79E086EC94E10E94D3
:1040F0000D3C60E07EE086EC94E10E94593DE19643
:104100006EAD7FADE19786EC94E10E94593D64E08D
:104110007EE086EC94E10E94473DD701C601885EAF
:104120009340A109B109893B9248A140B105E8F447
:1041300080916D1590916E15B701A60182549F4F25
:104140000E945A29882351F062E07DE086EC94E1D8
:104150000E94473D81E0809364150EC06EE27DE0D1
:1041600086EC94E10E94473DFCCC6BE47DE086EC5C
:1041700094E10E94593DF5CCC257DF4F0FB6F89439
:10418000DEBF0FBECDBFDF91CF911F910F91FF908A
:10419000EF90DF90CF90BF90AF909F908F907F90E7
:1041A0006F905F904F903F902F9008958F929F92C5
:1041B000AF92BF92CF92DF92EF92FF920F931F9335
:1041C000CF93DF93CDB7DEB7EC970FB6F894DEBF91
:1041D0000FBECDBFC654DF4F28813981CA5BD040A6
:1041E000C055DF4FE880F980C05BD040CE54DF4F30
:1041F00008811981C25BD040CC54DF4F8880998000
:10420000C45BD040CA54DF4FA880B980C65BD040A1
:10421000C854DF4FC880D980C85BD04021303105F9
:1042200009F4EEC024F4232B09F44BC026C122303C
:10423000310509F40BC12330310509F01EC169EFC6
:104240007DE0CE014F960E948F5F67E77EE0CE0152
:104250004F960E947B5F60968FAD60978F932F96ED
:104260008FAD2F978F932E968FAD2E978F932D9680
:104270008FAD2D978F9389E79EE09F938F931F9229
:104280008EE18F938E010F5F1F4F1F930F930E943C
:10429000965FB801CE014F960E947B5F6DE77EE08E
:1042A000CE014F960E947B5FBE01615E7F4F89E227
:1042B00094E10E94593D0FB6F894DEBF0FBECDBF0A
:1042C000C3C06DEB76E0CE014F960E948F5F6CE825
:1042D00078E0CE014F960E947B5F8AE088169104B9
:1042E00034F460EF79E0CE014F960E947B5F4AE0A4
:1042F000BE016F5F7F4FC4010E94BF58BE016F5F58
:104300007F4FCE014F960E947B5F6CE874E0CE0138
:104310004F960E947B5F9AE0A916B10434F460EFD7
:1043200079E0CE014F960E947B5F4AE0BE016F5F4D
:104330007F4FC5010E94BF58BE016F5F7F4FCE0106
:104340004F960E947B5F6CE874E0CE014F960E940E
:104350007B5F8AE0C816D10434F460EF79E0CE01C7
:104360004F960E947B5F4AE0BE016F5F7F4FC601A0
:104370000E94BF58BE016F5F7F4FCE014F960E94D3
:104380007B5F63EA75E0CE014F960E947B5F9AE007
:10439000E916F10434F460EF79E0CE014F960E9403
:1043A0007B5F4AE0BE016F5F7F4FC7010E94BF582D
:1043B000BE016F5F7F4FCE014F960E947B5F60EB27
:1043C00076E0CE014F960E947B5F0A30110534F4EF
:1043D00060EF79E0CE014F960E947B5F4AE0BE011C
:1043E0006F5F7F4FC8010E94BF58BE016F5F7F4F54
:1043F000CE014F960E947B5FBE01615E7F4F20C061
:104400007E018FE1E80EF11C69EF7DE0C7010E949B
:104410008F5F67E77BE0C7010E947B5FF701019038
:104420000020E9F78F010150110964966CAD7DAD54
:104430008EAD9FAD649722E042E00E944356B701E3
:1044400089E294E10E94593D80E020C07E019FE115
:10445000E90EF11C65E77EE0C7010E948F5FF7015E
:1044600001900020E9F78F010150110968966CADA9
:104470007DAD8EAD9FAD6897DECF6FE77EE086ECB9
:1044800094E10E94473D1092661581E0EC960FB6CC
:10449000F894DEBF0FBECDBFDF91CF911F910F917A
:1044A000FF90EF90DF90CF90BF90AF909F908F9054
:1044B00008950895FC016370658B84819581268140
:1044C0003781613039F0633029F0918780873387F5
:1044D00022870895318720879387828708952F92B6
:1044E0003F924F925F926F927F928F929F92AF9284
:1044F000BF92CF92DF92EF92FF920F931F93CF93D1
:10450000DF93CDB7DEB76C970FB6F894DEBF0FBE62
:10451000CDBF9C8F8B8F5B011A011F830E833701E8
:10452000C982DC0158964D915C915997411551050E
:1045300009F0E5C018968D919C9119976817790735
:104540000CF0CAC11A968D919C911B9728163906BA
:104550000CF0C2C18C2C912CFB0136E0C39EE00D07
:10456000F11D1124FB87EA871E161F060CF0B4C14B
:10457000C40133E0880F991F3A95E1F79D878C8736
:10458000820D931D181619060CF0A6C157968C9132
:10459000811103C0203B08F02F5FAB8DBC8DED91E6
:1045A000FC9111970284F385E02DCD012A8F199596
:1045B0002A8DB5E02B9F90011124F5013596FF87D8
:1045C000EE87BB82AA822501A9014A195B09598B92
:1045D000488BC10108969B8B8A8BE889F989E40D89
:1045E000F51DEA59FD4F9491988761013D822C8217
:1045F000A885A0FF13C0AB8DBC8DED91FC91B98156
:10460000B13031F40484F585E02D2E813F8116C050
:104610000684F785E02DEE80FF801AC0EE81FF81D1
:104620006E167F06F1F0AB8DBC8DED91FC91B981DA
:10463000B13051F40484F585E02D9301A601B20157
:104640008B8D9C8D19950DC00684F785E02D730127
:10465000840194014C815D816A817B818B8D9C8D6D
:104660001995E885E695E887FFEFCF1ADF0A2C81D8
:104670003D81280D391D3D832C834A895B89C416F1
:10468000D50609F0B5CF5FEF451A550A8A819B819F
:10469000880D991D9B838A83AE85BF854A165B066C
:1046A00009F09BCFEE81FF816E167F0609F4F2C000
:1046B000EB8DFC8DA081B181F981F13079F4B501E8
:1046C0006B5F7F4F5096ED91FC915197830128E0ED
:1046D00030E0A1018B8D9C8D1995DCC06A857B85AE
:1046E000681979091E96ED91FC911F9773010C854D
:1046F0001D859401A1018B8D9C8D1995CBC0FA016C
:1047000034969491329765917491291BCB01B7E04F
:104710002B9F800D911D1124FA01259134913B8B23
:104720002A8BFC01459154915B834A83FC013296AC
:10473000C490319654915E87329614913196D490FC
:104740008981823058F0612E012E000C7708AD2D42
:104750000D2C000CBB0BB987A88704C019861886DE
:10476000612C712CAB8DBC8DED91FC911197028465
:10477000F385E02DCD011995B9818B2E912C689C84
:10478000C001699C900D789C900D1124FC01EA0DEC
:10479000FB1DFD87EC871C82712C612CE12F110F12
:1047A000FF0B95012E0F3F1F3B872A87AC0CB11CD6
:1047B000A5014E0F5F1F5F8B4E8BC1018D0D911DAB
:1047C000D7FC9A95998F888F4E85641608F062C041
:1047D000862D90E048855985480F591F489D9001C6
:1047E000499D300D589D300D1124D901A20DB31DE6
:1047F000B98BA88BAA84BB844C845D84DC80BA8589
:10480000DB1AE88DF98DE80FF91FFD8BEC8B8D2DF0
:104810008A0D2E893F89A216B306B9F1877061F41B
:104820008A819B810196EA89FB89AA81BB81EA0F73
:10483000FB1F74909B838A8377FE20C0AB8DBC8D59
:10484000ED91FC91B981B13061F40484F585E02DDE
:104850002E813F814C895D89B5018B8D9C8D199589
:104860000DC00684F785E02DEE80FF808401940161
:1048700048895989B2018B8D9C8D1995770CEFEF82
:10488000AE1ABE0A480C591CC2CF3C813C0D3C8379
:1048900063949ACFAB8DBC8DED91FC9111970688F6
:1048A000F789E02DCD016C960FB6F894DEBF0FBEF0
:1048B000CDBFDF91CF911F910F91FF90EF90DF90CF
:1048C000CF90BF90AF909F908F907F906F905F90B0
:1048D0004F903F902F9019946C960FB6F894DEBFCE
:1048E0000FBECDBFDF91CF911F910F91FF90EF9041
:1048F000DF90CF90BF90AF909F908F907F906F9000
:104900005F904F903F902F900895AF92BF92CF92BB
:10491000EF92FF920F931F93CF93DF93EC01262F1B
:10492000888D998D009709F03FC06A3059F41D8633
:104930001C862C898E859F8538E0239F800D911DD4
:10494000112440C06D3009F4A8C08E898823C1F0BD
:104950003C898C859D8546E0349F800D911D1124F6
:1049600048855985481759075CF41D861C868E8535
:104970009F8548E0349F800D911D11249F878E876D
:10498000EA88FB88088919894E855F856C857D8555
:10499000CC88CE01A4DD2C898C859D8536E0239FB3
:1049A000800D911D112442C06A3079F41D861C8649
:1049B0002C89FC013696E4918E859F852E9F800D73
:1049C000911D11249F878E8768C06D3009F465C0E2
:1049D000FC0134963491631708F45FC03196E4917A
:1049E000E61708F45AC0FC013296A590B490462F01
:1049F00050E0431B510937E0349FB001359F700DE3
:104A00001124A60EB71EF501329634913196E49129
:104A1000332311F0E1110DC0F5013496E4912C8996
:104A20008C859D85E29F800D911D11249D878C872B
:104A300034C0F501359644915E89552311F16C8996
:104A4000E32FF0E0E40FF11D47FDFA956E9FD001D2
:104A50006F9FB00D11244C855D854A0F5B1FE88563
:104A6000F985E417F5076CF41D861C86FC01369663
:104A7000E4918E859F856E9F800D911D11249F87E7
:104A80008E87EA88FB88088919894E855F856C8541
:104A90007D85CC88CE0123DDBFCF81E090E0DF9122
:104AA000CF911F910F91FF90EF90CF90BF90AF905B
:104AB00008956F927F928F929F92AF92BF92CF9202
:104AC000DF92EF92FF920F931F93CF93DF93EC014E
:104AD0004B015A0169013801E881F9810284F385AB
:104AE000E02D1995E881F9810288F389E02D87018D
:104AF0009601A501B401CE011995E881F981A501BE
:104B0000460D571D415051090288F389E02D960149
:104B1000B401CE011995E881F9810088F189E02D71
:104B20009301A501B401CE011995E881F981C80C62
:104B3000D91CB601615071090088F189E02D9301FB
:104B4000A501CE011995E881F9810688F789E02D44
:104B5000CE01DF91CF911F910F91FF90EF90DF90E9
:104B6000CF90BF90AF909F908F907F906F9019944F
:104B7000CF92DF92EF92FF920F931F93CF93DF9329
:104B800000D000D0CDB7DEB76C01DC01ED91FC9117
:104B90006217730789F4041715072CF4942F852FD7
:104BA000A801092F182F041B150B98012F5F3F4FE9
:104BB000048CF58DE02D12C04017510709F526171A
:104BC00037072CF4962F872FB901292F382F261B52
:104BD000370B2F5F3F4F068CF78DE02D8701C60105
:104BE000199526960FB6F894DEBF0FBECDBFDF91A4
:104BF000CF911F910F91FF90EF90DF90CF9008958C
:104C00000284F385E02D2D833E834B835C8369838F
:104C10007A831995D601ED91FC910488F589E02DF0
:104C20002D813E814B815C8169817A81C601199514
:104C3000D601ED91FC910688F789E02DC6012696F4
:104C40000FB6F894DEBF0FBECDBFDF91CF911F919D
:104C50000F91FF90EF90DF90CF901994EF92FF9219
:104C60000F931F93DC01ED91FC9111971A960D9112
:104C70001C911B9718962D913C91199700A0F1A1BA
:104C8000E02D7B0140E050E060E070E019951F915D
:104C90000F91FF90EF9008954F925F926F927F92E5
:104CA0008F929F92AF92BF92CF92DF92EF92FF923C
:104CB0000F931F93CF93DF931F921F92CDB7DEB751
:104CC0006C015A0139014801DC01ED91FC9102842B
:104CD000F385E02D69837A8319956981462E7A815F
:104CE000572E640C751CD601ED91FC9146145704A7
:104CF0006CF40088F189E02D87019401A501B201CF
:104D0000C6011995BFEF4B1A5B0AEDCF0688F789EC
:104D1000E02DC6010F900F90DF91CF911F910F9161
:104D2000FF90EF90DF90CF90BF90AF909F908F90CB
:104D30007F906F905F904F901994AF92BF92CF92F7
:104D4000DF92EF92FF920F931F93CF93DF9300D0E8
:104D50001F92CDB7DEB75C016901DC01ED91FC91DA
:104D60000284F385E02D4B835C8369837A831995F4
:104D7000D501ED91FC9169817A819B012C0D3D1D3E
:104D8000215031090488F589E02D78014B815C813F
:104D90008A01C5011995D501ED91FC910688F78925
:104DA000E02DC5010F900F900F900F90DF91CF91E4
:104DB0001F910F91FF90EF90DF90CF90BF90AF9039
:104DC0001994AF92BF92CF92DF92EF92FF920F931E
:104DD0001F93CF93DF9300D01F92CDB7DEB75C0156
:104DE0006901DC01ED91FC910284F385E02D4B8398
:104DF0005C8369837A831995D501ED91FC914B8190
:104E00005C81C40ED51EB1E0CB1AD1080488F589A7
:104E1000E02D7801860169817A819B01C501199590
:104E2000D501ED91FC910688F789E02DC5010F9021
:104E30000F900F900F90DF91CF911F910F91FF90E6
:104E4000EF90DF90CF90BF90AF9019940895EF92BC
:104E5000FF920F931F93DC01ED91FC9100A0F1A153
:104E6000E02D19951F910F91FF90EF9008950F93EA
:104E70001F93DC01ED91FC91068CF78DE02D1995C7
:104E80001F910F9108950F931F93DC01ED91FC91F9
:104E9000048CF58DE02D19951F910F910895DC017B
:104EA000ED91FC910084F185E02D199408952F92E5
:104EB0003F924F925F926F927F928F929F92AF92AA
:104EC000BF92CF92DF92EF92FF920F931F93CF93F7
:104ED000DF9300D0CDB7DEB74C017B836A836A01D4
:104EE000590117019801241B350B37FF03C0319579
:104EF00021953109C5014A815B81841B950B97FF80
:104F000003C091958195910951E0598382179307C8
:104F100014F019820BC09A2D8B2D5801092F182FD0
:104F20009A818B81DB82CA82C92ED82E8A819B818D
:104F3000A816B9065CF49C2D8D2D6801092F182F39
:104F40009A818B81BB82AA82A92EB82E2501AA81C3
:104F5000BB814A1A5B0A38016C187D0877FE03C0D2
:104F6000719461947108720157FE03C0BFEFEB1A90
:104F7000FB0AF594E794C016D1061CF00FEF1FEF63
:104F80001FC001E010E01CC0D401ED91FC91B9817B
:104F90000484F585E02D9101BB23C1F04A815B813A
:104FA000B601C4011995E618F708F7FE04C0C00E53
:104FB000D11EE40CF51CEA81FB813196FB83EA8368
:104FC0004A815B81A416B506FCF604C0A6016A817D
:104FD0007B81E7CF0F900F900F90DF91CF911F91C2
:104FE0000F91FF90EF90DF90CF90BF90AF909F9088
:104FF0008F907F906F905F904F903F902F9008958B
:105000000F931F93CF93DF93DC0155968C915597A7
:10501000823071F0833009F1813009F08CC0149630
:10502000ED91FC911597E41BF50BE21BF30B20C0EF
:105030001496ED91FC911597CF01861B970BBC013F
:10504000615071091696ED91FC911797CF01841B61
:10505000950BAC01421B530B6EC01696ED91FC9163
:105060001797CF01861B970BBC0161507109FA019C
:1050700077FD1BC116968D919C911797681779073C
:105080000CF013C1F7FF04C02E0F3F1FE0E0F0E06B
:1050900014968D919C911597AF01420F531F841761
:1050A00095071CF49C012E1B3F0B121613060CF0E7
:1050B000FCC0CB0177FD079643E0959587954A950F
:1050C000E1F79695982F882797958795E80FF91F10
:1050D000E15FFD4F6770772781E090E001C0880FA6
:1050E0006A95EAF7482F0130110541F088F0023047
:1050F000110509F0DAC02E0F3F1F15C02E0F3F1FFC
:10510000E217F30709F4D1C08081842B8193F8CF93
:1051100080952E0F3F1FE217F30709F4C6C0908158
:1051200098239193F8CFE217F30709F4BEC080816A
:1051300084278193F8CF77FDB8C014968D919C9108
:105140001597681779070CF0B0C057FF04C0240FFB
:10515000351F40E050E016968D919C911797FA010B
:10516000E20FF31F8E179F071CF49C01241B350BC5
:10517000121613060CF099C0A22F842F86958695DF
:10518000869590E8899F600D711D1124FB01E15FF8
:10519000FD4F4770A9F198E0941B492F50E0EA01B8
:1051A000CC5ADB4F8881291790F4421B51092FEF0D
:1051B00030E002C0359527954A95E2F78223013009
:1051C000110541F068F00230110589F06EC0013020
:1051D000110519F42081822B0CC00130110520F437
:1051E00080952081822305C00230110531F4208191
:1051F00082278083A91708F458C0A91BE058FF4FE5
:10520000A83048F10230110559F4EF018A2F988136
:1052100090959883C058DF4F88508830C0F730C0D1
:1052200081E00130110509F080E08195EF019A2FAE
:105230008883C058DF4F98509830D0F788EF8A0F96
:1052400086958695869590E8899FE00DF11D11243D
:10525000E058FF4FA770AA2341F1B0E0A45BBB4F19
:105260008C910130110529F038F002301105D1F090
:105270001CC09081892B18C080959081892314C00F
:1052800088EF8A0F86958695869590E8899FE00D30
:10529000F11D1124E058FF4FA77039F0B0E0A45B76
:1052A000BB4F8C91908189278083DF91CF911F9193
:1052B0000F9108952F923F924F925F926F927F923B
:1052C0008F929F92AF92BF92CF92DF92EF92FF9216
:1052D0000F931F93CF93DF9300D01F92CDB7DEB70C
:1052E0009B838A836A017B0151D4811103C060E4EE
:1052F0007AE052C060E081E8E1D2811103C064E548
:105300007AE04AC0C701B6010E94455D23E333E35A
:1053100043E75FE30E945E5E0E94175D4B015C0104
:1053200021D3811103C063E77AE036C02A803B8035
:1053300089ED281A8BEF380AF101C082D182E2820E
:10534000F382C701B60124E630E040E050E00E945D
:10535000A15B29013A01CA01B901C8D2811103C078
:1053600063E97AE019C00E94EB3A811103C067EB50
:105370007AE012C0EA81FB81E55DFB4F8081BFD3FB
:10538000282F811103C069ED7AE02AC00E94443BB6
:10539000811108C06FEE7AE086EC94E10E94473DEF
:1053A00020E06CC060E0EA81FB81E35DFB4F80811F
:1053B0000E949D336AE070E080E090E00E94083433
:1053C0000A811B8101591F4F6A817B8165567C4F81
:1053D000C8010E94453F282F811109C068E07BE089
:1053E00086EC94E12C830E94473D2C8147C02A81A2
:1053F0003B8125563F4F68E87EE086EC94E12C83A4
:1054000039830E94593DF801619171918191919187
:105410008F014FE050E00E945D3B2C8139810217E3
:10542000130749F76AE070E080E090E00E940834DA
:10543000ADD3882309F45BCF60E081E83FD28823B5
:1054400009F45DCFC501B4018DD2882309F46BCF77
:10545000F101C082D182E282F382C301B20146D25D
:10546000882309F47DCF0E94EB3A882309F47FCF8B
:105470000E94443B282F882309F48CCF822F0F9061
:105480000F900F900F90DF91CF911F910F91FF9090
:10549000EF90DF90CF90BF90AF909F908F907F90D4
:1054A0006F905F904F903F902F90089585ED80937F
:1054B000BC008091BC0084FDFCCF1092F9130895CC
:1054C00040918313262F30E0240F311D2132310506
:1054D000DCF42091F9132430C9F4FC0180E090E061
:1054E000861758F4309183132191DC01AF59BC4EDB
:1054F000A30FB11D2C930196F3CF80918313680FF6
:105500006093831380E0089581E0089582E0089518
:105510000895E091B2138091B113E81730F4F0E0F0
:10552000ED54FC4E808190E008958FEF9FEF089539
:105530009091B2138091B113981750F4E92FF0E0D5
:10554000ED54FC4E208130E09F5F9093B21302C077
:105550002FEF3FEFC90108958091B11390E02091A2
:10556000B213821B91090895CF92DF92EF92FF92BE
:105570000F931F93CF93DF937C01262F972F8A01E0
:105580008091FA13882391F0C62FD72F6E01C40E95
:10559000D51ECC15DD0569F06991D701ED91FC911F
:1055A0000190F081E02DC7011995F3CF642F822F70
:1055B00087DFC801DF91CF911F910F91FF90EF908E
:1055C000DF90CF900895CF93DF931F92CDB7DEB7D2
:1055D00069832091FA132223D1F020911C142032E8
:1055E00040F021E030E0FC013383228380E090E052
:1055F00014C08091FB13E82FF0E0E450FC4E998139
:1056000090838F5F8093FB1380931C1404C061E030
:10561000CE01019655DF81E090E00F90DF91CF91B0
:1056200008951F920F920FB60F9211240BB60F928E
:105630002F933F934F935F936F937F938F939F939A
:10564000AF93BF93EF93FF938091B900887F80362B
:1056500009F49CC068F5883209F45BC090F480318D
:1056600009F454C038F4882309F4F6C0883009F4EA
:105670004DC0F5C0883109F44CC0803209F45DC0DA
:10568000EEC0803409F468C048F4803309F455C092
:10569000883309F0E4C08093F713D8C0803509F44B
:1056A0004FC0883509F45DC0883409F0D8C0D6C031
:1056B000883909F4C7C0A8F4883709F467C038F4FA
:1056C000883609F463C0803709F460C0C8C08838E0
:1056D00009F4B8C0803909F45FC0803809F0BFC050
:1056E0005BC0803B09F486C038F4803A09F466C098
:1056F000883A09F47FC0B3C0803C09F4A7C0883C55
:1057000009F4A4C0883B09F48AC0A9C08091D413CD
:1057100010C09091F6138091F513981770F5E091F1
:10572000F61381E08E0F8093F613F0E0EB52FC4EFF
:1057300080818093BB0085EC86C08093F7138EC078
:10574000E091F61381E08E0F8093F6138091BB00F9
:10575000F0E0EB52FC4E80839091F6138091F513AC
:105760006EC0E091F61381E08E0F8093F613809166
:10577000BB00F0E0EB52FC4E80838091F813811166
:105780006DC081E08093D31384EA61C083E080938D
:10579000F9131092A713CFCF8091A713803208F08E
:1057A00051C0E091A71381E08E0F8093A7138091E1
:1057B000BB00F0E0E957FC4E8083BDCF85EC8093C1
:1057C000BC001092F9138091A713803230F4E0915D
:1057D000A713F0E0E957FC4E10826091A71370E028
:1057E000E0918513F091861387E893E11995109263
:1057F000A71335C084E08093F9131092841310929C
:105800008313E0918113F091821319958091831392
:10581000811105C081E08093831310926113E091A0
:10582000841381E08E0F80938413F0E0EF59FC4ED7
:1058300080818093BB00909184138091831398178B
:1058400008F479CF85E88093BC0009C085EC80938B
:10585000BC001092F91303C01092F71327DEFF91DA
:10586000EF91BF91AF919F918F917F916F915F91D8
:105870004F913F912F910F900BBE0F900FBE0F9045
:105880001F9018951092F91381E08093F8131092ED
:10589000D31361E084E151D761E085E14ED7E9EBB4
:1058A000F0E080818E7F808380818D7F808388E49B
:1058B0008093B80085E48093BC000895CF93DF9374
:1058C000D82FC62F8DE00E94E13A6D2F8DE194E133
:1058D0007ADE6C2F8DE194E176DE0E94843A91E0CD
:1058E000811190E0892FDF91CF910895CF92DF92BF
:1058F000EF92FF920E94435D20E43BEF4FE75AE4B2
:105900000E94AA5C20E030E040E05DE40E945E5E20
:105910000E94125D6B017C01C114D104E10481E09D
:10592000F806D4F4B701992777FD9095892F85E87B
:10593000C5DF882389F09927F7FC9A958F2D7E2D56
:105940006D2D86E8BBDF882339F06C2D87E8FF904A
:10595000EF90DF90CF90B2CF80E0FF90EF90DF909C
:10596000CF900895CF92DF92EF92FF920E94435D15
:1059700020E43BEF4FE75AE40E94AA5C20E030E0CD
:1059800040E05DE40E945E5E0E94175D6B017C0159
:10599000C114D104E10481E0F806B0F4B70188270E
:1059A000992782E88BDF882379F099278F2D7E2D28
:1059B0006D2D83E883DF882339F06C2D84E8FF9018
:1059C000EF90DF90CF907ACF80E0FF90EF90DF9064
:1059D000CF9008951F93CF93DF93182FEB018DE0A5
:1059E0000E94E13A80EB90E00E943F3B612F8DE105
:1059F00094E1E9DD0E94843A882319F081E08883EC
:105A000012C08DE090E00E94F73A9091B11380911E
:105A1000B213981739F08DE194E18ADD888381E033
:105A200090E003C0188280E090E0DF91CF911F9159
:105A30000895EF92FF920F931F93CF93DF9300D0BF
:105A40001F92CDB7DEB77C018B010E949F3B81FF87
:105A5000FCCFBE016D5F7F4F84E9BCDF892BD9F19C
:105A6000BE016C5F7F4F85E9B5DF892BA1F1BE01D7
:105A70006F5F7F4F86E9AEDF892B69F1BE016E5FF4
:105A80007F4F87E9A7DF892B31F12B8130E0322F5F
:105A900022278C81A901482BCA01F70191838083B9
:105AA000298130E0322F22274A81242BF8013183CB
:105AB00020830E94C73B6EE87EE086EC94E10E9462
:105AC000473D80E099810E94B33B8A8190E00E942B
:105AD000B33B81E009C08FEF9FEFF7019183808393
